{
    "contractName": "Factory",
    "abi": [
        {
            "inputs": [],
            "stateMutability": "nonpayable",
            "type": "constructor"
        },
        {
            "anonymous": false,
            "inputs": [
                {
                    "indexed": true,
                    "internalType": "address",
                    "name": "owner",
                    "type": "address"
                },
                {
                    "indexed": true,
                    "internalType": "address",
                    "name": "approved",
                    "type": "address"
                },
                {
                    "indexed": true,
                    "internalType": "uint256",
                    "name": "tokenId",
                    "type": "uint256"
                }
            ],
            "name": "Approval",
            "type": "event"
        },
        {
            "anonymous": false,
            "inputs": [
                {
                    "indexed": true,
                    "internalType": "address",
                    "name": "owner",
                    "type": "address"
                },
                {
                    "indexed": true,
                    "internalType": "address",
                    "name": "operator",
                    "type": "address"
                },
                {
                    "indexed": false,
                    "internalType": "bool",
                    "name": "approved",
                    "type": "bool"
                }
            ],
            "name": "ApprovalForAll",
            "type": "event"
        },
        {
            "anonymous": false,
            "inputs": [
                {
                    "indexed": true,
                    "internalType": "address",
                    "name": "previousOwner",
                    "type": "address"
                },
                {
                    "indexed": true,
                    "internalType": "address",
                    "name": "newOwner",
                    "type": "address"
                }
            ],
            "name": "OwnershipTransferred",
            "type": "event"
        },
        {
            "anonymous": false,
            "inputs": [
                {
                    "indexed": true,
                    "internalType": "uint256",
                    "name": "tokenId",
                    "type": "uint256"
                },
                {
                    "indexed": false,
                    "internalType": "string",
                    "name": "manufacturer",
                    "type": "string"
                },
                {
                    "indexed": false,
                    "internalType": "string",
                    "name": "name",
                    "type": "string"
                },
                {
                    "indexed": false,
                    "internalType": "uint256",
                    "name": "manufactureDate",
                    "type": "uint256"
                },
                {
                    "indexed": false,
                    "internalType": "uint256",
                    "name": "expiryDate",
                    "type": "uint256"
                },
                {
                    "indexed": false,
                    "internalType": "bool",
                    "name": "isQualityProduct",
                    "type": "bool"
                },
                {
                    "indexed": false,
                    "internalType": "uint256",
                    "name": "price",
                    "type": "uint256"
                }
            ],
            "name": "ProductCreated",
            "type": "event"
        },
        {
            "anonymous": false,
            "inputs": [
                {
                    "indexed": true,
                    "internalType": "address",
                    "name": "from",
                    "type": "address"
                },
                {
                    "indexed": true,
                    "internalType": "address",
                    "name": "to",
                    "type": "address"
                },
                {
                    "indexed": true,
                    "internalType": "uint256",
                    "name": "tokenId",
                    "type": "uint256"
                }
            ],
            "name": "Transfer",
            "type": "event"
        },
        {
            "inputs": [
                {
                    "internalType": "address",
                    "name": "to",
                    "type": "address"
                },
                {
                    "internalType": "uint256",
                    "name": "tokenId",
                    "type": "uint256"
                }
            ],
            "name": "approve",
            "outputs": [],
            "stateMutability": "nonpayable",
            "type": "function"
        },
        {
            "inputs": [
                {
                    "internalType": "address",
                    "name": "owner",
                    "type": "address"
                }
            ],
            "name": "balanceOf",
            "outputs": [
                {
                    "internalType": "uint256",
                    "name": "",
                    "type": "uint256"
                }
            ],
            "stateMutability": "view",
            "type": "function"
        },
        {
            "inputs": [],
            "name": "calculateAveragePrice",
            "outputs": [
                {
                    "internalType": "uint256",
                    "name": "",
                    "type": "uint256"
                }
            ],
            "stateMutability": "view",
            "type": "function"
        },
        {
            "inputs": [],
            "name": "cancelDiscount",
            "outputs": [],
            "stateMutability": "nonpayable",
            "type": "function"
        },
        {
            "inputs": [
                {
                    "internalType": "string",
                    "name": "productManufacturer",
                    "type": "string"
                },
                {
                    "internalType": "string",
                    "name": "productName",
                    "type": "string"
                },
                {
                    "internalType": "uint256",
                    "name": "manufactureDate",
                    "type": "uint256"
                },
                {
                    "internalType": "uint256",
                    "name": "expiryDate",
                    "type": "uint256"
                },
                {
                    "internalType": "bool",
                    "name": "isQualityProduct",
                    "type": "bool"
                },
                {
                    "internalType": "uint256",
                    "name": "price",
                    "type": "uint256"
                }
            ],
            "name": "createProduct",
            "outputs": [],
            "stateMutability": "nonpayable",
            "type": "function"
        },
        {
            "inputs": [
                {
                    "components": [
                        {
                            "internalType": "string",
                            "name": "name",
                            "type": "string"
                        },
                        {
                            "internalType": "string",
                            "name": "manufacturer",
                            "type": "string"
                        },
                        {
                            "internalType": "uint256",
                            "name": "manufactureDate",
                            "type": "uint256"
                        },
                        {
                            "internalType": "uint256",
                            "name": "expiryDate",
                            "type": "uint256"
                        },
                        {
                            "internalType": "bool",
                            "name": "isQualityProduct",
                            "type": "bool"
                        },
                        {
                            "internalType": "uint256",
                            "name": "price",
                            "type": "uint256"
                        }
                    ],
                    "internalType": "struct ProductLib.Product[]",
                    "name": "_products",
                    "type": "tuple[]"
                }
            ],
            "name": "createProductsBatch",
            "outputs": [],
            "stateMutability": "nonpayable",
            "type": "function"
        },
        {
            "inputs": [],
            "name": "discountData",
            "outputs": [
                {
                    "internalType": "bool",
                    "name": "isActive",
                    "type": "bool"
                },
                {
                    "internalType": "uint256",
                    "name": "percentage",
                    "type": "uint256"
                }
            ],
            "stateMutability": "view",
            "type": "function"
        },
        {
            "inputs": [
                {
                    "internalType": "uint256",
                    "name": "tokenId",
                    "type": "uint256"
                }
            ],
            "name": "getApproved",
            "outputs": [
                {
                    "internalType": "address",
                    "name": "",
                    "type": "address"
                }
            ],
            "stateMutability": "view",
            "type": "function"
        },
        {
            "inputs": [
                {
                    "internalType": "uint256",
                    "name": "expiryThresholdInDays",
                    "type": "uint256"
                }
            ],
            "name": "getExpiringProducts",
            "outputs": [
                {
                    "internalType": "uint256[]",
                    "name": "",
                    "type": "uint256[]"
                }
            ],
            "stateMutability": "view",
            "type": "function"
        },
        {
            "inputs": [
                {
                    "internalType": "string",
                    "name": "productManufacturer",
                    "type": "string"
                }
            ],
            "name": "getProductsByManufacturer",
            "outputs": [
                {
                    "internalType": "uint256[]",
                    "name": "",
                    "type": "uint256[]"
                }
            ],
            "stateMutability": "view",
            "type": "function"
        },
        {
            "inputs": [
                {
                    "internalType": "address",
                    "name": "owner",
                    "type": "address"
                },
                {
                    "internalType": "address",
                    "name": "operator",
                    "type": "address"
                }
            ],
            "name": "isApprovedForAll",
            "outputs": [
                {
                    "internalType": "bool",
                    "name": "",
                    "type": "bool"
                }
            ],
            "stateMutability": "view",
            "type": "function"
        },
        {
            "inputs": [],
            "name": "name",
            "outputs": [
                {
                    "internalType": "string",
                    "name": "",
                    "type": "string"
                }
            ],
            "stateMutability": "view",
            "type": "function"
        },
        {
            "inputs": [],
            "name": "owner",
            "outputs": [
                {
                    "internalType": "address",
                    "name": "",
                    "type": "address"
                }
            ],
            "stateMutability": "view",
            "type": "function"
        },
        {
            "inputs": [
                {
                    "internalType": "uint256",
                    "name": "tokenId",
                    "type": "uint256"
                }
            ],
            "name": "ownerOf",
            "outputs": [
                {
                    "internalType": "address",
                    "name": "",
                    "type": "address"
                }
            ],
            "stateMutability": "view",
            "type": "function"
        },
        {
            "inputs": [
                {
                    "internalType": "uint256",
                    "name": "",
                    "type": "uint256"
                }
            ],
            "name": "products",
            "outputs": [
                {
                    "internalType": "string",
                    "name": "name",
                    "type": "string"
                },
                {
                    "internalType": "string",
                    "name": "manufacturer",
                    "type": "string"
                },
                {
                    "internalType": "uint256",
                    "name": "manufactureDate",
                    "type": "uint256"
                },
                {
                    "internalType": "uint256",
                    "name": "expiryDate",
                    "type": "uint256"
                },
                {
                    "internalType": "bool",
                    "name": "isQualityProduct",
                    "type": "bool"
                },
                {
                    "internalType": "uint256",
                    "name": "price",
                    "type": "uint256"
                }
            ],
            "stateMutability": "view",
            "type": "function"
        },
        {
            "inputs": [],
            "name": "renounceOwnership",
            "outputs": [],
            "stateMutability": "nonpayable",
            "type": "function"
        },
        {
            "inputs": [
                {
                    "internalType": "address",
                    "name": "from",
                    "type": "address"
                },
                {
                    "internalType": "address",
                    "name": "to",
                    "type": "address"
                },
                {
                    "internalType": "uint256",
                    "name": "tokenId",
                    "type": "uint256"
                }
            ],
            "name": "safeTransferFrom",
            "outputs": [],
            "stateMutability": "nonpayable",
            "type": "function"
        },
        {
            "inputs": [
                {
                    "internalType": "address",
                    "name": "from",
                    "type": "address"
                },
                {
                    "internalType": "address",
                    "name": "to",
                    "type": "address"
                },
                {
                    "internalType": "uint256",
                    "name": "tokenId",
                    "type": "uint256"
                },
                {
                    "internalType": "bytes",
                    "name": "data",
                    "type": "bytes"
                }
            ],
            "name": "safeTransferFrom",
            "outputs": [],
            "stateMutability": "nonpayable",
            "type": "function"
        },
        {
            "inputs": [
                {
                    "internalType": "address",
                    "name": "operator",
                    "type": "address"
                },
                {
                    "internalType": "bool",
                    "name": "approved",
                    "type": "bool"
                }
            ],
            "name": "setApprovalForAll",
            "outputs": [],
            "stateMutability": "nonpayable",
            "type": "function"
        },
        {
            "inputs": [
                {
                    "internalType": "uint256",
                    "name": "percentage",
                    "type": "uint256"
                }
            ],
            "name": "setDiscount",
            "outputs": [],
            "stateMutability": "nonpayable",
            "type": "function"
        },
        {
            "inputs": [
                {
                    "internalType": "bytes4",
                    "name": "interfaceId",
                    "type": "bytes4"
                }
            ],
            "name": "supportsInterface",
            "outputs": [
                {
                    "internalType": "bool",
                    "name": "",
                    "type": "bool"
                }
            ],
            "stateMutability": "view",
            "type": "function"
        },
        {
            "inputs": [],
            "name": "symbol",
            "outputs": [
                {
                    "internalType": "string",
                    "name": "",
                    "type": "string"
                }
            ],
            "stateMutability": "view",
            "type": "function"
        },
        {
            "inputs": [],
            "name": "tokenCounter",
            "outputs": [
                {
                    "internalType": "uint256",
                    "name": "",
                    "type": "uint256"
                }
            ],
            "stateMutability": "view",
            "type": "function"
        },
        {
            "inputs": [
                {
                    "internalType": "uint256",
                    "name": "tokenId",
                    "type": "uint256"
                }
            ],
            "name": "tokenURI",
            "outputs": [
                {
                    "internalType": "string",
                    "name": "",
                    "type": "string"
                }
            ],
            "stateMutability": "view",
            "type": "function"
        },
        {
            "inputs": [
                {
                    "internalType": "address",
                    "name": "from",
                    "type": "address"
                },
                {
                    "internalType": "address",
                    "name": "to",
                    "type": "address"
                },
                {
                    "internalType": "uint256",
                    "name": "tokenId",
                    "type": "uint256"
                }
            ],
            "name": "transferFrom",
            "outputs": [],
            "stateMutability": "nonpayable",
            "type": "function"
        },
        {
            "inputs": [
                {
                    "internalType": "address",
                    "name": "newOwner",
                    "type": "address"
                }
            ],
            "name": "transferOwnership",
            "outputs": [],
            "stateMutability": "nonpayable",
            "type": "function"
        },
        {
            "inputs": [
                {
                    "internalType": "uint256",
                    "name": "productTokenId",
                    "type": "uint256"
                }
            ],
            "name": "updatePrice",
            "outputs": [],
            "stateMutability": "nonpayable",
            "type": "function"
        },
        {
            "inputs": [
                {
                    "internalType": "uint256[]",
                    "name": "productTokenIds",
                    "type": "uint256[]"
                }
            ],
            "name": "updatePricesBatch",
            "outputs": [],
            "stateMutability": "nonpayable",
            "type": "function"
        }
    ],
    "bytecode": "60806040523480156200001157600080fd5b5060405180604001604052806007815260200166466163746f727960c81b81525060405180604001604052806007815260200166464143544f525960c81b815250816000908162000063919062000195565b50600162000072828262000195565b5050506200008f620000896200009a60201b60201c565b6200009e565b600060075562000261565b3390565b600680546001600160a01b038381166001600160a01b0319831681179093556040519116919082907f8be0079c531659141344cd1fd0a4f28419497f9722a3daafe3b4186f6b6457e090600090a35050565b634e487b7160e01b600052604160045260246000fd5b600181811c908216806200011b57607f821691505b6020821081036200013c57634e487b7160e01b600052602260045260246000fd5b50919050565b601f8211156200019057600081815260208120601f850160051c810160208610156200016b5750805b601f850160051c820191505b818110156200018c5782815560010162000177565b5050505b505050565b81516001600160401b03811115620001b157620001b1620000f0565b620001c981620001c2845462000106565b8462000142565b602080601f831160018114620002015760008415620001e85750858301515b600019600386901b1c1916600185901b1785556200018c565b600085815260208120601f198616915b82811015620002325788860151825594840194600190910190840162000211565b5085821015620002515787850151600019600388901b60f8161c191681555b5050505050600190811b01905550565b612ab180620002716000396000f3fe608060405234801561001057600080fd5b50600436106101c45760003560e01c80638d6cc56d116100f9578063cc3e2f0511610097578063dabd271911610071578063dabd2719146103d7578063e985e9c5146103ea578063ea9ba5d1146103fd578063f2fde38b1461040557600080fd5b8063cc3e2f05146103b3578063d082e381146103bb578063d4aaf797146103c457600080fd5b8063a22cb465116100d3578063a22cb46514610352578063a4811bb214610365578063b88d4fde1461038d578063c87b56dd146103a057600080fd5b80638d6cc56d146103265780638da5cb5b1461033957806395d89b411461034a57600080fd5b806342842e0e1161016657806370a082311161014057806370a08231146102c5578063715018a6146102e65780637acc0b20146102ee578063869892b11461031357600080fd5b806342842e0e1461028c578063493b26be1461029f5780636352211e146102b257600080fd5b8063095ea7b3116101a2578063095ea7b3146102315780631e6ecae41461024657806323b872dd146102665780632e1ffb941461027957600080fd5b806301ffc9a7146101c957806306fdde03146101f1578063081812fc14610206575b600080fd5b6101dc6101d7366004611fba565b610418565b60405190151581526020015b60405180910390f35b6101f961046a565b6040516101e89190612027565b61021961021436600461203a565b6104fc565b6040516001600160a01b0390911681526020016101e8565b61024461023f36600461206f565b610523565b005b610259610254366004612136565b61063d565b6040516101e8919061217e565b6102446102743660046121c2565b610650565b61025961028736600461203a565b610681565b61024461029a3660046121c2565b610694565b6102446102ad3660046121fe565b6106af565b6102196102c036600461203a565b610741565b6102d86102d3366004612272565b6107a1565b6040519081526020016101e8565b610244610827565b6103016102fc36600461203a565b61083b565b6040516101e89695949392919061228d565b6102446103213660046122d8565b610986565b61024461033436600461203a565b610ae3565b6006546001600160a01b0316610219565b6101f9610bfb565b61024461036036600461238d565b610c0a565b600954600a546103769160ff169082565b6040805192151583526020830191909152016101e8565b61024461039b3660046123c0565b610c19565b6101f96103ae36600461203a565b610c4b565b610244610cbf565b6102d860075481565b6102446103d2366004612483565b610d26565b6102446103e536600461203a565b610eed565b6101dc6103f836600461251e565b610f62565b6102d8610f90565b610244610413366004612272565b610fad565b60006001600160e01b031982166380ac58cd60e01b148061044957506001600160e01b03198216635b5e139f60e01b145b8061046457506301ffc9a760e01b6001600160e01b03198316145b92915050565b60606000805461047990612548565b80601f01602080910402602001604051908101604052809291908181526020018280546104a590612548565b80156104f25780601f106104c7576101008083540402835291602001916104f2565b820191906000526020600020905b8154815290600101906020018083116104d557829003601f168201915b5050505050905090565b600061050782611026565b506000908152600460205260409020546001600160a01b031690565b600061052e82610741565b9050806001600160a01b0316836001600160a01b0316036105a05760405162461bcd60e51b815260206004820152602160248201527f4552433732313a20617070726f76616c20746f2063757272656e74206f776e656044820152603960f91b60648201526084015b60405180910390fd5b336001600160a01b03821614806105bc57506105bc8133610f62565b61062e5760405162461bcd60e51b815260206004820152603d60248201527f4552433732313a20617070726f76652063616c6c6572206973206e6f7420746f60448201527f6b656e206f776e6572206f7220617070726f76656420666f7220616c6c0000006064820152608401610597565b6106388383611085565b505050565b60075460609061046490600890846110f3565b61065a33826112f3565b6106765760405162461bcd60e51b815260040161059790612582565b610638838383611352565b60075460609061046490600890846114b6565b61063883838360405180602001604052806000815250610c19565b6106b7611692565b8060005b8181101561073b57368484838181106106d6576106d66125cf565b90506020028101906106e891906125e5565b90506107286106fa6020830183612605565b6107048480612605565b6040860135606087013561071e60a0890160808a0161264b565b8860a00135610d26565b50806107338161267c565b9150506106bb565b50505050565b6000818152600260205260408120546001600160a01b0316806104645760405162461bcd60e51b8152602060048201526018602482015277115490cdcc8c4e881a5b9d985b1a59081d1bdad95b88125160421b6044820152606401610597565b60006001600160a01b03821661080b5760405162461bcd60e51b815260206004820152602960248201527f4552433732313a2061646472657373207a65726f206973206e6f7420612076616044820152683634b21037bbb732b960b91b6064820152608401610597565b506001600160a01b031660009081526003602052604090205490565b61082f611692565b61083960006116ec565b565b60086020526000908152604090208054819061085690612548565b80601f016020809104026020016040519081016040528092919081815260200182805461088290612548565b80156108cf5780601f106108a4576101008083540402835291602001916108cf565b820191906000526020600020905b8154815290600101906020018083116108b257829003601f168201915b5050505050908060010180546108e490612548565b80601f016020809104026020016040519081016040528092919081815260200182805461091090612548565b801561095d5780601f106109325761010080835404028352916020019161095d565b820191906000526020600020905b81548152906001019060200180831161094057829003601f168201915b5050506002840154600385015460048601546005909601549495919490935060ff909116915086565b61098e611692565b805160005b818110156106385760008382815181106109af576109af6125cf565b602002602001015190506109da816000908152600260205260409020546001600160a01b0316151590565b610a205760405162461bcd60e51b8152602060048201526017602482015276283937b23ab1ba103237b2b9903737ba1032bc34b9ba1760491b6044820152606401610597565b6000818152600860205260408120610a379061173e565b604051637d2827cf60e11b8152600960048201526024810182905290915060009073__$83d0d8a6e9691e3f1f403c53ce7bacf04d$__9063fa504f9e90604401602060405180830381865af4158015610a94573d6000803e3d6000fd5b505050506040513d601f19601f82011682018060405250810190610ab89190612695565b6000938452600860205260409093206005019290925550819050610adb8161267c565b915050610993565b610aeb611692565b6000818152600260205260409020546001600160a01b0316610b495760405162461bcd60e51b8152602060048201526017602482015276283937b23ab1ba103237b2b9903737ba1032bc34b9ba1760491b6044820152606401610597565b6000818152600860205260408120610b609061173e565b604051637d2827cf60e11b8152600960048201526024810182905290915060009073__$83d0d8a6e9691e3f1f403c53ce7bacf04d$__9063fa504f9e90604401602060405180830381865af4158015610bbd573d6000803e3d6000fd5b505050506040513d601f19601f82011682018060405250810190610be19190612695565b600093845260086020526040909320600501929092555050565b60606001805461047990612548565b610c15338383611759565b5050565b610c2333836112f3565b610c3f5760405162461bcd60e51b815260040161059790612582565b61073b84848484611827565b6060610c5682611026565b6000610c6d60408051602081019091526000815290565b90506000815111610c8d5760405180602001604052806000815250610cb8565b80610c978461185a565b604051602001610ca89291906126ae565b6040516020818303038152906040525b9392505050565b610cc7611692565b6040516301ca2e5d60e31b81526009600482015273__$83d0d8a6e9691e3f1f403c53ce7bacf04d$__90630e5172e89060240160006040518083038186803b158015610d1257600080fd5b505af415801561073b573d6000803e3d6000fd5b610d2e611692565b60008888905011604051806060016040528060258152602001612a576025913990610d6c5760405162461bcd60e51b81526004016105979190612027565b506040805180820190915260208082527f50726f64756374206e616d652073686f756c64206e6f7420626520656d7074799082015285610dbf5760405162461bcd60e51b81526004016105979190612027565b50828410604051806060016040528060338152602001612a246033913990610dfa5760405162461bcd60e51b81526004016105979190612027565b50600754610e0833826118ec565b610e896007548a8a8080601f01602080910402602001604051908101604052809392919081815260200183838082843760009201919091525050604080516020601f8e018190048102820181019092528c815292508c91508b9081908401838280828437600092019190915250600895949392508b91508a90508989611906565b600754610e979060016119f8565b60075560405181907ff7d840a7f05259f95d2507bf22e01ff2bfa2cc6284e83dbc8cbc3047915db9ac90610eda908c908c908c908c908c908c908c908c90612706565b60405180910390a2505050505050505050565b610ef5611692565b604051636c000b4b60e11b8152600960048201526024810182905273__$83d0d8a6e9691e3f1f403c53ce7bacf04d$__9063d80016969060440160006040518083038186803b158015610f4757600080fd5b505af4158015610f5b573d6000803e3d6000fd5b5050505050565b6001600160a01b03918216600090815260056020908152604080832093909416825291909152205460ff1690565b6000610fa86007546008611a0490919063ffffffff16565b905090565b610fb5611692565b6001600160a01b03811661101a5760405162461bcd60e51b815260206004820152602660248201527f4f776e61626c653a206e6577206f776e657220697320746865207a65726f206160448201526564647265737360d01b6064820152608401610597565b611023816116ec565b50565b6000818152600260205260409020546001600160a01b03166110235760405162461bcd60e51b8152602060048201526018602482015277115490cdcc8c4e881a5b9d985b1a59081d1bdad95b88125160421b6044820152606401610597565b600081815260046020526040902080546001600160a01b0319166001600160a01b03841690811790915581906110ba82610741565b6001600160a01b03167f8c5be1e5ebec7d5bd14f71427d1e84f3dd0314c0f7b2291e5b200ac8c7c3b92560405160405180910390a45050565b606060008251116111505760405162461bcd60e51b815260206004820152602160248201527f4d616e756661637475726572206e616d652063616e6e6f7420626520656d70746044820152607960f81b6064820152608401610597565b6000836001600160401b0381111561116a5761116a612099565b604051908082528060200260200182016040528015611193578160200160208202803683370190505b509050600080846040516020016111aa9190612755565b60405160208183030381529060405280519060200120905060005b8681101561124c57818860008381526020019081526020016000206001016040516020016111f39190612767565b604051602081830303815290604052805190602001200361123a5780848481518110611221576112216125cf565b6020908102919091010152826112368161267c565b9350505b806112448161267c565b9150506111c5565b506000826001600160401b0381111561126757611267612099565b604051908082528060200260200182016040528015611290578160200160208202803683370190505b50905060005b838110156112e7578481815181106112b0576112b06125cf565b60200260200101518282815181106112ca576112ca6125cf565b6020908102919091010152806112df8161267c565b915050611296565b50979650505050505050565b6000806112ff83610741565b9050806001600160a01b0316846001600160a01b0316148061132657506113268185610f62565b8061134a5750836001600160a01b031661133f846104fc565b6001600160a01b0316145b949350505050565b826001600160a01b031661136582610741565b6001600160a01b03161461138b5760405162461bcd60e51b8152600401610597906127dd565b6001600160a01b0382166113ed5760405162461bcd60e51b8152602060048201526024808201527f4552433732313a207472616e7366657220746f20746865207a65726f206164646044820152637265737360e01b6064820152608401610597565b826001600160a01b031661140082610741565b6001600160a01b0316146114265760405162461bcd60e51b8152600401610597906127dd565b600081815260046020908152604080832080546001600160a01b03199081169091556001600160a01b0387811680865260038552838620805460001901905590871680865283862080546001019055868652600290945282852080549092168417909155905184937fddf252ad1be2c89b69c2b068fc378daa952ba7f163c4a11628f55a4df523b3ef91a4505050565b6060600082116115085760405162461bcd60e51b815260206004820152601a60248201527f5468726573686f6c64206d75737420626520706f7369746976650000000000006044820152606401610597565b6000836001600160401b0381111561152257611522612099565b60405190808252806020026020018201604052801561154b578160200160208202803683370190505b5090506000805b858110156115ec57600081815260208890526040812060030154620151809061157c904290612822565b6115869190612835565b90508581111580156115a8575060008281526020899052604090206003015442105b156115d957818484815181106115c0576115c06125cf565b6020908102919091010152826115d58161267c565b9350505b50806115e48161267c565b915050611552565b506000816001600160401b0381111561160757611607612099565b604051908082528060200260200182016040528015611630578160200160208202803683370190505b50905060005b8281101561168757838181518110611650576116506125cf565b602002602001015182828151811061166a5761166a6125cf565b60209081029190910101528061167f8161267c565b915050611636565b509695505050505050565b6006546001600160a01b031633146108395760405162461bcd60e51b815260206004820181905260248201527f4f776e61626c653a2063616c6c6572206973206e6f7420746865206f776e65726044820152606401610597565b600680546001600160a01b038381166001600160a01b0319831681179093556040519116919082907f8be0079c531659141344cd1fd0a4f28419497f9722a3daafe3b4186f6b6457e090600090a35050565b600061174d8260030154611b3c565b60059092018290555090565b816001600160a01b0316836001600160a01b0316036117ba5760405162461bcd60e51b815260206004820152601960248201527f4552433732313a20617070726f766520746f2063616c6c6572000000000000006044820152606401610597565b6001600160a01b03838116600081815260056020908152604080832094871680845294825291829020805460ff191686151590811790915591519182527f17307eab39ab6107e8899845ad3d59bd9653f200f220920489ca2b5937696c31910160405180910390a3505050565b611832848484611352565b61183e84848484611bdd565b61073b5760405162461bcd60e51b815260040161059790612857565b6060600061186783611cde565b60010190506000816001600160401b0381111561188657611886612099565b6040519080825280601f01601f1916602001820160405280156118b0576020820181803683370190505b5090508181016020015b600019016f181899199a1a9b1b9c1cb0b131b232b360811b600a86061a8153600a85049450846118ba57509392505050565b610c15828260405180602001604052806000815250611db6565b60006040518060c00160405280888152602001878152602001868152602001858152602001841515815260200183815250905061194281611de9565b6119805760405162461bcd60e51b815260206004820152600f60248201526e125b9d985b1a59081c1c9bd91d58dd608a1b6044820152606401610597565b600088815260208a9052604090208151829190819061199f90826128f7565b50602082015160018201906119b490826128f7565b506040820151600282015560608201516003820155608082015160048201805460ff191691151591909117905560a090910151600590910155505050505050505050565b6000610cb882846129b6565b6000808211611a615760405162461bcd60e51b815260206004820152602360248201527f4e6f2070726f647563747320617661696c61626c6520666f7220616e616c797360448201526234b99760e91b6064820152608401610597565b60008060005b84811015611ac657600081815260208790526040902060030154421015611ab457600081815260208790526040902060050154611aa490846129b6565b925081611ab08161267c565b9250505b80611abe8161267c565b915050611a67565b5060008111611b295760405162461bcd60e51b815260206004820152602960248201527f4e6f2076616c69642070726f647563747320617661696c61626c6520666f722060448201526830b730b63cb9b4b99760b91b6064820152608401610597565b611b338183612835565b95945050505050565b6000428211611b975760405162461bcd60e51b815260206004820152602160248201527f4578706972792064617465206d75737420626520696e207468652066757475726044820152606560f81b6064820152608401610597565b600062015180611ba74285612822565b611bb19190612835565b9050601e8111611bd35760078111611bcb576101f4610cb8565b610320610cb8565b6103e89392505050565b60006001600160a01b0384163b15611cd357604051630a85bd0160e11b81526001600160a01b0385169063150b7a0290611c219033908990889088906004016129c9565b6020604051808303816000875af1925050508015611c5c575060408051601f3d908101601f19168201909252611c5991810190612a06565b60015b611cb9573d808015611c8a576040519150601f19603f3d011682016040523d82523d6000602084013e611c8f565b606091505b508051600003611cb15760405162461bcd60e51b815260040161059790612857565b805181602001fd5b6001600160e01b031916630a85bd0160e11b14905061134a565b506001949350505050565b60008072184f03e93ff9f4daa797ed6e38ed64bf6a1f0160401b8310611d1d5772184f03e93ff9f4daa797ed6e38ed64bf6a1f0160401b830492506040015b6d04ee2d6d415b85acef81000000008310611d49576d04ee2d6d415b85acef8100000000830492506020015b662386f26fc100008310611d6757662386f26fc10000830492506010015b6305f5e1008310611d7f576305f5e100830492506008015b6127108310611d9357612710830492506004015b60648310611da5576064830492506002015b600a83106104645760010192915050565b611dc08383611e19565b611dcd6000848484611bdd565b6106385760405162461bcd60e51b815260040161059790612857565b80515160009015801590611e0257506000826020015151115b801561046457505060608101516040909101511090565b6001600160a01b038216611e6f5760405162461bcd60e51b815260206004820181905260248201527f4552433732313a206d696e7420746f20746865207a65726f20616464726573736044820152606401610597565b6000818152600260205260409020546001600160a01b031615611ed45760405162461bcd60e51b815260206004820152601c60248201527f4552433732313a20746f6b656e20616c7265616479206d696e746564000000006044820152606401610597565b6000818152600260205260409020546001600160a01b031615611f395760405162461bcd60e51b815260206004820152601c60248201527f4552433732313a20746f6b656e20616c7265616479206d696e746564000000006044820152606401610597565b6001600160a01b038216600081815260036020908152604080832080546001019055848352600290915280822080546001600160a01b0319168417905551839291907fddf252ad1be2c89b69c2b068fc378daa952ba7f163c4a11628f55a4df523b3ef908290a45050565b6001600160e01b03198116811461102357600080fd5b600060208284031215611fcc57600080fd5b8135610cb881611fa4565b60005b83811015611ff2578181015183820152602001611fda565b50506000910152565b60008151808452612013816020860160208601611fd7565b601f01601f19169290920160200192915050565b602081526000610cb86020830184611ffb565b60006020828403121561204c57600080fd5b5035919050565b80356001600160a01b038116811461206a57600080fd5b919050565b6000806040838503121561208257600080fd5b61208b83612053565b946020939093013593505050565b634e487b7160e01b600052604160045260246000fd5b604051601f8201601f191681016001600160401b03811182821017156120d7576120d7612099565b604052919050565b60006001600160401b038311156120f8576120f8612099565b61210b601f8401601f19166020016120af565b905082815283838301111561211f57600080fd5b828260208301376000602084830101529392505050565b60006020828403121561214857600080fd5b81356001600160401b0381111561215e57600080fd5b8201601f8101841361216f57600080fd5b61134a848235602084016120df565b6020808252825182820181905260009190848201906040850190845b818110156121b65783518352928401929184019160010161219a565b50909695505050505050565b6000806000606084860312156121d757600080fd5b6121e084612053565b92506121ee60208501612053565b9150604084013590509250925092565b6000806020838503121561221157600080fd5b82356001600160401b038082111561222857600080fd5b818501915085601f83011261223c57600080fd5b81358181111561224b57600080fd5b8660208260051b850101111561226057600080fd5b60209290920196919550909350505050565b60006020828403121561228457600080fd5b610cb882612053565b60c0815260006122a060c0830189611ffb565b82810360208401526122b28189611ffb565b604084019790975250506060810193909352901515608083015260a09091015292915050565b600060208083850312156122eb57600080fd5b82356001600160401b038082111561230257600080fd5b818501915085601f83011261231657600080fd5b81358181111561232857612328612099565b8060051b91506123398483016120af565b818152918301840191848101908884111561235357600080fd5b938501935b8385101561237157843582529385019390850190612358565b98975050505050505050565b8035801515811461206a57600080fd5b600080604083850312156123a057600080fd5b6123a983612053565b91506123b76020840161237d565b90509250929050565b600080600080608085870312156123d657600080fd5b6123df85612053565b93506123ed60208601612053565b92506040850135915060608501356001600160401b0381111561240f57600080fd5b8501601f8101871361242057600080fd5b61242f878235602084016120df565b91505092959194509250565b60008083601f84011261244d57600080fd5b5081356001600160401b0381111561246457600080fd5b60208301915083602082850101111561247c57600080fd5b9250929050565b60008060008060008060008060c0898b03121561249f57600080fd5b88356001600160401b03808211156124b657600080fd5b6124c28c838d0161243b565b909a50985060208b01359150808211156124db57600080fd5b506124e88b828c0161243b565b909750955050604089013593506060890135925061250860808a0161237d565b915060a089013590509295985092959890939650565b6000806040838503121561253157600080fd5b61253a83612053565b91506123b760208401612053565b600181811c9082168061255c57607f821691505b60208210810361257c57634e487b7160e01b600052602260045260246000fd5b50919050565b6020808252602d908201527f4552433732313a2063616c6c6572206973206e6f7420746f6b656e206f776e6560408201526c1c881bdc88185c1c1c9bdd9959609a1b606082015260800190565b634e487b7160e01b600052603260045260246000fd5b6000823560be198336030181126125fb57600080fd5b9190910192915050565b6000808335601e1984360301811261261c57600080fd5b8301803591506001600160401b0382111561263657600080fd5b60200191503681900382131561247c57600080fd5b60006020828403121561265d57600080fd5b610cb88261237d565b634e487b7160e01b600052601160045260246000fd5b60006001820161268e5761268e612666565b5060010190565b6000602082840312156126a757600080fd5b5051919050565b600083516126c0818460208801611fd7565b8351908301906126d4818360208801611fd7565b01949350505050565b81835281816020850137506000828201602090810191909152601f909101601f19169091010190565b60c08152600061271a60c083018a8c6126dd565b828103602084015261272d81898b6126dd565b604084019790975250506060810193909352901515608083015260a090910152949350505050565b600082516125fb818460208701611fd7565b600080835461277581612548565b6001828116801561278d57600181146127a2576127d1565b60ff19841687528215158302870194506127d1565b8760005260208060002060005b858110156127c85781548a8201529084019082016127af565b50505082870194505b50929695505050505050565b60208082526025908201527f4552433732313a207472616e736665722066726f6d20696e636f72726563742060408201526437bbb732b960d91b606082015260800190565b8181038181111561046457610464612666565b60008261285257634e487b7160e01b600052601260045260246000fd5b500490565b60208082526032908201527f4552433732313a207472616e7366657220746f206e6f6e20455243373231526560408201527131b2b4bb32b91034b6b83632b6b2b73a32b960711b606082015260800190565b601f82111561063857600081815260208120601f850160051c810160208610156128d05750805b601f850160051c820191505b818110156128ef578281556001016128dc565b505050505050565b81516001600160401b0381111561291057612910612099565b6129248161291e8454612548565b846128a9565b602080601f83116001811461295957600084156129415750858301515b600019600386901b1c1916600185901b1785556128ef565b600085815260208120601f198616915b8281101561298857888601518255948401946001909101908401612969565b50858210156129a65787850151600019600388901b60f8161c191681555b5050505050600190811b01905550565b8082018082111561046457610464612666565b6001600160a01b03858116825284166020820152604081018390526080606082018190526000906129fc90830184611ffb565b9695505050505050565b600060208284031215612a1857600080fd5b8151610cb881611fa456fe4d616e756661637475726520646174652073686f756c64206265206561726c696572207468616e2065787069727920646174654d616e756661637475726572206e616d652073686f756c64206e6f7420626520656d707479a26469706673582212203ca7a0c725c34cc8cfe95038e1485050713fdc1f2f6fbe47a405038db727832564736f6c63430008130033",
    "sourcePath": "c:/Users/cheny/Documents/GitHub/smart-expiring-product-management/contracts/Main.sol",
    "compiler": {
        "name": "solc",
        "version": "0.8.19+commit.7dd6d404"
    },
    "functionHashes": {
        "approve(address,uint256)": "095ea7b3",
        "balanceOf(address)": "70a08231",
        "calculateAveragePrice()": "ea9ba5d1",
        "cancelDiscount()": "cc3e2f05",
        "createProduct(string,string,uint256,uint256,bool,uint256)": "d4aaf797",
        "createProductsBatch((string,string,uint256,uint256,bool,uint256)[])": "493b26be",
        "discountData()": "a4811bb2",
        "getApproved(uint256)": "081812fc",
        "getExpiringProducts(uint256)": "2e1ffb94",
        "getProductsByManufacturer(string)": "1e6ecae4",
        "isApprovedForAll(address,address)": "e985e9c5",
        "name()": "06fdde03",
        "owner()": "8da5cb5b",
        "ownerOf(uint256)": "6352211e",
        "products(uint256)": "7acc0b20",
        "renounceOwnership()": "715018a6",
        "safeTransferFrom(address,address,uint256)": "42842e0e",
        "safeTransferFrom(address,address,uint256,bytes)": "b88d4fde",
        "setApprovalForAll(address,bool)": "a22cb465",
        "setDiscount(uint256)": "dabd2719",
        "supportsInterface(bytes4)": "01ffc9a7",
        "symbol()": "95d89b41",
        "tokenCounter()": "d082e381",
        "tokenURI(uint256)": "c87b56dd",
        "transferFrom(address,address,uint256)": "23b872dd",
        "transferOwnership(address)": "f2fde38b",
        "updatePrice(uint256)": "8d6cc56d",
        "updatePricesBatch(uint256[])": "869892b1"
    },
    "gasEstimates": {
        "creation": {
            "codeDepositCost": "2185800",
            "executionCost": "infinite",
            "totalCost": "infinite"
        },
        "external": {
            "approve(address,uint256)": "infinite",
            "balanceOf(address)": "2634",
            "calculateAveragePrice()": "infinite",
            "cancelDiscount()": "infinite",
            "createProduct(string,string,uint256,uint256,bool,uint256)": "infinite",
            "createProductsBatch((string,string,uint256,uint256,bool,uint256)[])": "infinite",
            "discountData()": "4507",
            "getApproved(uint256)": "4815",
            "getExpiringProducts(uint256)": "infinite",
            "getProductsByManufacturer(string)": "infinite",
            "isApprovedForAll(address,address)": "infinite",
            "name()": "infinite",
            "owner()": "2399",
            "ownerOf(uint256)": "2628",
            "products(uint256)": "infinite",
            "renounceOwnership()": "infinite",
            "safeTransferFrom(address,address,uint256)": "infinite",
            "safeTransferFrom(address,address,uint256,bytes)": "infinite",
            "setApprovalForAll(address,bool)": "infinite",
            "setDiscount(uint256)": "infinite",
            "supportsInterface(bytes4)": "557",
            "symbol()": "infinite",
            "tokenCounter()": "2362",
            "tokenURI(uint256)": "infinite",
            "transferFrom(address,address,uint256)": "infinite",
            "transferOwnership(address)": "28446",
            "updatePrice(uint256)": "infinite",
            "updatePricesBatch(uint256[])": "infinite"
        }
    }
}