{
  "contractName": "Factory2",
  "abi": [
    {
      "inputs": [],
      "stateMutability": "nonpayable",
      "type": "constructor"
    },
    {
      "anonymous": false,
      "inputs": [
        {
          "indexed": true,
          "internalType": "address",
          "name": "owner",
          "type": "address"
        },
        {
          "indexed": true,
          "internalType": "address",
          "name": "approved",
          "type": "address"
        },
        {
          "indexed": true,
          "internalType": "uint256",
          "name": "tokenId",
          "type": "uint256"
        }
      ],
      "name": "Approval",
      "type": "event"
    },
    {
      "anonymous": false,
      "inputs": [
        {
          "indexed": true,
          "internalType": "address",
          "name": "owner",
          "type": "address"
        },
        {
          "indexed": true,
          "internalType": "address",
          "name": "operator",
          "type": "address"
        },
        {
          "indexed": false,
          "internalType": "bool",
          "name": "approved",
          "type": "bool"
        }
      ],
      "name": "ApprovalForAll",
      "type": "event"
    },
    {
      "anonymous": false,
      "inputs": [
        {
          "indexed": true,
          "internalType": "address",
          "name": "previousOwner",
          "type": "address"
        },
        {
          "indexed": true,
          "internalType": "address",
          "name": "newOwner",
          "type": "address"
        }
      ],
      "name": "OwnershipTransferred",
      "type": "event"
    },
    {
      "anonymous": false,
      "inputs": [
        {
          "indexed": true,
          "internalType": "address",
          "name": "from",
          "type": "address"
        },
        {
          "indexed": true,
          "internalType": "address",
          "name": "to",
          "type": "address"
        },
        {
          "indexed": true,
          "internalType": "uint256",
          "name": "tokenId",
          "type": "uint256"
        }
      ],
      "name": "Transfer",
      "type": "event"
    },
    {
      "inputs": [
        {
          "internalType": "address",
          "name": "to",
          "type": "address"
        },
        {
          "internalType": "uint256",
          "name": "tokenId",
          "type": "uint256"
        }
      ],
      "name": "approve",
      "outputs": [],
      "stateMutability": "nonpayable",
      "type": "function"
    },
    {
      "inputs": [
        {
          "internalType": "address",
          "name": "owner",
          "type": "address"
        }
      ],
      "name": "balanceOf",
      "outputs": [
        {
          "internalType": "uint256",
          "name": "",
          "type": "uint256"
        }
      ],
      "stateMutability": "view",
      "type": "function"
    },
    {
      "inputs": [
        {
          "internalType": "uint256",
          "name": "tokenId",
          "type": "uint256"
        }
      ],
      "name": "getApproved",
      "outputs": [
        {
          "internalType": "address",
          "name": "",
          "type": "address"
        }
      ],
      "stateMutability": "view",
      "type": "function"
    },
    {
      "inputs": [
        {
          "internalType": "address",
          "name": "owner",
          "type": "address"
        },
        {
          "internalType": "address",
          "name": "operator",
          "type": "address"
        }
      ],
      "name": "isApprovedForAll",
      "outputs": [
        {
          "internalType": "bool",
          "name": "",
          "type": "bool"
        }
      ],
      "stateMutability": "view",
      "type": "function"
    },
    {
      "inputs": [],
      "name": "name",
      "outputs": [
        {
          "internalType": "string",
          "name": "",
          "type": "string"
        }
      ],
      "stateMutability": "view",
      "type": "function"
    },
    {
      "inputs": [],
      "name": "owner",
      "outputs": [
        {
          "internalType": "address",
          "name": "",
          "type": "address"
        }
      ],
      "stateMutability": "view",
      "type": "function"
    },
    {
      "inputs": [
        {
          "internalType": "uint256",
          "name": "tokenId",
          "type": "uint256"
        }
      ],
      "name": "ownerOf",
      "outputs": [
        {
          "internalType": "address",
          "name": "",
          "type": "address"
        }
      ],
      "stateMutability": "view",
      "type": "function"
    },
    {
      "inputs": [
        {
          "internalType": "uint256",
          "name": "",
          "type": "uint256"
        }
      ],
      "name": "products",
      "outputs": [
        {
          "internalType": "string",
          "name": "name",
          "type": "string"
        },
        {
          "internalType": "string",
          "name": "manufacturer",
          "type": "string"
        },
        {
          "internalType": "uint256",
          "name": "manufactureDate",
          "type": "uint256"
        },
        {
          "internalType": "uint256",
          "name": "expiryDate",
          "type": "uint256"
        },
        {
          "internalType": "bool",
          "name": "isQualityProduct",
          "type": "bool"
        },
        {
          "internalType": "uint256",
          "name": "price",
          "type": "uint256"
        }
      ],
      "stateMutability": "view",
      "type": "function"
    },
    {
      "inputs": [],
      "name": "renounceOwnership",
      "outputs": [],
      "stateMutability": "nonpayable",
      "type": "function"
    },
    {
      "inputs": [
        {
          "internalType": "address",
          "name": "from",
          "type": "address"
        },
        {
          "internalType": "address",
          "name": "to",
          "type": "address"
        },
        {
          "internalType": "uint256",
          "name": "tokenId",
          "type": "uint256"
        }
      ],
      "name": "safeTransferFrom",
      "outputs": [],
      "stateMutability": "nonpayable",
      "type": "function"
    },
    {
      "inputs": [
        {
          "internalType": "address",
          "name": "from",
          "type": "address"
        },
        {
          "internalType": "address",
          "name": "to",
          "type": "address"
        },
        {
          "internalType": "uint256",
          "name": "tokenId",
          "type": "uint256"
        },
        {
          "internalType": "bytes",
          "name": "data",
          "type": "bytes"
        }
      ],
      "name": "safeTransferFrom",
      "outputs": [],
      "stateMutability": "nonpayable",
      "type": "function"
    },
    {
      "inputs": [
        {
          "internalType": "address",
          "name": "operator",
          "type": "address"
        },
        {
          "internalType": "bool",
          "name": "approved",
          "type": "bool"
        }
      ],
      "name": "setApprovalForAll",
      "outputs": [],
      "stateMutability": "nonpayable",
      "type": "function"
    },
    {
      "inputs": [
        {
          "internalType": "bytes4",
          "name": "interfaceId",
          "type": "bytes4"
        }
      ],
      "name": "supportsInterface",
      "outputs": [
        {
          "internalType": "bool",
          "name": "",
          "type": "bool"
        }
      ],
      "stateMutability": "view",
      "type": "function"
    },
    {
      "inputs": [],
      "name": "symbol",
      "outputs": [
        {
          "internalType": "string",
          "name": "",
          "type": "string"
        }
      ],
      "stateMutability": "view",
      "type": "function"
    },
    {
      "inputs": [],
      "name": "tokenCounter",
      "outputs": [
        {
          "internalType": "uint256",
          "name": "",
          "type": "uint256"
        }
      ],
      "stateMutability": "view",
      "type": "function"
    },
    {
      "inputs": [
        {
          "internalType": "uint256",
          "name": "tokenId",
          "type": "uint256"
        }
      ],
      "name": "tokenURI",
      "outputs": [
        {
          "internalType": "string",
          "name": "",
          "type": "string"
        }
      ],
      "stateMutability": "view",
      "type": "function"
    },
    {
      "inputs": [
        {
          "internalType": "address",
          "name": "from",
          "type": "address"
        },
        {
          "internalType": "address",
          "name": "to",
          "type": "address"
        },
        {
          "internalType": "uint256",
          "name": "tokenId",
          "type": "uint256"
        }
      ],
      "name": "transferFrom",
      "outputs": [],
      "stateMutability": "nonpayable",
      "type": "function"
    },
    {
      "inputs": [
        {
          "internalType": "address",
          "name": "newOwner",
          "type": "address"
        }
      ],
      "name": "transferOwnership",
      "outputs": [],
      "stateMutability": "nonpayable",
      "type": "function"
    },
    {
      "inputs": [
        {
          "internalType": "string",
          "name": "_manufacturer",
          "type": "string"
        },
        {
          "internalType": "string",
          "name": "_name",
          "type": "string"
        },
        {
          "internalType": "uint256",
          "name": "_manufactureDate",
          "type": "uint256"
        },
        {
          "internalType": "uint256",
          "name": "_expiryDate",
          "type": "uint256"
        },
        {
          "internalType": "bool",
          "name": "_isQualityProduct",
          "type": "bool"
        }
      ],
      "name": "createProduct",
      "outputs": [],
      "stateMutability": "nonpayable",
      "type": "function"
    },
    {
      "inputs": [
        {
          "internalType": "uint256",
          "name": "_tokenId",
          "type": "uint256"
        }
      ],
      "name": "updatePrice",
      "outputs": [],
      "stateMutability": "nonpayable",
      "type": "function"
    },
    {
      "inputs": [
        {
          "internalType": "uint256",
          "name": "_tokenId",
          "type": "uint256"
        }
      ],
      "name": "isProductExpired",
      "outputs": [
        {
          "internalType": "bool",
          "name": "",
          "type": "bool"
        }
      ],
      "stateMutability": "view",
      "type": "function"
    },
    {
      "inputs": [],
      "name": "calculateAveragePrice",
      "outputs": [
        {
          "internalType": "uint256",
          "name": "",
          "type": "uint256"
        }
      ],
      "stateMutability": "view",
      "type": "function"
    },
    {
      "inputs": [
        {
          "internalType": "uint256",
          "name": "_daysThreshold",
          "type": "uint256"
        }
      ],
      "name": "getExpiringProducts",
      "outputs": [
        {
          "internalType": "uint256[]",
          "name": "",
          "type": "uint256[]"
        }
      ],
      "stateMutability": "view",
      "type": "function"
    },
    {
      "inputs": [
        {
          "internalType": "string",
          "name": "_manufacturer",
          "type": "string"
        }
      ],
      "name": "getProductsByManufacturer",
      "outputs": [
        {
          "internalType": "uint256[]",
          "name": "",
          "type": "uint256[]"
        }
      ],
      "stateMutability": "view",
      "type": "function"
    }
  ],
  "bytecode": "0x60806040523480156200001157600080fd5b506040518060400160405280600781526020017f466163746f7279000000000000000000000000000000000000000000000000008152506040518060400160405280600781526020017f464143544f52590000000000000000000000000000000000000000000000000081525081600090816200008f91906200041a565b508060019081620000a191906200041a565b505050620000c4620000b8620000d260201b60201c565b620000da60201b60201c565b600060078190555062000501565b600033905090565b6000600660009054906101000a900473ffffffffffffffffffffffffffffffffffffffff16905081600660006101000a81548173ffffffffffffffffffffffffffffffffffffffff021916908373ffffffffffffffffffffffffffffffffffffffff1602179055508173ffffffffffffffffffffffffffffffffffffffff168173ffffffffffffffffffffffffffffffffffffffff167f8be0079c531659141344cd1fd0a4f28419497f9722a3daafe3b4186f6b6457e060405160405180910390a35050565b600081519050919050565b7f4e487b7100000000000000000000000000000000000000000000000000000000600052604160045260246000fd5b7f4e487b7100000000000000000000000000000000000000000000000000000000600052602260045260246000fd5b600060028204905060018216806200022257607f821691505b602082108103620002385762000237620001da565b5b50919050565b60008190508160005260206000209050919050565b60006020601f8301049050919050565b600082821b905092915050565b600060088302620002a27fffffffffffffffffffffffffffffffffffffffffffffffffffffffffffffffff8262000263565b620002ae868362000263565b95508019841693508086168417925050509392505050565b6000819050919050565b6000819050919050565b6000620002fb620002f5620002ef84620002c6565b620002d0565b620002c6565b9050919050565b6000819050919050565b6200031783620002da565b6200032f620003268262000302565b84845462000270565b825550505050565b600090565b6200034662000337565b620003538184846200030c565b505050565b5b818110156200037b576200036f6000826200033c565b60018101905062000359565b5050565b601f821115620003ca5762000394816200023e565b6200039f8462000253565b81016020851015620003af578190505b620003c7620003be8562000253565b83018262000358565b50505b505050565b600082821c905092915050565b6000620003ef60001984600802620003cf565b1980831691505092915050565b60006200040a8383620003dc565b9150826002028217905092915050565b6200042582620001a0565b67ffffffffffffffff811115620004415762000440620001ab565b5b6200044d825462000209565b6200045a8282856200037f565b600060209050601f8311600181146200049257600084156200047d578287015190505b620004898582620003fc565b865550620004f9565b601f198416620004a2866200023e565b60005b82811015620004cc57848901518255600182019150602085019450602081019050620004a5565b86831015620004ec5784890151620004e8601f891682620003dc565b8355505b6001600288020188555050505b505050505050565b613a8f80620005116000396000f3fe608060405234801561001057600080fd5b50600436106101585760003560e01c8063715018a6116100c3578063b88d4fde1161007c578063b88d4fde146103ee578063c87b56dd1461040a578063d082e3811461043a578063e985e9c514610458578063ea9ba5d114610488578063f2fde38b146104a657610158565b8063715018a61461033b5780637acc0b20146103455780638d6cc56d1461037a5780638da5cb5b1461039657806395d89b41146103b4578063a22cb465146103d257610158565b806323b872dd1161011557806323b872dd146102435780632e1ffb941461025f57806342842e0e1461028f5780636102b37e146102ab5780636352211e146102db57806370a082311461030b57610158565b806301ffc9a71461015d57806306fdde031461018d578063081812fc146101ab578063095ea7b3146101db5780631a7e914f146101f75780631e6ecae414610213575b600080fd5b610177600480360381019061017291906123a3565b6104c2565b60405161018491906123eb565b60405180910390f35b6101956105a4565b6040516101a29190612496565b60405180910390f35b6101c560048036038101906101c091906124ee565b610636565b6040516101d2919061255c565b60405180910390f35b6101f560048036038101906101f091906125a3565b61067c565b005b610211600480360381019061020c9190612744565b610793565b005b61022d600480360381019061022891906127f7565b610889565b60405161023a91906128fe565b60405180910390f35b61025d60048036038101906102589190612920565b610a44565b005b610279600480360381019061027491906124ee565b610aa4565b60405161028691906128fe565b60405180910390f35b6102a960048036038101906102a49190612920565b610c47565b005b6102c560048036038101906102c091906124ee565b610c67565b6040516102d291906123eb565b60405180910390f35b6102f560048036038101906102f091906124ee565b610cd8565b604051610302919061255c565b60405180910390f35b61032560048036038101906103209190612973565b610d5e565b60405161033291906129af565b60405180910390f35b610343610e15565b005b61035f600480360381019061035a91906124ee565b610e29565b604051610371969594939291906129ca565b60405180910390f35b610394600480360381019061038f91906124ee565b610f82565b005b61039e611014565b6040516103ab919061255c565b60405180910390f35b6103bc61103e565b6040516103c99190612496565b60405180910390f35b6103ec60048036038101906103e79190612a39565b6110d0565b005b61040860048036038101906104039190612b1a565b6110e6565b005b610424600480360381019061041f91906124ee565b611148565b6040516104319190612496565b60405180910390f35b6104426111b0565b60405161044f91906129af565b60405180910390f35b610472600480360381019061046d9190612b9d565b6111b6565b60405161047f91906123eb565b60405180910390f35b61049061124a565b60405161049d91906129af565b60405180910390f35b6104c060048036038101906104bb9190612973565b61134a565b005b60007f80ac58cd000000000000000000000000000000000000000000000000000000007bffffffffffffffffffffffffffffffffffffffffffffffffffffffff1916827bffffffffffffffffffffffffffffffffffffffffffffffffffffffff1916148061058d57507f5b5e139f000000000000000000000000000000000000000000000000000000007bffffffffffffffffffffffffffffffffffffffffffffffffffffffff1916827bffffffffffffffffffffffffffffffffffffffffffffffffffffffff1916145b8061059d575061059c826113cd565b5b9050919050565b6060600080546105b390612c0c565b80601f01602080910402602001604051908101604052809291908181526020018280546105df90612c0c565b801561062c5780601f106106015761010080835404028352916020019161062c565b820191906000526020600020905b81548152906001019060200180831161060f57829003601f168201915b5050505050905090565b600061064182611437565b6004600083815260200190815260200160002060009054906101000a900473ffffffffffffffffffffffffffffffffffffffff169050919050565b600061068782610cd8565b90508073ffffffffffffffffffffffffffffffffffffffff168373ffffffffffffffffffffffffffffffffffffffff16036106f7576040517f08c379a00000000000000000000000000000000000000000000000000000000081526004016106ee90612caf565b60405180910390fd5b8073ffffffffffffffffffffffffffffffffffffffff16610716611482565b73ffffffffffffffffffffffffffffffffffffffff16148061074557506107448161073f611482565b6111b6565b5b610784576040517f08c379a000000000000000000000000000000000000000000000000000000000815260040161077b90612d41565b60405180910390fd5b61078e838361148a565b505050565b61079b611543565b600060075490506107ac33826115c1565b60006107b7846115df565b90506040518060c001604052808881526020018781526020018681526020018581526020018415158152602001828152506008600084815260200190815260200160002060008201518160000190816108109190612f0d565b5060208201518160010190816108269190612f0d565b50604082015181600201556060820151816003015560808201518160040160006101000a81548160ff02191690831515021790555060a082015181600501559050506007600081548092919061087b9061300e565b919050555050505050505050565b6060600060075467ffffffffffffffff8111156108a9576108a86125ed565b5b6040519080825280602002602001820160405280156108d75781602001602082028036833780820191505090505b5090506000805b60075481101561099257846040516020016108f99190613092565b6040516020818303038152906040528051906020012060086000838152602001908152602001600020600101604051602001610935919061312c565b604051602081830303815290604052805190602001200361097f578083838151811061096457610963613143565b5b602002602001018181525050818061097b9061300e565b9250505b808061098a9061300e565b9150506108de565b5060008167ffffffffffffffff8111156109af576109ae6125ed565b5b6040519080825280602002602001820160405280156109dd5781602001602082028036833780820191505090505b50905060005b82811015610a38578381815181106109fe576109fd613143565b5b6020026020010151828281518110610a1957610a18613143565b5b6020026020010181815250508080610a309061300e565b9150506109e3565b50809350505050919050565b610a55610a4f611482565b82611637565b610a94576040517f08c379a0000000000000000000000000000000000000000000000000000000008152600401610a8b906131e4565b60405180910390fd5b610a9f8383836116cc565b505050565b6060600060075467ffffffffffffffff811115610ac457610ac36125ed565b5b604051908082528060200260200182016040528015610af25781602001602082028036833780820191505090505b5090506000805b600754811015610b9557600062015180426008600085815260200190815260200160002060030154610b2b9190613204565b610b359190613267565b9050858111158015610b4d5750610b4b82610c67565b155b15610b815781848481518110610b6657610b65613143565b5b6020026020010181815250508280610b7d9061300e565b9350505b508080610b8d9061300e565b915050610af9565b5060008167ffffffffffffffff811115610bb257610bb16125ed565b5b604051908082528060200260200182016040528015610be05781602001602082028036833780820191505090505b50905060005b82811015610c3b57838181518110610c0157610c00613143565b5b6020026020010151828281518110610c1c57610c1b613143565b5b6020026020010181815250508080610c339061300e565b915050610be6565b50809350505050919050565b610c62838383604051806020016040528060008152506110e6565b505050565b6000610c72826119c5565b610cb1576040517f08c379a0000000000000000000000000000000000000000000000000000000008152600401610ca8906132e4565b60405180910390fd5b60006008600084815260200190815260200160002060030154905080421015915050919050565b600080610ce483611a06565b9050600073ffffffffffffffffffffffffffffffffffffffff168173ffffffffffffffffffffffffffffffffffffffff1603610d55576040517f08c379a0000000000000000000000000000000000000000000000000000000008152600401610d4c90613350565b60405180910390fd5b80915050919050565b60008073ffffffffffffffffffffffffffffffffffffffff168273ffffffffffffffffffffffffffffffffffffffff1603610dce576040517f08c379a0000000000000000000000000000000000000000000000000000000008152600401610dc5906133e2565b60405180910390fd5b600360008373ffffffffffffffffffffffffffffffffffffffff1673ffffffffffffffffffffffffffffffffffffffff168152602001908152602001600020549050919050565b610e1d611543565b610e276000611a43565b565b6008602052806000526040600020600091509050806000018054610e4c90612c0c565b80601f0160208091040260200160405190810160405280929190818152602001828054610e7890612c0c565b8015610ec55780601f10610e9a57610100808354040283529160200191610ec5565b820191906000526020600020905b815481529060010190602001808311610ea857829003601f168201915b505050505090806001018054610eda90612c0c565b80601f0160208091040260200160405190810160405280929190818152602001828054610f0690612c0c565b8015610f535780601f10610f2857610100808354040283529160200191610f53565b820191906000526020600020905b815481529060010190602001808311610f3657829003601f168201915b5050505050908060020154908060030154908060040160009054906101000a900460ff16908060050154905086565b610f8a611543565b610f93816119c5565b610fd2576040517f08c379a0000000000000000000000000000000000000000000000000000000008152600401610fc9906132e4565b60405180910390fd5b6000610ff360086000848152602001908152602001600020600301546115df565b90508060086000848152602001908152602001600020600501819055505050565b6000600660009054906101000a900473ffffffffffffffffffffffffffffffffffffffff16905090565b60606001805461104d90612c0c565b80601f016020809104026020016040519081016040528092919081815260200182805461107990612c0c565b80156110c65780601f1061109b576101008083540402835291602001916110c6565b820191906000526020600020905b8154815290600101906020018083116110a957829003601f168201915b5050505050905090565b6110e26110db611482565b8383611b09565b5050565b6110f76110f1611482565b83611637565b611136576040517f08c379a000000000000000000000000000000000000000000000000000000000815260040161112d906131e4565b60405180910390fd5b61114284848484611c75565b50505050565b606061115382611437565b600061115d611cd1565b9050600081511161117d57604051806020016040528060008152506111a8565b8061118784611ce8565b604051602001611198929190613402565b6040516020818303038152906040525b915050919050565b60075481565b6000600560008473ffffffffffffffffffffffffffffffffffffffff1673ffffffffffffffffffffffffffffffffffffffff16815260200190815260200160002060008373ffffffffffffffffffffffffffffffffffffffff1673ffffffffffffffffffffffffffffffffffffffff16815260200190815260200160002060009054906101000a900460ff16905092915050565b60008060075411611290576040517f08c379a000000000000000000000000000000000000000000000000000000000815260040161128790613498565b60405180910390fd5b60008060005b6007548110156112f3576112a981610c67565b6112e0576008600082815260200190815260200160002060050154836112cf91906134b8565b925081806112dc9061300e565b9250505b80806112eb9061300e565b915050611296565b5060008111611337576040517f08c379a000000000000000000000000000000000000000000000000000000000815260040161132e9061355e565b60405180910390fd5b80826113439190613267565b9250505090565b611352611543565b600073ffffffffffffffffffffffffffffffffffffffff168173ffffffffffffffffffffffffffffffffffffffff16036113c1576040517f08c379a00000000000000000000000000000000000000000000000000000000081526004016113b8906135f0565b60405180910390fd5b6113ca81611a43565b50565b60007f01ffc9a7000000000000000000000000000000000000000000000000000000007bffffffffffffffffffffffffffffffffffffffffffffffffffffffff1916827bffffffffffffffffffffffffffffffffffffffffffffffffffffffff1916149050919050565b611440816119c5565b61147f576040517f08c379a000000000000000000000000000000000000000000000000000000000815260040161147690613350565b60405180910390fd5b50565b600033905090565b816004600083815260200190815260200160002060006101000a81548173ffffffffffffffffffffffffffffffffffffffff021916908373ffffffffffffffffffffffffffffffffffffffff160217905550808273ffffffffffffffffffffffffffffffffffffffff166114fd83610cd8565b73ffffffffffffffffffffffffffffffffffffffff167f8c5be1e5ebec7d5bd14f71427d1e84f3dd0314c0f7b2291e5b200ac8c7c3b92560405160405180910390a45050565b61154b611482565b73ffffffffffffffffffffffffffffffffffffffff16611569611014565b73ffffffffffffffffffffffffffffffffffffffff16146115bf576040517f08c379a00000000000000000000000000000000000000000000000000000000081526004016115b69061365c565b60405180910390fd5b565b6115db828260405180602001604052806000815250611db6565b5050565b6000806201518042846115f29190613204565b6115fc9190613267565b90506000601e821115611613576103e8905061162d565b600782111561162657610320905061162c565b6101f490505b5b8092505050919050565b60008061164383610cd8565b90508073ffffffffffffffffffffffffffffffffffffffff168473ffffffffffffffffffffffffffffffffffffffff161480611685575061168481856111b6565b5b806116c357508373ffffffffffffffffffffffffffffffffffffffff166116ab84610636565b73ffffffffffffffffffffffffffffffffffffffff16145b91505092915050565b8273ffffffffffffffffffffffffffffffffffffffff166116ec82610cd8565b73ffffffffffffffffffffffffffffffffffffffff1614611742576040517f08c379a0000000000000000000000000000000000000000000000000000000008152600401611739906136ee565b60405180910390fd5b600073ffffffffffffffffffffffffffffffffffffffff168273ffffffffffffffffffffffffffffffffffffffff16036117b1576040517f08c379a00000000000000000000000000000000000000000000000000000000081526004016117a890613780565b60405180910390fd5b6117be8383836001611e11565b8273ffffffffffffffffffffffffffffffffffffffff166117de82610cd8565b73ffffffffffffffffffffffffffffffffffffffff1614611834576040517f08c379a000000000000000000000000000000000000000000000000000000000815260040161182b906136ee565b60405180910390fd5b6004600082815260200190815260200160002060006101000a81549073ffffffffffffffffffffffffffffffffffffffff02191690556001600360008573ffffffffffffffffffffffffffffffffffffffff1673ffffffffffffffffffffffffffffffffffffffff168152602001908152602001600020600082825403925050819055506001600360008473ffffffffffffffffffffffffffffffffffffffff1673ffffffffffffffffffffffffffffffffffffffff16815260200190815260200160002060008282540192505081905550816002600083815260200190815260200160002060006101000a81548173ffffffffffffffffffffffffffffffffffffffff021916908373ffffffffffffffffffffffffffffffffffffffff160217905550808273ffffffffffffffffffffffffffffffffffffffff168473ffffffffffffffffffffffffffffffffffffffff167fddf252ad1be2c89b69c2b068fc378daa952ba7f163c4a11628f55a4df523b3ef60405160405180910390a46119c08383836001611e17565b505050565b60008073ffffffffffffffffffffffffffffffffffffffff166119e783611a06565b73ffffffffffffffffffffffffffffffffffffffff1614159050919050565b60006002600083815260200190815260200160002060009054906101000a900473ffffffffffffffffffffffffffffffffffffffff169050919050565b6000600660009054906101000a900473ffffffffffffffffffffffffffffffffffffffff16905081600660006101000a81548173ffffffffffffffffffffffffffffffffffffffff021916908373ffffffffffffffffffffffffffffffffffffffff1602179055508173ffffffffffffffffffffffffffffffffffffffff168173ffffffffffffffffffffffffffffffffffffffff167f8be0079c531659141344cd1fd0a4f28419497f9722a3daafe3b4186f6b6457e060405160405180910390a35050565b8173ffffffffffffffffffffffffffffffffffffffff168373ffffffffffffffffffffffffffffffffffffffff1603611b77576040517f08c379a0000000000000000000000000000000000000000000000000000000008152600401611b6e906137ec565b60405180910390fd5b80600560008573ffffffffffffffffffffffffffffffffffffffff1673ffffffffffffffffffffffffffffffffffffffff16815260200190815260200160002060008473ffffffffffffffffffffffffffffffffffffffff1673ffffffffffffffffffffffffffffffffffffffff16815260200190815260200160002060006101000a81548160ff0219169083151502179055508173ffffffffffffffffffffffffffffffffffffffff168373ffffffffffffffffffffffffffffffffffffffff167f17307eab39ab6107e8899845ad3d59bd9653f200f220920489ca2b5937696c3183604051611c6891906123eb565b60405180910390a3505050565b611c808484846116cc565b611c8c84848484611e1d565b611ccb576040517f08c379a0000000000000000000000000000000000000000000000000000000008152600401611cc29061387e565b60405180910390fd5b50505050565b606060405180602001604052806000815250905090565b606060006001611cf784611fa4565b01905060008167ffffffffffffffff811115611d1657611d156125ed565b5b6040519080825280601f01601f191660200182016040528015611d485781602001600182028036833780820191505090505b509050600082602001820190505b600115611dab578080600190039150507f3031323334353637383961626364656600000000000000000000000000000000600a86061a8153600a8581611d9f57611d9e613238565b5b04945060008503611d56575b819350505050919050565b611dc083836120f7565b611dcd6000848484611e1d565b611e0c576040517f08c379a0000000000000000000000000000000000000000000000000000000008152600401611e039061387e565b60405180910390fd5b505050565b50505050565b50505050565b6000611e3e8473ffffffffffffffffffffffffffffffffffffffff16612314565b15611f97578373ffffffffffffffffffffffffffffffffffffffff1663150b7a02611e67611482565b8786866040518563ffffffff1660e01b8152600401611e8994939291906138f3565b6020604051808303816000875af1925050508015611ec557506040513d601f19601f82011682018060405250810190611ec29190613954565b60015b611f47573d8060008114611ef5576040519150601f19603f3d011682016040523d82523d6000602084013e611efa565b606091505b506000815103611f3f576040517f08c379a0000000000000000000000000000000000000000000000000000000008152600401611f369061387e565b60405180910390fd5b805181602001fd5b63150b7a0260e01b7bffffffffffffffffffffffffffffffffffffffffffffffffffffffff1916817bffffffffffffffffffffffffffffffffffffffffffffffffffffffff191614915050611f9c565b600190505b949350505050565b600080600090507a184f03e93ff9f4daa797ed6e38ed64bf6a1f0100000000000000008310612002577a184f03e93ff9f4daa797ed6e38ed64bf6a1f0100000000000000008381611ff857611ff7613238565b5b0492506040810190505b6d04ee2d6d415b85acef8100000000831061203f576d04ee2d6d415b85acef8100000000838161203557612034613238565b5b0492506020810190505b662386f26fc10000831061206e57662386f26fc10000838161206457612063613238565b5b0492506010810190505b6305f5e1008310612097576305f5e100838161208d5761208c613238565b5b0492506008810190505b61271083106120bc5761271083816120b2576120b1613238565b5b0492506004810190505b606483106120df57606483816120d5576120d4613238565b5b0492506002810190505b600a83106120ee576001810190505b80915050919050565b600073ffffffffffffffffffffffffffffffffffffffff168273ffffffffffffffffffffffffffffffffffffffff1603612166576040517f08c379a000000000000000000000000000000000000000000000000000000000815260040161215d906139cd565b60405180910390fd5b61216f816119c5565b156121af576040517f08c379a00000000000000000000000000000000000000000000000000000000081526004016121a690613a39565b60405180910390fd5b6121bd600083836001611e11565b6121c6816119c5565b15612206576040517f08c379a00000000000000000000000000000000000000000000000000000000081526004016121fd90613a39565b60405180910390fd5b6001600360008473ffffffffffffffffffffffffffffffffffffffff1673ffffffffffffffffffffffffffffffffffffffff16815260200190815260200160002060008282540192505081905550816002600083815260200190815260200160002060006101000a81548173ffffffffffffffffffffffffffffffffffffffff021916908373ffffffffffffffffffffffffffffffffffffffff160217905550808273ffffffffffffffffffffffffffffffffffffffff16600073ffffffffffffffffffffffffffffffffffffffff167fddf252ad1be2c89b69c2b068fc378daa952ba7f163c4a11628f55a4df523b3ef60405160405180910390a4612310600083836001611e17565b5050565b6000808273ffffffffffffffffffffffffffffffffffffffff163b119050919050565b6000604051905090565b600080fd5b600080fd5b60007fffffffff0000000000000000000000000000000000000000000000000000000082169050919050565b6123808161234b565b811461238b57600080fd5b50565b60008135905061239d81612377565b92915050565b6000602082840312156123b9576123b8612341565b5b60006123c78482850161238e565b91505092915050565b60008115159050919050565b6123e5816123d0565b82525050565b600060208201905061240060008301846123dc565b92915050565b600081519050919050565b600082825260208201905092915050565b60005b83811015612440578082015181840152602081019050612425565b60008484015250505050565b6000601f19601f8301169050919050565b600061246882612406565b6124728185612411565b9350612482818560208601612422565b61248b8161244c565b840191505092915050565b600060208201905081810360008301526124b0818461245d565b905092915050565b6000819050919050565b6124cb816124b8565b81146124d657600080fd5b50565b6000813590506124e8816124c2565b92915050565b60006020828403121561250457612503612341565b5b6000612512848285016124d9565b91505092915050565b600073ffffffffffffffffffffffffffffffffffffffff82169050919050565b60006125468261251b565b9050919050565b6125568161253b565b82525050565b6000602082019050612571600083018461254d565b92915050565b6125808161253b565b811461258b57600080fd5b50565b60008135905061259d81612577565b92915050565b600080604083850312156125ba576125b9612341565b5b60006125c88582860161258e565b92505060206125d9858286016124d9565b9150509250929050565b600080fd5b600080fd5b7f4e487b7100000000000000000000000000000000000000000000000000000000600052604160045260246000fd5b6126258261244c565b810181811067ffffffffffffffff82111715612644576126436125ed565b5b80604052505050565b6000612657612337565b9050612663828261261c565b919050565b600067ffffffffffffffff821115612683576126826125ed565b5b61268c8261244c565b9050602081019050919050565b82818337600083830152505050565b60006126bb6126b684612668565b61264d565b9050828152602081018484840111156126d7576126d66125e8565b5b6126e2848285612699565b509392505050565b600082601f8301126126ff576126fe6125e3565b5b813561270f8482602086016126a8565b91505092915050565b612721816123d0565b811461272c57600080fd5b50565b60008135905061273e81612718565b92915050565b600080600080600060a086880312156127605761275f612341565b5b600086013567ffffffffffffffff81111561277e5761277d612346565b5b61278a888289016126ea565b955050602086013567ffffffffffffffff8111156127ab576127aa612346565b5b6127b7888289016126ea565b94505060406127c8888289016124d9565b93505060606127d9888289016124d9565b92505060806127ea8882890161272f565b9150509295509295909350565b60006020828403121561280d5761280c612341565b5b600082013567ffffffffffffffff81111561282b5761282a612346565b5b612837848285016126ea565b91505092915050565b600081519050919050565b600082825260208201905092915050565b6000819050602082019050919050565b612875816124b8565b82525050565b6000612887838361286c565b60208301905092915050565b6000602082019050919050565b60006128ab82612840565b6128b5818561284b565b93506128c08361285c565b8060005b838110156128f15781516128d8888261287b565b97506128e383612893565b9250506001810190506128c4565b5085935050505092915050565b6000602082019050818103600083015261291881846128a0565b905092915050565b60008060006060848603121561293957612938612341565b5b60006129478682870161258e565b93505060206129588682870161258e565b9250506040612969868287016124d9565b9150509250925092565b60006020828403121561298957612988612341565b5b60006129978482850161258e565b91505092915050565b6129a9816124b8565b82525050565b60006020820190506129c460008301846129a0565b92915050565b600060c08201905081810360008301526129e4818961245d565b905081810360208301526129f8818861245d565b9050612a0760408301876129a0565b612a1460608301866129a0565b612a2160808301856123dc565b612a2e60a08301846129a0565b979650505050505050565b60008060408385031215612a5057612a4f612341565b5b6000612a5e8582860161258e565b9250506020612a6f8582860161272f565b9150509250929050565b600067ffffffffffffffff821115612a9457612a936125ed565b5b612a9d8261244c565b9050602081019050919050565b6000612abd612ab884612a79565b61264d565b905082815260208101848484011115612ad957612ad86125e8565b5b612ae4848285612699565b509392505050565b600082601f830112612b0157612b006125e3565b5b8135612b11848260208601612aaa565b91505092915050565b60008060008060808587031215612b3457612b33612341565b5b6000612b428782880161258e565b9450506020612b538782880161258e565b9350506040612b64878288016124d9565b925050606085013567ffffffffffffffff811115612b8557612b84612346565b5b612b9187828801612aec565b91505092959194509250565b60008060408385031215612bb457612bb3612341565b5b6000612bc28582860161258e565b9250506020612bd38582860161258e565b9150509250929050565b7f4e487b7100000000000000000000000000000000000000000000000000000000600052602260045260246000fd5b60006002820490506001821680612c2457607f821691505b602082108103612c3757612c36612bdd565b5b50919050565b7f4552433732313a20617070726f76616c20746f2063757272656e74206f776e6560008201527f7200000000000000000000000000000000000000000000000000000000000000602082015250565b6000612c99602183612411565b9150612ca482612c3d565b604082019050919050565b60006020820190508181036000830152612cc881612c8c565b9050919050565b7f4552433732313a20617070726f76652063616c6c6572206973206e6f7420746f60008201527f6b656e206f776e6572206f7220617070726f76656420666f7220616c6c000000602082015250565b6000612d2b603d83612411565b9150612d3682612ccf565b604082019050919050565b60006020820190508181036000830152612d5a81612d1e565b9050919050565b60008190508160005260206000209050919050565b60006020601f8301049050919050565b600082821b905092915050565b600060088302612dc37fffffffffffffffffffffffffffffffffffffffffffffffffffffffffffffffff82612d86565b612dcd8683612d86565b95508019841693508086168417925050509392505050565b6000819050919050565b6000612e0a612e05612e00846124b8565b612de5565b6124b8565b9050919050565b6000819050919050565b612e2483612def565b612e38612e3082612e11565b848454612d93565b825550505050565b600090565b612e4d612e40565b612e58818484612e1b565b505050565b5b81811015612e7c57612e71600082612e45565b600181019050612e5e565b5050565b601f821115612ec157612e9281612d61565b612e9b84612d76565b81016020851015612eaa578190505b612ebe612eb685612d76565b830182612e5d565b50505b505050565b600082821c905092915050565b6000612ee460001984600802612ec6565b1980831691505092915050565b6000612efd8383612ed3565b9150826002028217905092915050565b612f1682612406565b67ffffffffffffffff811115612f2f57612f2e6125ed565b5b612f398254612c0c565b612f44828285612e80565b600060209050601f831160018114612f775760008415612f65578287015190505b612f6f8582612ef1565b865550612fd7565b601f198416612f8586612d61565b60005b82811015612fad57848901518255600182019150602085019450602081019050612f88565b86831015612fca5784890151612fc6601f891682612ed3565b8355505b6001600288020188555050505b505050505050565b7f4e487b7100000000000000000000000000000000000000000000000000000000600052601160045260246000fd5b6000613019826124b8565b91507fffffffffffffffffffffffffffffffffffffffffffffffffffffffffffffffff820361304b5761304a612fdf565b5b600182019050919050565b600081905092915050565b600061306c82612406565b6130768185613056565b9350613086818560208601612422565b80840191505092915050565b600061309e8284613061565b915081905092915050565b600081546130b681612c0c565b6130c08186613056565b945060018216600081146130db57600181146130f057613123565b60ff1983168652811515820286019350613123565b6130f985612d61565b60005b8381101561311b578154818901526001820191506020810190506130fc565b838801955050505b50505092915050565b600061313882846130a9565b915081905092915050565b7f4e487b7100000000000000000000000000000000000000000000000000000000600052603260045260246000fd5b7f4552433732313a2063616c6c6572206973206e6f7420746f6b656e206f776e6560008201527f72206f7220617070726f76656400000000000000000000000000000000000000602082015250565b60006131ce602d83612411565b91506131d982613172565b604082019050919050565b600060208201905081810360008301526131fd816131c1565b9050919050565b600061320f826124b8565b915061321a836124b8565b925082820390508181111561323257613231612fdf565b5b92915050565b7f4e487b7100000000000000000000000000000000000000000000000000000000600052601260045260246000fd5b6000613272826124b8565b915061327d836124b8565b92508261328d5761328c613238565b5b828204905092915050565b7f546f6b656e20494420646f6573206e6f742065786973742e0000000000000000600082015250565b60006132ce601883612411565b91506132d982613298565b602082019050919050565b600060208201905081810360008301526132fd816132c1565b9050919050565b7f4552433732313a20696e76616c696420746f6b656e2049440000000000000000600082015250565b600061333a601883612411565b915061334582613304565b602082019050919050565b600060208201905081810360008301526133698161332d565b9050919050565b7f4552433732313a2061646472657373207a65726f206973206e6f74206120766160008201527f6c6964206f776e65720000000000000000000000000000000000000000000000602082015250565b60006133cc602983612411565b91506133d782613370565b604082019050919050565b600060208201905081810360008301526133fb816133bf565b9050919050565b600061340e8285613061565b915061341a8284613061565b91508190509392505050565b7f4e6f2070726f647563747320617661696c61626c6520666f7220616e616c797360008201527f69732e0000000000000000000000000000000000000000000000000000000000602082015250565b6000613482602383612411565b915061348d82613426565b604082019050919050565b600060208201905081810360008301526134b181613475565b9050919050565b60006134c3826124b8565b91506134ce836124b8565b92508282019050808211156134e6576134e5612fdf565b5b92915050565b7f4e6f2076616c69642070726f647563747320617661696c61626c6520666f722060008201527f616e616c797369732e0000000000000000000000000000000000000000000000602082015250565b6000613548602983612411565b9150613553826134ec565b604082019050919050565b600060208201905081810360008301526135778161353b565b9050919050565b7f4f776e61626c653a206e6577206f776e657220697320746865207a65726f206160008201527f6464726573730000000000000000000000000000000000000000000000000000602082015250565b60006135da602683612411565b91506135e58261357e565b604082019050919050565b60006020820190508181036000830152613609816135cd565b9050919050565b7f4f776e61626c653a2063616c6c6572206973206e6f7420746865206f776e6572600082015250565b6000613646602083612411565b915061365182613610565b602082019050919050565b6000602082019050818103600083015261367581613639565b9050919050565b7f4552433732313a207472616e736665722066726f6d20696e636f72726563742060008201527f6f776e6572000000000000000000000000000000000000000000000000000000602082015250565b60006136d8602583612411565b91506136e38261367c565b604082019050919050565b60006020820190508181036000830152613707816136cb565b9050919050565b7f4552433732313a207472616e7366657220746f20746865207a65726f2061646460008201527f7265737300000000000000000000000000000000000000000000000000000000602082015250565b600061376a602483612411565b91506137758261370e565b604082019050919050565b600060208201905081810360008301526137998161375d565b9050919050565b7f4552433732313a20617070726f766520746f2063616c6c657200000000000000600082015250565b60006137d6601983612411565b91506137e1826137a0565b602082019050919050565b60006020820190508181036000830152613805816137c9565b9050919050565b7f4552433732313a207472616e7366657220746f206e6f6e20455243373231526560008201527f63656976657220696d706c656d656e7465720000000000000000000000000000602082015250565b6000613868603283612411565b91506138738261380c565b604082019050919050565b600060208201905081810360008301526138978161385b565b9050919050565b600081519050919050565b600082825260208201905092915050565b60006138c58261389e565b6138cf81856138a9565b93506138df818560208601612422565b6138e88161244c565b840191505092915050565b6000608082019050613908600083018761254d565b613915602083018661254d565b61392260408301856129a0565b818103606083015261393481846138ba565b905095945050505050565b60008151905061394e81612377565b92915050565b60006020828403121561396a57613969612341565b5b60006139788482850161393f565b91505092915050565b7f4552433732313a206d696e7420746f20746865207a65726f2061646472657373600082015250565b60006139b7602083612411565b91506139c282613981565b602082019050919050565b600060208201905081810360008301526139e6816139aa565b9050919050565b7f4552433732313a20746f6b656e20616c7265616479206d696e74656400000000600082015250565b6000613a23601c83612411565b9150613a2e826139ed565b602082019050919050565b60006020820190508181036000830152613a5281613a16565b905091905056fea26469706673582212200e02641ee454e2a4d0914dc01a8c9808b462931cf1bd6e3a8edc75956765e4a464736f6c63430008130033",
  "immutableReferences": {},
  "source": "// SPDX-License-Identifier: MIT\r\npragma solidity ^0.8.0;\r\n\r\nimport \"@openzeppelin/contracts/token/ERC721/ERC721.sol\";\r\nimport \"@openzeppelin/contracts/access/Ownable.sol\";\r\n\r\ncontract Factory2 is ERC721, Ownable {\r\n    uint256 public tokenCounter;\r\n\r\n    struct Product {\r\n        string name;\r\n        string manufacturer;\r\n        uint256 manufactureDate;\r\n        uint256 expiryDate;\r\n        bool isQualityProduct;\r\n        uint256 price;\r\n    }\r\n\r\n    mapping(uint256 => Product) public products;  // key: product id, value: product\r\n\r\n    constructor() ERC721(\"Factory\", \"FACTORY\") {\r\n        tokenCounter = 0;\r\n    }\r\n\r\n    function createProduct(\r\n        string memory _manufacturer,\r\n        string memory _name,\r\n        uint256 _manufactureDate,\r\n        uint256 _expiryDate,\r\n        bool _isQualityProduct\r\n    ) public onlyOwner {\r\n        uint256 tokenId = tokenCounter;\r\n        _safeMint(msg.sender, tokenId);\r\n        uint256 price = calculatePrice(_expiryDate);\r\n        products[tokenId] = Product(\r\n            _manufacturer,\r\n            _name,\r\n            _manufactureDate,\r\n            _expiryDate,\r\n            _isQualityProduct,\r\n            price\r\n        );\r\n        tokenCounter++;\r\n    }\r\n    \r\n    function calculatePrice(uint256 _expiryDate) internal view returns (uint256) {\r\n        uint256 remainingDays = (_expiryDate - block.timestamp) / 86400;\r\n        uint256 price;\r\n\r\n        if (remainingDays > 30) {\r\n            price = 1000;\r\n        } else if (remainingDays > 7) {\r\n            price = 800;\r\n        } else {\r\n            price = 500;\r\n        }\r\n\r\n        return price;\r\n    }\r\n\r\n    function updatePrice(uint256 _tokenId) public onlyOwner {\r\n        require(_exists(_tokenId), \"Token ID does not exist.\");\r\n        uint256 newPrice = calculatePrice(products[_tokenId].expiryDate);\r\n        products[_tokenId].price = newPrice;\r\n    }\r\n\r\n\r\n    function isProductExpired(uint256 _tokenId) public view returns (bool) {\r\n        require(_exists(_tokenId), \"Token ID does not exist.\");\r\n        uint256 expiryDate = products[_tokenId].expiryDate;\r\n        return block.timestamp >= expiryDate;\r\n    }\r\n\r\n    function calculateAveragePrice() public view returns (uint256) {\r\n        \r\n        require(tokenCounter > 0, \"No products available for analysis.\");\r\n\r\n        uint256 totalPrice = 0;\r\n        uint256 validProductCount = 0;\r\n\r\n        for (uint256 i = 0; i < tokenCounter; i++) {\r\n           if (!isProductExpired(i)) {\r\n                totalPrice += products[i].price;\r\n                validProductCount++;\r\n            }\r\n    }\r\n\r\n        require(validProductCount > 0, \"No valid products available for analysis.\");\r\n        return totalPrice / validProductCount;\r\n    }\r\n\r\n\r\n    function getExpiringProducts(uint256 _daysThreshold) public view returns (uint256[] memory) {\r\n        uint256[] memory expiringProductIds = new uint256[](tokenCounter);\r\n        uint256 expiringProductCount = 0;\r\n\r\n        for (uint256 i = 0; i < tokenCounter; i++) {\r\n            uint256 remainingDays = (products[i].expiryDate - block.timestamp) / 86400;\r\n            if (remainingDays <= _daysThreshold && !isProductExpired(i)) {\r\n                expiringProductIds[expiringProductCount] = i;\r\n                expiringProductCount++;\r\n            }\r\n        }\r\n\r\n        uint256[] memory result = new uint256[](expiringProductCount);\r\n        for (uint256 i = 0; i < expiringProductCount; i++) {\r\n            result[i] = expiringProductIds[i];\r\n        }\r\n        return result;\r\n    }\r\n    function getProductsByManufacturer(string memory _manufacturer) public view returns (uint256[] memory) {\r\n        uint256[] memory productsByManufacturer = new uint256[](tokenCounter);\r\n        uint256 productCount = 0;\r\n\r\n        for (uint256 i = 0; i < tokenCounter; i++) {\r\n            if (keccak256(abi.encodePacked(products[i].manufacturer)) == keccak256(abi.encodePacked(_manufacturer))) {\r\n                productsByManufacturer[productCount] = i;\r\n                productCount++;\r\n            }\r\n        }\r\n\r\n        uint256[] memory result = new uint256[](productCount);\r\n        for (uint256 i = 0; i < productCount; i++) {\r\n            result[i] = productsByManufacturer[i];\r\n        }\r\n        return result;\r\n    }\r\n\r\n}\r\n",
  "sourcePath": "C:\\Users\\cheny\\Documents\\GitHub\\smart-expiring-product-management\\contracts\\factory v1.1.sol",
  "compiler": {
    "name": "solc",
    "version": "0.8.19+commit.7dd6d404.Emscripten.clang"
  },
  "schemaVersion": "3.4.13",
  "updatedAt": "2023-04-30T15:05:35.123Z",
  "devdoc": {
    "events": {
      "Approval(address,address,uint256)": {
        "details": "Emitted when `owner` enables `approved` to manage the `tokenId` token."
      },
      "ApprovalForAll(address,address,bool)": {
        "details": "Emitted when `owner` enables or disables (`approved`) `operator` to manage all of its assets."
      },
      "Transfer(address,address,uint256)": {
        "details": "Emitted when `tokenId` token is transferred from `from` to `to`."
      }
    },
    "kind": "dev",
    "methods": {
      "approve(address,uint256)": {
        "details": "See {IERC721-approve}."
      },
      "balanceOf(address)": {
        "details": "See {IERC721-balanceOf}."
      },
      "getApproved(uint256)": {
        "details": "See {IERC721-getApproved}."
      },
      "isApprovedForAll(address,address)": {
        "details": "See {IERC721-isApprovedForAll}."
      },
      "name()": {
        "details": "See {IERC721Metadata-name}."
      },
      "owner()": {
        "details": "Returns the address of the current owner."
      },
      "ownerOf(uint256)": {
        "details": "See {IERC721-ownerOf}."
      },
      "renounceOwnership()": {
        "details": "Leaves the contract without owner. It will not be possible to call `onlyOwner` functions anymore. Can only be called by the current owner. NOTE: Renouncing ownership will leave the contract without an owner, thereby removing any functionality that is only available to the owner."
      },
      "safeTransferFrom(address,address,uint256)": {
        "details": "See {IERC721-safeTransferFrom}."
      },
      "safeTransferFrom(address,address,uint256,bytes)": {
        "details": "See {IERC721-safeTransferFrom}."
      },
      "setApprovalForAll(address,bool)": {
        "details": "See {IERC721-setApprovalForAll}."
      },
      "supportsInterface(bytes4)": {
        "details": "See {IERC165-supportsInterface}."
      },
      "symbol()": {
        "details": "See {IERC721Metadata-symbol}."
      },
      "tokenURI(uint256)": {
        "details": "See {IERC721Metadata-tokenURI}."
      },
      "transferFrom(address,address,uint256)": {
        "details": "See {IERC721-transferFrom}."
      },
      "transferOwnership(address)": {
        "details": "Transfers ownership of the contract to a new account (`newOwner`). Can only be called by the current owner."
      }
    },
    "version": 1
  },
  "userdoc": {
    "kind": "user",
    "methods": {},
    "version": 1
  }
}