{
  "contractName": "Factory",
  "abi": [
    {
      "inputs": [],
      "stateMutability": "nonpayable",
      "type": "constructor"
    },
    {
      "anonymous": false,
      "inputs": [
        {
          "indexed": true,
          "internalType": "address",
          "name": "owner",
          "type": "address"
        },
        {
          "indexed": true,
          "internalType": "address",
          "name": "approved",
          "type": "address"
        },
        {
          "indexed": true,
          "internalType": "uint256",
          "name": "tokenId",
          "type": "uint256"
        }
      ],
      "name": "Approval",
      "type": "event"
    },
    {
      "anonymous": false,
      "inputs": [
        {
          "indexed": true,
          "internalType": "address",
          "name": "owner",
          "type": "address"
        },
        {
          "indexed": true,
          "internalType": "address",
          "name": "operator",
          "type": "address"
        },
        {
          "indexed": false,
          "internalType": "bool",
          "name": "approved",
          "type": "bool"
        }
      ],
      "name": "ApprovalForAll",
      "type": "event"
    },
    {
      "anonymous": false,
      "inputs": [
        {
          "indexed": true,
          "internalType": "address",
          "name": "previousOwner",
          "type": "address"
        },
        {
          "indexed": true,
          "internalType": "address",
          "name": "newOwner",
          "type": "address"
        }
      ],
      "name": "OwnershipTransferred",
      "type": "event"
    },
    {
      "anonymous": false,
      "inputs": [
        {
          "indexed": true,
          "internalType": "address",
          "name": "from",
          "type": "address"
        },
        {
          "indexed": true,
          "internalType": "address",
          "name": "to",
          "type": "address"
        },
        {
          "indexed": true,
          "internalType": "uint256",
          "name": "tokenId",
          "type": "uint256"
        }
      ],
      "name": "Transfer",
      "type": "event"
    },
    {
      "inputs": [
        {
          "internalType": "address",
          "name": "to",
          "type": "address"
        },
        {
          "internalType": "uint256",
          "name": "tokenId",
          "type": "uint256"
        }
      ],
      "name": "approve",
      "outputs": [],
      "stateMutability": "nonpayable",
      "type": "function"
    },
    {
      "inputs": [
        {
          "internalType": "address",
          "name": "owner",
          "type": "address"
        }
      ],
      "name": "balanceOf",
      "outputs": [
        {
          "internalType": "uint256",
          "name": "",
          "type": "uint256"
        }
      ],
      "stateMutability": "view",
      "type": "function"
    },
    {
      "inputs": [
        {
          "internalType": "uint256",
          "name": "tokenId",
          "type": "uint256"
        }
      ],
      "name": "getApproved",
      "outputs": [
        {
          "internalType": "address",
          "name": "",
          "type": "address"
        }
      ],
      "stateMutability": "view",
      "type": "function"
    },
    {
      "inputs": [
        {
          "internalType": "address",
          "name": "owner",
          "type": "address"
        },
        {
          "internalType": "address",
          "name": "operator",
          "type": "address"
        }
      ],
      "name": "isApprovedForAll",
      "outputs": [
        {
          "internalType": "bool",
          "name": "",
          "type": "bool"
        }
      ],
      "stateMutability": "view",
      "type": "function"
    },
    {
      "inputs": [],
      "name": "name",
      "outputs": [
        {
          "internalType": "string",
          "name": "",
          "type": "string"
        }
      ],
      "stateMutability": "view",
      "type": "function"
    },
    {
      "inputs": [],
      "name": "owner",
      "outputs": [
        {
          "internalType": "address",
          "name": "",
          "type": "address"
        }
      ],
      "stateMutability": "view",
      "type": "function"
    },
    {
      "inputs": [
        {
          "internalType": "uint256",
          "name": "tokenId",
          "type": "uint256"
        }
      ],
      "name": "ownerOf",
      "outputs": [
        {
          "internalType": "address",
          "name": "",
          "type": "address"
        }
      ],
      "stateMutability": "view",
      "type": "function"
    },
    {
      "inputs": [
        {
          "internalType": "uint256",
          "name": "",
          "type": "uint256"
        }
      ],
      "name": "products",
      "outputs": [
        {
          "internalType": "string",
          "name": "manufacturer",
          "type": "string"
        },
        {
          "internalType": "uint256",
          "name": "productionDate",
          "type": "uint256"
        },
        {
          "internalType": "bool",
          "name": "isQualified",
          "type": "bool"
        }
      ],
      "stateMutability": "view",
      "type": "function"
    },
    {
      "inputs": [],
      "name": "renounceOwnership",
      "outputs": [],
      "stateMutability": "nonpayable",
      "type": "function"
    },
    {
      "inputs": [
        {
          "internalType": "address",
          "name": "from",
          "type": "address"
        },
        {
          "internalType": "address",
          "name": "to",
          "type": "address"
        },
        {
          "internalType": "uint256",
          "name": "tokenId",
          "type": "uint256"
        }
      ],
      "name": "safeTransferFrom",
      "outputs": [],
      "stateMutability": "nonpayable",
      "type": "function"
    },
    {
      "inputs": [
        {
          "internalType": "address",
          "name": "from",
          "type": "address"
        },
        {
          "internalType": "address",
          "name": "to",
          "type": "address"
        },
        {
          "internalType": "uint256",
          "name": "tokenId",
          "type": "uint256"
        },
        {
          "internalType": "bytes",
          "name": "data",
          "type": "bytes"
        }
      ],
      "name": "safeTransferFrom",
      "outputs": [],
      "stateMutability": "nonpayable",
      "type": "function"
    },
    {
      "inputs": [
        {
          "internalType": "address",
          "name": "operator",
          "type": "address"
        },
        {
          "internalType": "bool",
          "name": "approved",
          "type": "bool"
        }
      ],
      "name": "setApprovalForAll",
      "outputs": [],
      "stateMutability": "nonpayable",
      "type": "function"
    },
    {
      "inputs": [
        {
          "internalType": "bytes4",
          "name": "interfaceId",
          "type": "bytes4"
        }
      ],
      "name": "supportsInterface",
      "outputs": [
        {
          "internalType": "bool",
          "name": "",
          "type": "bool"
        }
      ],
      "stateMutability": "view",
      "type": "function"
    },
    {
      "inputs": [],
      "name": "symbol",
      "outputs": [
        {
          "internalType": "string",
          "name": "",
          "type": "string"
        }
      ],
      "stateMutability": "view",
      "type": "function"
    },
    {
      "inputs": [
        {
          "internalType": "uint256",
          "name": "tokenId",
          "type": "uint256"
        }
      ],
      "name": "tokenURI",
      "outputs": [
        {
          "internalType": "string",
          "name": "",
          "type": "string"
        }
      ],
      "stateMutability": "view",
      "type": "function"
    },
    {
      "inputs": [
        {
          "internalType": "address",
          "name": "from",
          "type": "address"
        },
        {
          "internalType": "address",
          "name": "to",
          "type": "address"
        },
        {
          "internalType": "uint256",
          "name": "tokenId",
          "type": "uint256"
        }
      ],
      "name": "transferFrom",
      "outputs": [],
      "stateMutability": "nonpayable",
      "type": "function"
    },
    {
      "inputs": [
        {
          "internalType": "address",
          "name": "newOwner",
          "type": "address"
        }
      ],
      "name": "transferOwnership",
      "outputs": [],
      "stateMutability": "nonpayable",
      "type": "function"
    },
    {
      "inputs": [
        {
          "internalType": "address",
          "name": "to",
          "type": "address"
        },
        {
          "internalType": "string",
          "name": "manufacturer",
          "type": "string"
        },
        {
          "internalType": "uint256",
          "name": "productionDate",
          "type": "uint256"
        },
        {
          "internalType": "bool",
          "name": "isQualified",
          "type": "bool"
        }
      ],
      "name": "mintProduct",
      "outputs": [],
      "stateMutability": "nonpayable",
      "type": "function"
    },
    {
      "inputs": [
        {
          "internalType": "uint256",
          "name": "tokenId",
          "type": "uint256"
        }
      ],
      "name": "getProductInfo",
      "outputs": [
        {
          "internalType": "string",
          "name": "",
          "type": "string"
        },
        {
          "internalType": "uint256",
          "name": "",
          "type": "uint256"
        },
        {
          "internalType": "bool",
          "name": "",
          "type": "bool"
        }
      ],
      "stateMutability": "view",
      "type": "function"
    }
  ],
  "bytecode": "0x60806040523480156200001157600080fd5b506040518060400160405280600781526020017f466163746f7279000000000000000000000000000000000000000000000000008152506040518060400160405280600481526020017f464143540000000000000000000000000000000000000000000000000000000081525081600090816200008f919062000412565b508060019081620000a1919062000412565b505050620000c4620000b8620000ca60201b60201c565b620000d260201b60201c565b620004f9565b600033905090565b6000600660009054906101000a900473ffffffffffffffffffffffffffffffffffffffff16905081600660006101000a81548173ffffffffffffffffffffffffffffffffffffffff021916908373ffffffffffffffffffffffffffffffffffffffff1602179055508173ffffffffffffffffffffffffffffffffffffffff168173ffffffffffffffffffffffffffffffffffffffff167f8be0079c531659141344cd1fd0a4f28419497f9722a3daafe3b4186f6b6457e060405160405180910390a35050565b600081519050919050565b7f4e487b7100000000000000000000000000000000000000000000000000000000600052604160045260246000fd5b7f4e487b7100000000000000000000000000000000000000000000000000000000600052602260045260246000fd5b600060028204905060018216806200021a57607f821691505b60208210810362000230576200022f620001d2565b5b50919050565b60008190508160005260206000209050919050565b60006020601f8301049050919050565b600082821b905092915050565b6000600883026200029a7fffffffffffffffffffffffffffffffffffffffffffffffffffffffffffffffff826200025b565b620002a686836200025b565b95508019841693508086168417925050509392505050565b6000819050919050565b6000819050919050565b6000620002f3620002ed620002e784620002be565b620002c8565b620002be565b9050919050565b6000819050919050565b6200030f83620002d2565b620003276200031e82620002fa565b84845462000268565b825550505050565b600090565b6200033e6200032f565b6200034b81848462000304565b505050565b5b8181101562000373576200036760008262000334565b60018101905062000351565b5050565b601f821115620003c2576200038c8162000236565b62000397846200024b565b81016020851015620003a7578190505b620003bf620003b6856200024b565b83018262000350565b50505b505050565b600082821c905092915050565b6000620003e760001984600802620003c7565b1980831691505092915050565b6000620004028383620003d4565b9150826002028217905092915050565b6200041d8262000198565b67ffffffffffffffff811115620004395762000438620001a3565b5b62000445825462000201565b6200045282828562000377565b600060209050601f8311600181146200048a576000841562000475578287015190505b620004818582620003f4565b865550620004f1565b601f1984166200049a8662000236565b60005b82811015620004c4578489015182556001820191506020850194506020810190506200049d565b86831015620004e45784890151620004e0601f891682620003d4565b8355505b6001600288020188555050505b505050505050565b612f7480620005096000396000f3fe608060405234801561001057600080fd5b50600436106101215760003560e01c8063715018a6116100ad578063a22cb46511610071578063a22cb4651461031e578063b88d4fde1461033a578063c87b56dd14610356578063e985e9c514610386578063f2fde38b146103b657610121565b8063715018a61461027457806379a85e6c1461027e5780637acc0b20146102b05780638da5cb5b146102e257806395d89b411461030057610121565b806323b872dd116100f457806323b872dd146101c057806342842e0e146101dc578063558300b6146101f85780636352211e1461021457806370a082311461024457610121565b806301ffc9a71461012657806306fdde0314610156578063081812fc14610174578063095ea7b3146101a4575b600080fd5b610140600480360381019061013b9190611caf565b6103d2565b60405161014d9190611cf7565b60405180910390f35b61015e6104b4565b60405161016b9190611da2565b60405180910390f35b61018e60048036038101906101899190611dfa565b610546565b60405161019b9190611e68565b60405180910390f35b6101be60048036038101906101b99190611eaf565b61058c565b005b6101da60048036038101906101d59190611eef565b6106a3565b005b6101f660048036038101906101f19190611eef565b610703565b005b610212600480360381019061020d91906120a3565b610723565b005b61022e60048036038101906102299190611dfa565b6107ce565b60405161023b9190611e68565b60405180910390f35b61025e60048036038101906102599190612126565b610854565b60405161026b9190612162565b60405180910390f35b61027c61090b565b005b61029860048036038101906102939190611dfa565b61091f565b6040516102a79392919061217d565b60405180910390f35b6102ca60048036038101906102c59190611dfa565b610a38565b6040516102d99392919061217d565b60405180910390f35b6102ea610af7565b6040516102f79190611e68565b60405180910390f35b610308610b21565b6040516103159190611da2565b60405180910390f35b610338600480360381019061033391906121bb565b610bb3565b005b610354600480360381019061034f919061229c565b610bc9565b005b610370600480360381019061036b9190611dfa565b610c2b565b60405161037d9190611da2565b60405180910390f35b6103a0600480360381019061039b919061231f565b610c93565b6040516103ad9190611cf7565b60405180910390f35b6103d060048036038101906103cb9190612126565b610d27565b005b60007f80ac58cd000000000000000000000000000000000000000000000000000000007bffffffffffffffffffffffffffffffffffffffffffffffffffffffff1916827bffffffffffffffffffffffffffffffffffffffffffffffffffffffff1916148061049d57507f5b5e139f000000000000000000000000000000000000000000000000000000007bffffffffffffffffffffffffffffffffffffffffffffffffffffffff1916827bffffffffffffffffffffffffffffffffffffffffffffffffffffffff1916145b806104ad57506104ac82610daa565b5b9050919050565b6060600080546104c39061238e565b80601f01602080910402602001604051908101604052809291908181526020018280546104ef9061238e565b801561053c5780601f106105115761010080835404028352916020019161053c565b820191906000526020600020905b81548152906001019060200180831161051f57829003601f168201915b5050505050905090565b600061055182610e14565b6004600083815260200190815260200160002060009054906101000a900473ffffffffffffffffffffffffffffffffffffffff169050919050565b6000610597826107ce565b90508073ffffffffffffffffffffffffffffffffffffffff168373ffffffffffffffffffffffffffffffffffffffff1603610607576040517f08c379a00000000000000000000000000000000000000000000000000000000081526004016105fe90612431565b60405180910390fd5b8073ffffffffffffffffffffffffffffffffffffffff16610626610e5f565b73ffffffffffffffffffffffffffffffffffffffff16148061065557506106548161064f610e5f565b610c93565b5b610694576040517f08c379a000000000000000000000000000000000000000000000000000000000815260040161068b906124c3565b60405180910390fd5b61069e8383610e67565b505050565b6106b46106ae610e5f565b82610f20565b6106f3576040517f08c379a00000000000000000000000000000000000000000000000000000000081526004016106ea90612555565b60405180910390fd5b6106fe838383610fb5565b505050565b61071e83838360405180602001604052806000815250610bc9565b505050565b61072b6112ae565b6000600754905061073c858261132c565b60405180606001604052808581526020018481526020018315158152506008600083815260200190815260200160002060008201518160000190816107819190612721565b506020820151816001015560408201518160020160006101000a81548160ff021916908315150217905550905050600760008154809291906107c290612822565b91905055505050505050565b6000806107da83611549565b9050600073ffffffffffffffffffffffffffffffffffffffff168173ffffffffffffffffffffffffffffffffffffffff160361084b576040517f08c379a0000000000000000000000000000000000000000000000000000000008152600401610842906128b6565b60405180910390fd5b80915050919050565b60008073ffffffffffffffffffffffffffffffffffffffff168273ffffffffffffffffffffffffffffffffffffffff16036108c4576040517f08c379a00000000000000000000000000000000000000000000000000000000081526004016108bb90612948565b60405180910390fd5b600360008373ffffffffffffffffffffffffffffffffffffffff1673ffffffffffffffffffffffffffffffffffffffff168152602001908152602001600020549050919050565b6109136112ae565b61091d6000611586565b565b606060008061092d8461164c565b61096c576040517f08c379a0000000000000000000000000000000000000000000000000000000008152600401610963906129b4565b60405180910390fd5b60006008600086815260200190815260200160002090508060000181600101548260020160009054906101000a900460ff168280546109aa9061238e565b80601f01602080910402602001604051908101604052809291908181526020018280546109d69061238e565b8015610a235780601f106109f857610100808354040283529160200191610a23565b820191906000526020600020905b815481529060010190602001808311610a0657829003601f168201915b50505050509250935093509350509193909250565b6008602052806000526040600020600091509050806000018054610a5b9061238e565b80601f0160208091040260200160405190810160405280929190818152602001828054610a879061238e565b8015610ad45780601f10610aa957610100808354040283529160200191610ad4565b820191906000526020600020905b815481529060010190602001808311610ab757829003601f168201915b5050505050908060010154908060020160009054906101000a900460ff16905083565b6000600660009054906101000a900473ffffffffffffffffffffffffffffffffffffffff16905090565b606060018054610b309061238e565b80601f0160208091040260200160405190810160405280929190818152602001828054610b5c9061238e565b8015610ba95780601f10610b7e57610100808354040283529160200191610ba9565b820191906000526020600020905b815481529060010190602001808311610b8c57829003601f168201915b5050505050905090565b610bc5610bbe610e5f565b838361168d565b5050565b610bda610bd4610e5f565b83610f20565b610c19576040517f08c379a0000000000000000000000000000000000000000000000000000000008152600401610c1090612555565b60405180910390fd5b610c25848484846117f9565b50505050565b6060610c3682610e14565b6000610c40611855565b90506000815111610c605760405180602001604052806000815250610c8b565b80610c6a8461186c565b604051602001610c7b929190612a10565b6040516020818303038152906040525b915050919050565b6000600560008473ffffffffffffffffffffffffffffffffffffffff1673ffffffffffffffffffffffffffffffffffffffff16815260200190815260200160002060008373ffffffffffffffffffffffffffffffffffffffff1673ffffffffffffffffffffffffffffffffffffffff16815260200190815260200160002060009054906101000a900460ff16905092915050565b610d2f6112ae565b600073ffffffffffffffffffffffffffffffffffffffff168173ffffffffffffffffffffffffffffffffffffffff1603610d9e576040517f08c379a0000000000000000000000000000000000000000000000000000000008152600401610d9590612aa6565b60405180910390fd5b610da781611586565b50565b60007f01ffc9a7000000000000000000000000000000000000000000000000000000007bffffffffffffffffffffffffffffffffffffffffffffffffffffffff1916827bffffffffffffffffffffffffffffffffffffffffffffffffffffffff1916149050919050565b610e1d8161164c565b610e5c576040517f08c379a0000000000000000000000000000000000000000000000000000000008152600401610e53906128b6565b60405180910390fd5b50565b600033905090565b816004600083815260200190815260200160002060006101000a81548173ffffffffffffffffffffffffffffffffffffffff021916908373ffffffffffffffffffffffffffffffffffffffff160217905550808273ffffffffffffffffffffffffffffffffffffffff16610eda836107ce565b73ffffffffffffffffffffffffffffffffffffffff167f8c5be1e5ebec7d5bd14f71427d1e84f3dd0314c0f7b2291e5b200ac8c7c3b92560405160405180910390a45050565b600080610f2c836107ce565b90508073ffffffffffffffffffffffffffffffffffffffff168473ffffffffffffffffffffffffffffffffffffffff161480610f6e5750610f6d8185610c93565b5b80610fac57508373ffffffffffffffffffffffffffffffffffffffff16610f9484610546565b73ffffffffffffffffffffffffffffffffffffffff16145b91505092915050565b8273ffffffffffffffffffffffffffffffffffffffff16610fd5826107ce565b73ffffffffffffffffffffffffffffffffffffffff161461102b576040517f08c379a000000000000000000000000000000000000000000000000000000000815260040161102290612b38565b60405180910390fd5b600073ffffffffffffffffffffffffffffffffffffffff168273ffffffffffffffffffffffffffffffffffffffff160361109a576040517f08c379a000000000000000000000000000000000000000000000000000000000815260040161109190612bca565b60405180910390fd5b6110a7838383600161193a565b8273ffffffffffffffffffffffffffffffffffffffff166110c7826107ce565b73ffffffffffffffffffffffffffffffffffffffff161461111d576040517f08c379a000000000000000000000000000000000000000000000000000000000815260040161111490612b38565b60405180910390fd5b6004600082815260200190815260200160002060006101000a81549073ffffffffffffffffffffffffffffffffffffffff02191690556001600360008573ffffffffffffffffffffffffffffffffffffffff1673ffffffffffffffffffffffffffffffffffffffff168152602001908152602001600020600082825403925050819055506001600360008473ffffffffffffffffffffffffffffffffffffffff1673ffffffffffffffffffffffffffffffffffffffff16815260200190815260200160002060008282540192505081905550816002600083815260200190815260200160002060006101000a81548173ffffffffffffffffffffffffffffffffffffffff021916908373ffffffffffffffffffffffffffffffffffffffff160217905550808273ffffffffffffffffffffffffffffffffffffffff168473ffffffffffffffffffffffffffffffffffffffff167fddf252ad1be2c89b69c2b068fc378daa952ba7f163c4a11628f55a4df523b3ef60405160405180910390a46112a98383836001611940565b505050565b6112b6610e5f565b73ffffffffffffffffffffffffffffffffffffffff166112d4610af7565b73ffffffffffffffffffffffffffffffffffffffff161461132a576040517f08c379a000000000000000000000000000000000000000000000000000000000815260040161132190612c36565b60405180910390fd5b565b600073ffffffffffffffffffffffffffffffffffffffff168273ffffffffffffffffffffffffffffffffffffffff160361139b576040517f08c379a000000000000000000000000000000000000000000000000000000000815260040161139290612ca2565b60405180910390fd5b6113a48161164c565b156113e4576040517f08c379a00000000000000000000000000000000000000000000000000000000081526004016113db90612d0e565b60405180910390fd5b6113f260008383600161193a565b6113fb8161164c565b1561143b576040517f08c379a000000000000000000000000000000000000000000000000000000000815260040161143290612d0e565b60405180910390fd5b6001600360008473ffffffffffffffffffffffffffffffffffffffff1673ffffffffffffffffffffffffffffffffffffffff16815260200190815260200160002060008282540192505081905550816002600083815260200190815260200160002060006101000a81548173ffffffffffffffffffffffffffffffffffffffff021916908373ffffffffffffffffffffffffffffffffffffffff160217905550808273ffffffffffffffffffffffffffffffffffffffff16600073ffffffffffffffffffffffffffffffffffffffff167fddf252ad1be2c89b69c2b068fc378daa952ba7f163c4a11628f55a4df523b3ef60405160405180910390a4611545600083836001611940565b5050565b60006002600083815260200190815260200160002060009054906101000a900473ffffffffffffffffffffffffffffffffffffffff169050919050565b6000600660009054906101000a900473ffffffffffffffffffffffffffffffffffffffff16905081600660006101000a81548173ffffffffffffffffffffffffffffffffffffffff021916908373ffffffffffffffffffffffffffffffffffffffff1602179055508173ffffffffffffffffffffffffffffffffffffffff168173ffffffffffffffffffffffffffffffffffffffff167f8be0079c531659141344cd1fd0a4f28419497f9722a3daafe3b4186f6b6457e060405160405180910390a35050565b60008073ffffffffffffffffffffffffffffffffffffffff1661166e83611549565b73ffffffffffffffffffffffffffffffffffffffff1614159050919050565b8173ffffffffffffffffffffffffffffffffffffffff168373ffffffffffffffffffffffffffffffffffffffff16036116fb576040517f08c379a00000000000000000000000000000000000000000000000000000000081526004016116f290612d7a565b60405180910390fd5b80600560008573ffffffffffffffffffffffffffffffffffffffff1673ffffffffffffffffffffffffffffffffffffffff16815260200190815260200160002060008473ffffffffffffffffffffffffffffffffffffffff1673ffffffffffffffffffffffffffffffffffffffff16815260200190815260200160002060006101000a81548160ff0219169083151502179055508173ffffffffffffffffffffffffffffffffffffffff168373ffffffffffffffffffffffffffffffffffffffff167f17307eab39ab6107e8899845ad3d59bd9653f200f220920489ca2b5937696c31836040516117ec9190611cf7565b60405180910390a3505050565b611804848484610fb5565b61181084848484611946565b61184f576040517f08c379a000000000000000000000000000000000000000000000000000000000815260040161184690612e0c565b60405180910390fd5b50505050565b606060405180602001604052806000815250905090565b60606000600161187b84611acd565b01905060008167ffffffffffffffff81111561189a57611899611f4c565b5b6040519080825280601f01601f1916602001820160405280156118cc5781602001600182028036833780820191505090505b509050600082602001820190505b60011561192f578080600190039150507f3031323334353637383961626364656600000000000000000000000000000000600a86061a8153600a858161192357611922612e2c565b5b049450600085036118da575b819350505050919050565b50505050565b50505050565b60006119678473ffffffffffffffffffffffffffffffffffffffff16611c20565b15611ac0578373ffffffffffffffffffffffffffffffffffffffff1663150b7a02611990610e5f565b8786866040518563ffffffff1660e01b81526004016119b29493929190612eb0565b6020604051808303816000875af19250505080156119ee57506040513d601f19601f820116820180604052508101906119eb9190612f11565b60015b611a70573d8060008114611a1e576040519150601f19603f3d011682016040523d82523d6000602084013e611a23565b606091505b506000815103611a68576040517f08c379a0000000000000000000000000000000000000000000000000000000008152600401611a5f90612e0c565b60405180910390fd5b805181602001fd5b63150b7a0260e01b7bffffffffffffffffffffffffffffffffffffffffffffffffffffffff1916817bffffffffffffffffffffffffffffffffffffffffffffffffffffffff191614915050611ac5565b600190505b949350505050565b600080600090507a184f03e93ff9f4daa797ed6e38ed64bf6a1f0100000000000000008310611b2b577a184f03e93ff9f4daa797ed6e38ed64bf6a1f0100000000000000008381611b2157611b20612e2c565b5b0492506040810190505b6d04ee2d6d415b85acef81000000008310611b68576d04ee2d6d415b85acef81000000008381611b5e57611b5d612e2c565b5b0492506020810190505b662386f26fc100008310611b9757662386f26fc100008381611b8d57611b8c612e2c565b5b0492506010810190505b6305f5e1008310611bc0576305f5e1008381611bb657611bb5612e2c565b5b0492506008810190505b6127108310611be5576127108381611bdb57611bda612e2c565b5b0492506004810190505b60648310611c085760648381611bfe57611bfd612e2c565b5b0492506002810190505b600a8310611c17576001810190505b80915050919050565b6000808273ffffffffffffffffffffffffffffffffffffffff163b119050919050565b6000604051905090565b600080fd5b600080fd5b60007fffffffff0000000000000000000000000000000000000000000000000000000082169050919050565b611c8c81611c57565b8114611c9757600080fd5b50565b600081359050611ca981611c83565b92915050565b600060208284031215611cc557611cc4611c4d565b5b6000611cd384828501611c9a565b91505092915050565b60008115159050919050565b611cf181611cdc565b82525050565b6000602082019050611d0c6000830184611ce8565b92915050565b600081519050919050565b600082825260208201905092915050565b60005b83811015611d4c578082015181840152602081019050611d31565b60008484015250505050565b6000601f19601f8301169050919050565b6000611d7482611d12565b611d7e8185611d1d565b9350611d8e818560208601611d2e565b611d9781611d58565b840191505092915050565b60006020820190508181036000830152611dbc8184611d69565b905092915050565b6000819050919050565b611dd781611dc4565b8114611de257600080fd5b50565b600081359050611df481611dce565b92915050565b600060208284031215611e1057611e0f611c4d565b5b6000611e1e84828501611de5565b91505092915050565b600073ffffffffffffffffffffffffffffffffffffffff82169050919050565b6000611e5282611e27565b9050919050565b611e6281611e47565b82525050565b6000602082019050611e7d6000830184611e59565b92915050565b611e8c81611e47565b8114611e9757600080fd5b50565b600081359050611ea981611e83565b92915050565b60008060408385031215611ec657611ec5611c4d565b5b6000611ed485828601611e9a565b9250506020611ee585828601611de5565b9150509250929050565b600080600060608486031215611f0857611f07611c4d565b5b6000611f1686828701611e9a565b9350506020611f2786828701611e9a565b9250506040611f3886828701611de5565b9150509250925092565b600080fd5b600080fd5b7f4e487b7100000000000000000000000000000000000000000000000000000000600052604160045260246000fd5b611f8482611d58565b810181811067ffffffffffffffff82111715611fa357611fa2611f4c565b5b80604052505050565b6000611fb6611c43565b9050611fc28282611f7b565b919050565b600067ffffffffffffffff821115611fe257611fe1611f4c565b5b611feb82611d58565b9050602081019050919050565b82818337600083830152505050565b600061201a61201584611fc7565b611fac565b90508281526020810184848401111561203657612035611f47565b5b612041848285611ff8565b509392505050565b600082601f83011261205e5761205d611f42565b5b813561206e848260208601612007565b91505092915050565b61208081611cdc565b811461208b57600080fd5b50565b60008135905061209d81612077565b92915050565b600080600080608085870312156120bd576120bc611c4d565b5b60006120cb87828801611e9a565b945050602085013567ffffffffffffffff8111156120ec576120eb611c52565b5b6120f887828801612049565b935050604061210987828801611de5565b925050606061211a8782880161208e565b91505092959194509250565b60006020828403121561213c5761213b611c4d565b5b600061214a84828501611e9a565b91505092915050565b61215c81611dc4565b82525050565b60006020820190506121776000830184612153565b92915050565b600060608201905081810360008301526121978186611d69565b90506121a66020830185612153565b6121b36040830184611ce8565b949350505050565b600080604083850312156121d2576121d1611c4d565b5b60006121e085828601611e9a565b92505060206121f18582860161208e565b9150509250929050565b600067ffffffffffffffff82111561221657612215611f4c565b5b61221f82611d58565b9050602081019050919050565b600061223f61223a846121fb565b611fac565b90508281526020810184848401111561225b5761225a611f47565b5b612266848285611ff8565b509392505050565b600082601f83011261228357612282611f42565b5b813561229384826020860161222c565b91505092915050565b600080600080608085870312156122b6576122b5611c4d565b5b60006122c487828801611e9a565b94505060206122d587828801611e9a565b93505060406122e687828801611de5565b925050606085013567ffffffffffffffff81111561230757612306611c52565b5b6123138782880161226e565b91505092959194509250565b6000806040838503121561233657612335611c4d565b5b600061234485828601611e9a565b925050602061235585828601611e9a565b9150509250929050565b7f4e487b7100000000000000000000000000000000000000000000000000000000600052602260045260246000fd5b600060028204905060018216806123a657607f821691505b6020821081036123b9576123b861235f565b5b50919050565b7f4552433732313a20617070726f76616c20746f2063757272656e74206f776e6560008201527f7200000000000000000000000000000000000000000000000000000000000000602082015250565b600061241b602183611d1d565b9150612426826123bf565b604082019050919050565b6000602082019050818103600083015261244a8161240e565b9050919050565b7f4552433732313a20617070726f76652063616c6c6572206973206e6f7420746f60008201527f6b656e206f776e6572206f7220617070726f76656420666f7220616c6c000000602082015250565b60006124ad603d83611d1d565b91506124b882612451565b604082019050919050565b600060208201905081810360008301526124dc816124a0565b9050919050565b7f4552433732313a2063616c6c6572206973206e6f7420746f6b656e206f776e6560008201527f72206f7220617070726f76656400000000000000000000000000000000000000602082015250565b600061253f602d83611d1d565b915061254a826124e3565b604082019050919050565b6000602082019050818103600083015261256e81612532565b9050919050565b60008190508160005260206000209050919050565b60006020601f8301049050919050565b600082821b905092915050565b6000600883026125d77fffffffffffffffffffffffffffffffffffffffffffffffffffffffffffffffff8261259a565b6125e1868361259a565b95508019841693508086168417925050509392505050565b6000819050919050565b600061261e61261961261484611dc4565b6125f9565b611dc4565b9050919050565b6000819050919050565b61263883612603565b61264c61264482612625565b8484546125a7565b825550505050565b600090565b612661612654565b61266c81848461262f565b505050565b5b8181101561269057612685600082612659565b600181019050612672565b5050565b601f8211156126d5576126a681612575565b6126af8461258a565b810160208510156126be578190505b6126d26126ca8561258a565b830182612671565b50505b505050565b600082821c905092915050565b60006126f8600019846008026126da565b1980831691505092915050565b600061271183836126e7565b9150826002028217905092915050565b61272a82611d12565b67ffffffffffffffff81111561274357612742611f4c565b5b61274d825461238e565b612758828285612694565b600060209050601f83116001811461278b5760008415612779578287015190505b6127838582612705565b8655506127eb565b601f19841661279986612575565b60005b828110156127c15784890151825560018201915060208501945060208101905061279c565b868310156127de57848901516127da601f8916826126e7565b8355505b6001600288020188555050505b505050505050565b7f4e487b7100000000000000000000000000000000000000000000000000000000600052601160045260246000fd5b600061282d82611dc4565b91507fffffffffffffffffffffffffffffffffffffffffffffffffffffffffffffffff820361285f5761285e6127f3565b5b600182019050919050565b7f4552433732313a20696e76616c696420746f6b656e2049440000000000000000600082015250565b60006128a0601883611d1d565b91506128ab8261286a565b602082019050919050565b600060208201905081810360008301526128cf81612893565b9050919050565b7f4552433732313a2061646472657373207a65726f206973206e6f74206120766160008201527f6c6964206f776e65720000000000000000000000000000000000000000000000602082015250565b6000612932602983611d1d565b915061293d826128d6565b604082019050919050565b6000602082019050818103600083015261296181612925565b9050919050565b7f546f6b656e20646f6573206e6f742065786973742e0000000000000000000000600082015250565b600061299e601583611d1d565b91506129a982612968565b602082019050919050565b600060208201905081810360008301526129cd81612991565b9050919050565b600081905092915050565b60006129ea82611d12565b6129f481856129d4565b9350612a04818560208601611d2e565b80840191505092915050565b6000612a1c82856129df565b9150612a2882846129df565b91508190509392505050565b7f4f776e61626c653a206e6577206f776e657220697320746865207a65726f206160008201527f6464726573730000000000000000000000000000000000000000000000000000602082015250565b6000612a90602683611d1d565b9150612a9b82612a34565b604082019050919050565b60006020820190508181036000830152612abf81612a83565b9050919050565b7f4552433732313a207472616e736665722066726f6d20696e636f72726563742060008201527f6f776e6572000000000000000000000000000000000000000000000000000000602082015250565b6000612b22602583611d1d565b9150612b2d82612ac6565b604082019050919050565b60006020820190508181036000830152612b5181612b15565b9050919050565b7f4552433732313a207472616e7366657220746f20746865207a65726f2061646460008201527f7265737300000000000000000000000000000000000000000000000000000000602082015250565b6000612bb4602483611d1d565b9150612bbf82612b58565b604082019050919050565b60006020820190508181036000830152612be381612ba7565b9050919050565b7f4f776e61626c653a2063616c6c6572206973206e6f7420746865206f776e6572600082015250565b6000612c20602083611d1d565b9150612c2b82612bea565b602082019050919050565b60006020820190508181036000830152612c4f81612c13565b9050919050565b7f4552433732313a206d696e7420746f20746865207a65726f2061646472657373600082015250565b6000612c8c602083611d1d565b9150612c9782612c56565b602082019050919050565b60006020820190508181036000830152612cbb81612c7f565b9050919050565b7f4552433732313a20746f6b656e20616c7265616479206d696e74656400000000600082015250565b6000612cf8601c83611d1d565b9150612d0382612cc2565b602082019050919050565b60006020820190508181036000830152612d2781612ceb565b9050919050565b7f4552433732313a20617070726f766520746f2063616c6c657200000000000000600082015250565b6000612d64601983611d1d565b9150612d6f82612d2e565b602082019050919050565b60006020820190508181036000830152612d9381612d57565b9050919050565b7f4552433732313a207472616e7366657220746f206e6f6e20455243373231526560008201527f63656976657220696d706c656d656e7465720000000000000000000000000000602082015250565b6000612df6603283611d1d565b9150612e0182612d9a565b604082019050919050565b60006020820190508181036000830152612e2581612de9565b9050919050565b7f4e487b7100000000000000000000000000000000000000000000000000000000600052601260045260246000fd5b600081519050919050565b600082825260208201905092915050565b6000612e8282612e5b565b612e8c8185612e66565b9350612e9c818560208601611d2e565b612ea581611d58565b840191505092915050565b6000608082019050612ec56000830187611e59565b612ed26020830186611e59565b612edf6040830185612153565b8181036060830152612ef18184612e77565b905095945050505050565b600081519050612f0b81611c83565b92915050565b600060208284031215612f2757612f26611c4d565b5b6000612f3584828501612efc565b9150509291505056fea26469706673582212205fb822fab4aa4455f1ed4c0b258f6e7541875675d637a367f430f82d0b6551ca64736f6c63430008130033",
  "immutableReferences": {},
  "source": "// SPDX-License-Identifier: MIT\r\npragma solidity ^0.8.1;\r\n\r\nimport \"@openzeppelin/contracts/token/ERC721/ERC721.sol\";\r\nimport \"@openzeppelin/contracts/access/Ownable.sol\";\r\n\r\ncontract Factory is ERC721, Ownable {\r\n    uint256 private _tokenIdCounter;\r\n\r\n    struct Product {\r\n        string manufacturer;\r\n        uint256 productionDate;\r\n        bool isQualified;\r\n    }\r\n\r\n    mapping(uint256 => Product) public products;\r\n\r\n    constructor() ERC721(\"Factory\", \"FACT\") {}\r\n\r\n    function mintProduct(\r\n        address to,\r\n        string memory manufacturer,\r\n        uint256 productionDate,\r\n        bool isQualified\r\n    ) public onlyOwner {\r\n        uint256 tokenId = _tokenIdCounter;\r\n\r\n        _mint(to, tokenId);\r\n        products[tokenId] = Product(manufacturer, productionDate, isQualified);\r\n\r\n        _tokenIdCounter++;\r\n    }\r\n\r\n    function getProductInfo(uint256 tokenId)\r\n        public\r\n        view\r\n        returns (\r\n            string memory,\r\n            uint256,\r\n            bool\r\n        )\r\n    {\r\n        require(_exists(tokenId), \"Token does not exist.\");\r\n        Product storage product = products[tokenId];\r\n        return (product.manufacturer, product.productionDate, product.isQualified);\r\n    }\r\n}\r\n",
  "sourcePath": "C:\\Users\\cheny\\Documents\\GitHub\\smart-expiring-product-management\\contracts\\factory v1.0.sol",
  "compiler": {
    "name": "solc",
    "version": "0.8.19+commit.7dd6d404.Emscripten.clang"
  },
  "schemaVersion": "3.4.13",
  "updatedAt": "2023-04-30T15:05:35.115Z",
  "devdoc": {
    "events": {
      "Approval(address,address,uint256)": {
        "details": "Emitted when `owner` enables `approved` to manage the `tokenId` token."
      },
      "ApprovalForAll(address,address,bool)": {
        "details": "Emitted when `owner` enables or disables (`approved`) `operator` to manage all of its assets."
      },
      "Transfer(address,address,uint256)": {
        "details": "Emitted when `tokenId` token is transferred from `from` to `to`."
      }
    },
    "kind": "dev",
    "methods": {
      "approve(address,uint256)": {
        "details": "See {IERC721-approve}."
      },
      "balanceOf(address)": {
        "details": "See {IERC721-balanceOf}."
      },
      "getApproved(uint256)": {
        "details": "See {IERC721-getApproved}."
      },
      "isApprovedForAll(address,address)": {
        "details": "See {IERC721-isApprovedForAll}."
      },
      "name()": {
        "details": "See {IERC721Metadata-name}."
      },
      "owner()": {
        "details": "Returns the address of the current owner."
      },
      "ownerOf(uint256)": {
        "details": "See {IERC721-ownerOf}."
      },
      "renounceOwnership()": {
        "details": "Leaves the contract without owner. It will not be possible to call `onlyOwner` functions anymore. Can only be called by the current owner. NOTE: Renouncing ownership will leave the contract without an owner, thereby removing any functionality that is only available to the owner."
      },
      "safeTransferFrom(address,address,uint256)": {
        "details": "See {IERC721-safeTransferFrom}."
      },
      "safeTransferFrom(address,address,uint256,bytes)": {
        "details": "See {IERC721-safeTransferFrom}."
      },
      "setApprovalForAll(address,bool)": {
        "details": "See {IERC721-setApprovalForAll}."
      },
      "supportsInterface(bytes4)": {
        "details": "See {IERC165-supportsInterface}."
      },
      "symbol()": {
        "details": "See {IERC721Metadata-symbol}."
      },
      "tokenURI(uint256)": {
        "details": "See {IERC721Metadata-tokenURI}."
      },
      "transferFrom(address,address,uint256)": {
        "details": "See {IERC721-transferFrom}."
      },
      "transferOwnership(address)": {
        "details": "Transfers ownership of the contract to a new account (`newOwner`). Can only be called by the current owner."
      }
    },
    "version": 1
  },
  "userdoc": {
    "kind": "user",
    "methods": {},
    "version": 1
  }
}