{
  "contractName": "Factory",
  "abi": [
    {
      "inputs": [],
      "stateMutability": "nonpayable",
      "type": "constructor"
    },
    {
      "anonymous": false,
      "inputs": [
        {
          "indexed": true,
          "internalType": "address",
          "name": "owner",
          "type": "address"
        },
        {
          "indexed": true,
          "internalType": "address",
          "name": "approved",
          "type": "address"
        },
        {
          "indexed": true,
          "internalType": "uint256",
          "name": "tokenId",
          "type": "uint256"
        }
      ],
      "name": "Approval",
      "type": "event"
    },
    {
      "anonymous": false,
      "inputs": [
        {
          "indexed": true,
          "internalType": "address",
          "name": "owner",
          "type": "address"
        },
        {
          "indexed": true,
          "internalType": "address",
          "name": "operator",
          "type": "address"
        },
        {
          "indexed": false,
          "internalType": "bool",
          "name": "approved",
          "type": "bool"
        }
      ],
      "name": "ApprovalForAll",
      "type": "event"
    },
    {
      "anonymous": false,
      "inputs": [
        {
          "indexed": true,
          "internalType": "address",
          "name": "previousOwner",
          "type": "address"
        },
        {
          "indexed": true,
          "internalType": "address",
          "name": "newOwner",
          "type": "address"
        }
      ],
      "name": "OwnershipTransferred",
      "type": "event"
    },
    {
      "anonymous": false,
      "inputs": [
        {
          "indexed": true,
          "internalType": "uint256",
          "name": "tokenId",
          "type": "uint256"
        },
        {
          "indexed": false,
          "internalType": "string",
          "name": "manufacturer",
          "type": "string"
        },
        {
          "indexed": false,
          "internalType": "string",
          "name": "name",
          "type": "string"
        },
        {
          "indexed": false,
          "internalType": "uint256",
          "name": "manufactureDate",
          "type": "uint256"
        },
        {
          "indexed": false,
          "internalType": "uint256",
          "name": "expiryDate",
          "type": "uint256"
        },
        {
          "indexed": false,
          "internalType": "bool",
          "name": "isQualityProduct",
          "type": "bool"
        },
        {
          "indexed": false,
          "internalType": "uint256",
          "name": "price",
          "type": "uint256"
        }
      ],
      "name": "ProductCreated",
      "type": "event"
    },
    {
      "anonymous": false,
      "inputs": [
        {
          "indexed": true,
          "internalType": "address",
          "name": "from",
          "type": "address"
        },
        {
          "indexed": true,
          "internalType": "address",
          "name": "to",
          "type": "address"
        },
        {
          "indexed": true,
          "internalType": "uint256",
          "name": "tokenId",
          "type": "uint256"
        }
      ],
      "name": "Transfer",
      "type": "event"
    },
    {
      "inputs": [
        {
          "internalType": "address",
          "name": "to",
          "type": "address"
        },
        {
          "internalType": "uint256",
          "name": "tokenId",
          "type": "uint256"
        }
      ],
      "name": "approve",
      "outputs": [],
      "stateMutability": "nonpayable",
      "type": "function"
    },
    {
      "inputs": [
        {
          "internalType": "address",
          "name": "owner",
          "type": "address"
        }
      ],
      "name": "balanceOf",
      "outputs": [
        {
          "internalType": "uint256",
          "name": "",
          "type": "uint256"
        }
      ],
      "stateMutability": "view",
      "type": "function"
    },
    {
      "inputs": [],
      "name": "discountData",
      "outputs": [
        {
          "internalType": "bool",
          "name": "isActive",
          "type": "bool"
        },
        {
          "internalType": "uint256",
          "name": "percentage",
          "type": "uint256"
        }
      ],
      "stateMutability": "view",
      "type": "function"
    },
    {
      "inputs": [
        {
          "internalType": "uint256",
          "name": "tokenId",
          "type": "uint256"
        }
      ],
      "name": "getApproved",
      "outputs": [
        {
          "internalType": "address",
          "name": "",
          "type": "address"
        }
      ],
      "stateMutability": "view",
      "type": "function"
    },
    {
      "inputs": [
        {
          "internalType": "address",
          "name": "owner",
          "type": "address"
        },
        {
          "internalType": "address",
          "name": "operator",
          "type": "address"
        }
      ],
      "name": "isApprovedForAll",
      "outputs": [
        {
          "internalType": "bool",
          "name": "",
          "type": "bool"
        }
      ],
      "stateMutability": "view",
      "type": "function"
    },
    {
      "inputs": [],
      "name": "name",
      "outputs": [
        {
          "internalType": "string",
          "name": "",
          "type": "string"
        }
      ],
      "stateMutability": "view",
      "type": "function"
    },
    {
      "inputs": [],
      "name": "owner",
      "outputs": [
        {
          "internalType": "address",
          "name": "",
          "type": "address"
        }
      ],
      "stateMutability": "view",
      "type": "function"
    },
    {
      "inputs": [
        {
          "internalType": "uint256",
          "name": "tokenId",
          "type": "uint256"
        }
      ],
      "name": "ownerOf",
      "outputs": [
        {
          "internalType": "address",
          "name": "",
          "type": "address"
        }
      ],
      "stateMutability": "view",
      "type": "function"
    },
    {
      "inputs": [
        {
          "internalType": "uint256",
          "name": "",
          "type": "uint256"
        }
      ],
      "name": "products",
      "outputs": [
        {
          "internalType": "string",
          "name": "name",
          "type": "string"
        },
        {
          "internalType": "string",
          "name": "manufacturer",
          "type": "string"
        },
        {
          "internalType": "uint256",
          "name": "manufactureDate",
          "type": "uint256"
        },
        {
          "internalType": "uint256",
          "name": "expiryDate",
          "type": "uint256"
        },
        {
          "internalType": "bool",
          "name": "isQualityProduct",
          "type": "bool"
        },
        {
          "internalType": "uint256",
          "name": "price",
          "type": "uint256"
        }
      ],
      "stateMutability": "view",
      "type": "function"
    },
    {
      "inputs": [],
      "name": "renounceOwnership",
      "outputs": [],
      "stateMutability": "nonpayable",
      "type": "function"
    },
    {
      "inputs": [
        {
          "internalType": "address",
          "name": "from",
          "type": "address"
        },
        {
          "internalType": "address",
          "name": "to",
          "type": "address"
        },
        {
          "internalType": "uint256",
          "name": "tokenId",
          "type": "uint256"
        }
      ],
      "name": "safeTransferFrom",
      "outputs": [],
      "stateMutability": "nonpayable",
      "type": "function"
    },
    {
      "inputs": [
        {
          "internalType": "address",
          "name": "from",
          "type": "address"
        },
        {
          "internalType": "address",
          "name": "to",
          "type": "address"
        },
        {
          "internalType": "uint256",
          "name": "tokenId",
          "type": "uint256"
        },
        {
          "internalType": "bytes",
          "name": "data",
          "type": "bytes"
        }
      ],
      "name": "safeTransferFrom",
      "outputs": [],
      "stateMutability": "nonpayable",
      "type": "function"
    },
    {
      "inputs": [
        {
          "internalType": "address",
          "name": "operator",
          "type": "address"
        },
        {
          "internalType": "bool",
          "name": "approved",
          "type": "bool"
        }
      ],
      "name": "setApprovalForAll",
      "outputs": [],
      "stateMutability": "nonpayable",
      "type": "function"
    },
    {
      "inputs": [
        {
          "internalType": "bytes4",
          "name": "interfaceId",
          "type": "bytes4"
        }
      ],
      "name": "supportsInterface",
      "outputs": [
        {
          "internalType": "bool",
          "name": "",
          "type": "bool"
        }
      ],
      "stateMutability": "view",
      "type": "function"
    },
    {
      "inputs": [],
      "name": "symbol",
      "outputs": [
        {
          "internalType": "string",
          "name": "",
          "type": "string"
        }
      ],
      "stateMutability": "view",
      "type": "function"
    },
    {
      "inputs": [],
      "name": "tokenCounter",
      "outputs": [
        {
          "internalType": "uint256",
          "name": "",
          "type": "uint256"
        }
      ],
      "stateMutability": "view",
      "type": "function"
    },
    {
      "inputs": [
        {
          "internalType": "uint256",
          "name": "tokenId",
          "type": "uint256"
        }
      ],
      "name": "tokenURI",
      "outputs": [
        {
          "internalType": "string",
          "name": "",
          "type": "string"
        }
      ],
      "stateMutability": "view",
      "type": "function"
    },
    {
      "inputs": [
        {
          "internalType": "address",
          "name": "from",
          "type": "address"
        },
        {
          "internalType": "address",
          "name": "to",
          "type": "address"
        },
        {
          "internalType": "uint256",
          "name": "tokenId",
          "type": "uint256"
        }
      ],
      "name": "transferFrom",
      "outputs": [],
      "stateMutability": "nonpayable",
      "type": "function"
    },
    {
      "inputs": [
        {
          "internalType": "address",
          "name": "newOwner",
          "type": "address"
        }
      ],
      "name": "transferOwnership",
      "outputs": [],
      "stateMutability": "nonpayable",
      "type": "function"
    },
    {
      "inputs": [
        {
          "internalType": "string",
          "name": "productManufacturer",
          "type": "string"
        },
        {
          "internalType": "string",
          "name": "productName",
          "type": "string"
        },
        {
          "internalType": "uint256",
          "name": "manufactureDate",
          "type": "uint256"
        },
        {
          "internalType": "uint256",
          "name": "expiryDate",
          "type": "uint256"
        },
        {
          "internalType": "bool",
          "name": "isQualityProduct",
          "type": "bool"
        },
        {
          "internalType": "uint256",
          "name": "price",
          "type": "uint256"
        }
      ],
      "name": "createProduct",
      "outputs": [],
      "stateMutability": "nonpayable",
      "type": "function"
    },
    {
      "inputs": [
        {
          "components": [
            {
              "internalType": "string",
              "name": "name",
              "type": "string"
            },
            {
              "internalType": "string",
              "name": "manufacturer",
              "type": "string"
            },
            {
              "internalType": "uint256",
              "name": "manufactureDate",
              "type": "uint256"
            },
            {
              "internalType": "uint256",
              "name": "expiryDate",
              "type": "uint256"
            },
            {
              "internalType": "bool",
              "name": "isQualityProduct",
              "type": "bool"
            },
            {
              "internalType": "uint256",
              "name": "price",
              "type": "uint256"
            }
          ],
          "internalType": "struct ProductLib.Product[]",
          "name": "_products",
          "type": "tuple[]"
        }
      ],
      "name": "createProductsBatch",
      "outputs": [],
      "stateMutability": "nonpayable",
      "type": "function"
    },
    {
      "inputs": [
        {
          "internalType": "uint256",
          "name": "productTokenId",
          "type": "uint256"
        }
      ],
      "name": "updatePrice",
      "outputs": [],
      "stateMutability": "nonpayable",
      "type": "function"
    },
    {
      "inputs": [
        {
          "internalType": "uint256[]",
          "name": "productTokenIds",
          "type": "uint256[]"
        }
      ],
      "name": "updatePricesBatch",
      "outputs": [],
      "stateMutability": "nonpayable",
      "type": "function"
    },
    {
      "inputs": [],
      "name": "calculateAveragePrice",
      "outputs": [
        {
          "internalType": "uint256",
          "name": "",
          "type": "uint256"
        }
      ],
      "stateMutability": "view",
      "type": "function"
    },
    {
      "inputs": [
        {
          "internalType": "uint256",
          "name": "expiryThresholdInDays",
          "type": "uint256"
        }
      ],
      "name": "getExpiringProducts",
      "outputs": [
        {
          "internalType": "uint256[]",
          "name": "",
          "type": "uint256[]"
        }
      ],
      "stateMutability": "view",
      "type": "function"
    },
    {
      "inputs": [
        {
          "internalType": "string",
          "name": "productManufacturer",
          "type": "string"
        }
      ],
      "name": "getProductsByManufacturer",
      "outputs": [
        {
          "internalType": "uint256[]",
          "name": "",
          "type": "uint256[]"
        }
      ],
      "stateMutability": "view",
      "type": "function"
    },
    {
      "inputs": [
        {
          "internalType": "uint256",
          "name": "percentage",
          "type": "uint256"
        }
      ],
      "name": "setDiscount",
      "outputs": [],
      "stateMutability": "nonpayable",
      "type": "function"
    },
    {
      "inputs": [],
      "name": "cancelDiscount",
      "outputs": [],
      "stateMutability": "nonpayable",
      "type": "function"
    }
  ],
  "bytecode": "0x60806040523480156200001157600080fd5b506040518060400160405280600781526020017f466163746f7279000000000000000000000000000000000000000000000000008152506040518060400160405280600781526020017f464143544f52590000000000000000000000000000000000000000000000000081525081600090816200008f91906200041a565b508060019081620000a191906200041a565b505050620000c4620000b8620000d260201b60201c565b620000da60201b60201c565b600060078190555062000501565b600033905090565b6000600660009054906101000a900473ffffffffffffffffffffffffffffffffffffffff16905081600660006101000a81548173ffffffffffffffffffffffffffffffffffffffff021916908373ffffffffffffffffffffffffffffffffffffffff1602179055508173ffffffffffffffffffffffffffffffffffffffff168173ffffffffffffffffffffffffffffffffffffffff167f8be0079c531659141344cd1fd0a4f28419497f9722a3daafe3b4186f6b6457e060405160405180910390a35050565b600081519050919050565b7f4e487b7100000000000000000000000000000000000000000000000000000000600052604160045260246000fd5b7f4e487b7100000000000000000000000000000000000000000000000000000000600052602260045260246000fd5b600060028204905060018216806200022257607f821691505b602082108103620002385762000237620001da565b5b50919050565b60008190508160005260206000209050919050565b60006020601f8301049050919050565b600082821b905092915050565b600060088302620002a27fffffffffffffffffffffffffffffffffffffffffffffffffffffffffffffffff8262000263565b620002ae868362000263565b95508019841693508086168417925050509392505050565b6000819050919050565b6000819050919050565b6000620002fb620002f5620002ef84620002c6565b620002d0565b620002c6565b9050919050565b6000819050919050565b6200031783620002da565b6200032f620003268262000302565b84845462000270565b825550505050565b600090565b6200034662000337565b620003538184846200030c565b505050565b5b818110156200037b576200036f6000826200033c565b60018101905062000359565b5050565b601f821115620003ca5762000394816200023e565b6200039f8462000253565b81016020851015620003af578190505b620003c7620003be8562000253565b83018262000358565b50505b505050565b600082821c905092915050565b6000620003ef60001984600802620003cf565b1980831691505092915050565b60006200040a8383620003dc565b9150826002028217905092915050565b6200042582620001a0565b67ffffffffffffffff811115620004415762000440620001ab565b5b6200044d825462000209565b6200045a8282856200037f565b600060209050601f8311600181146200049257600084156200047d578287015190505b620004898582620003fc565b865550620004f9565b601f198416620004a2866200023e565b60005b82811015620004cc57848901518255600182019150602085019450602081019050620004a5565b86831015620004ec5784890151620004e8601f891682620003dc565b8355505b6001600288020188555050505b505050505050565b61492d80620005116000396000f3fe608060405234801561001057600080fd5b50600436106101c45760003560e01c80638d6cc56d116100f9578063cc3e2f0511610097578063dabd271911610071578063dabd2719146104f5578063e985e9c514610511578063ea9ba5d114610541578063f2fde38b1461055f576101c4565b8063cc3e2f05146104b1578063d082e381146104bb578063d4aaf797146104d9576101c4565b8063a22cb465116100d3578063a22cb4651461042a578063a4811bb214610446578063b88d4fde14610465578063c87b56dd14610481576101c4565b80638d6cc56d146103d25780638da5cb5b146103ee57806395d89b411461040c576101c4565b806342842e0e1161016657806370a082311161014057806370a0823114610347578063715018a6146103775780637acc0b2014610381578063869892b1146103b6576101c4565b806342842e0e146102df578063493b26be146102fb5780636352211e14610317576101c4565b8063095ea7b3116101a2578063095ea7b3146102475780631e6ecae41461026357806323b872dd146102935780632e1ffb94146102af576101c4565b806301ffc9a7146101c957806306fdde03146101f9578063081812fc14610217575b600080fd5b6101e360048036038101906101de9190612b96565b61057b565b6040516101f09190612bde565b60405180910390f35b61020161065d565b60405161020e9190612c89565b60405180910390f35b610231600480360381019061022c9190612ce1565b6106ef565b60405161023e9190612d4f565b60405180910390f35b610261600480360381019061025c9190612d96565b610735565b005b61027d60048036038101906102789190612f0b565b61084c565b60405161028a9190613012565b60405180910390f35b6102ad60048036038101906102a89190613034565b61086d565b005b6102c960048036038101906102c49190612ce1565b6108cd565b6040516102d69190613012565b60405180910390f35b6102f960048036038101906102f49190613034565b6108ee565b005b610315600480360381019061031091906130e7565b61090e565b005b610331600480360381019061032c9190612ce1565b6109b5565b60405161033e9190612d4f565b60405180910390f35b610361600480360381019061035c9190613134565b610a3b565b60405161036e9190613170565b60405180910390f35b61037f610af2565b005b61039b60048036038101906103969190612ce1565b610b06565b6040516103ad9695949392919061318b565b60405180910390f35b6103d060048036038101906103cb91906132bd565b610c5f565b005b6103ec60048036038101906103e79190612ce1565b610db5565b005b6103f6610ec5565b6040516104039190612d4f565b60405180910390f35b610414610eef565b6040516104219190612c89565b60405180910390f35b610444600480360381019061043f9190613332565b610f81565b005b61044e610f97565b60405161045c929190613372565b60405180910390f35b61047f600480360381019061047a919061343c565b610fb6565b005b61049b60048036038101906104969190612ce1565b611018565b6040516104a89190612c89565b60405180910390f35b6104b9611080565b005b6104c36110f4565b6040516104d09190613170565b60405180910390f35b6104f360048036038101906104ee9190613515565b6110fa565b005b61050f600480360381019061050a9190612ce1565b611369565b005b61052b600480360381019061052691906135e4565b6113e0565b6040516105389190612bde565b60405180910390f35b610549611474565b6040516105569190613170565b60405180910390f35b61057960048036038101906105749190613134565b611491565b005b60007f80ac58cd000000000000000000000000000000000000000000000000000000007bffffffffffffffffffffffffffffffffffffffffffffffffffffffff1916827bffffffffffffffffffffffffffffffffffffffffffffffffffffffff1916148061064657507f5b5e139f000000000000000000000000000000000000000000000000000000007bffffffffffffffffffffffffffffffffffffffffffffffffffffffff1916827bffffffffffffffffffffffffffffffffffffffffffffffffffffffff1916145b80610656575061065582611514565b5b9050919050565b60606000805461066c90613653565b80601f016020809104026020016040519081016040528092919081815260200182805461069890613653565b80156106e55780601f106106ba576101008083540402835291602001916106e5565b820191906000526020600020905b8154815290600101906020018083116106c857829003601f168201915b5050505050905090565b60006106fa8261157e565b6004600083815260200190815260200160002060009054906101000a900473ffffffffffffffffffffffffffffffffffffffff169050919050565b6000610740826109b5565b90508073ffffffffffffffffffffffffffffffffffffffff168373ffffffffffffffffffffffffffffffffffffffff16036107b0576040517f08c379a00000000000000000000000000000000000000000000000000000000081526004016107a7906136f6565b60405180910390fd5b8073ffffffffffffffffffffffffffffffffffffffff166107cf6115c9565b73ffffffffffffffffffffffffffffffffffffffff1614806107fe57506107fd816107f86115c9565b6113e0565b5b61083d576040517f08c379a000000000000000000000000000000000000000000000000000000000815260040161083490613788565b60405180910390fd5b61084783836115d1565b505050565b606061086660075483600861168a9092919063ffffffff16565b9050919050565b61087e6108786115c9565b8261188c565b6108bd576040517f08c379a00000000000000000000000000000000000000000000000000000000081526004016108b49061381a565b60405180910390fd5b6108c8838383611921565b505050565b60606108e7600754836008611c1a9092919063ffffffff16565b9050919050565b61090983838360405180602001604052806000815250610fb6565b505050565b610916611e0b565b600082829050905060005b818110156109af573684848381811061093d5761093c61383a565b5b905060200281019061094f9190613878565b905061099b81806020019061096491906138a0565b83806000019061097491906138a0565b856040013586606001358760800160208101906109919190613903565b8860a001356110fa565b5080806109a79061395f565b915050610921565b50505050565b6000806109c183611e89565b9050600073ffffffffffffffffffffffffffffffffffffffff168173ffffffffffffffffffffffffffffffffffffffff1603610a32576040517f08c379a0000000000000000000000000000000000000000000000000000000008152600401610a29906139f3565b60405180910390fd5b80915050919050565b60008073ffffffffffffffffffffffffffffffffffffffff168273ffffffffffffffffffffffffffffffffffffffff1603610aab576040517f08c379a0000000000000000000000000000000000000000000000000000000008152600401610aa290613a85565b60405180910390fd5b600360008373ffffffffffffffffffffffffffffffffffffffff1673ffffffffffffffffffffffffffffffffffffffff168152602001908152602001600020549050919050565b610afa611e0b565b610b046000611ec6565b565b6008602052806000526040600020600091509050806000018054610b2990613653565b80601f0160208091040260200160405190810160405280929190818152602001828054610b5590613653565b8015610ba25780601f10610b7757610100808354040283529160200191610ba2565b820191906000526020600020905b815481529060010190602001808311610b8557829003601f168201915b505050505090806001018054610bb790613653565b80601f0160208091040260200160405190810160405280929190818152602001828054610be390613653565b8015610c305780601f10610c0557610100808354040283529160200191610c30565b820191906000526020600020905b815481529060010190602001808311610c1357829003601f168201915b5050505050908060020154908060030154908060040160009054906101000a900460ff16908060050154905086565b610c67611e0b565b60008151905060005b81811015610db0576000838281518110610c8d57610c8c61383a565b5b60200260200101519050610ca081611f8c565b610cdf576040517f08c379a0000000000000000000000000000000000000000000000000000000008152600401610cd690613af1565b60405180910390fd5b6000610cfc60086000848152602001908152602001600020611fcd565b90506000600973__DiscountLib___________________________63fa504f9e9091846040518363ffffffff1660e01b8152600401610d3c929190613b27565b602060405180830381865af4158015610d59573d6000803e3d6000fd5b505050506040513d601f19601f82011682018060405250810190610d7d9190613b65565b90508060086000858152602001908152602001600020600501819055505050508080610da89061395f565b915050610c70565b505050565b610dbd611e0b565b610dc681611f8c565b610e05576040517f08c379a0000000000000000000000000000000000000000000000000000000008152600401610dfc90613af1565b60405180910390fd5b6000610e2260086000848152602001908152602001600020611fcd565b90506000600973__DiscountLib___________________________63fa504f9e9091846040518363ffffffff1660e01b8152600401610e62929190613b27565b602060405180830381865af4158015610e7f573d6000803e3d6000fd5b505050506040513d601f19601f82011682018060405250810190610ea39190613b65565b9050806008600085815260200190815260200160002060050181905550505050565b6000600660009054906101000a900473ffffffffffffffffffffffffffffffffffffffff16905090565b606060018054610efe90613653565b80601f0160208091040260200160405190810160405280929190818152602001828054610f2a90613653565b8015610f775780601f10610f4c57610100808354040283529160200191610f77565b820191906000526020600020905b815481529060010190602001808311610f5a57829003601f168201915b5050505050905090565b610f93610f8c6115c9565b8383611ff0565b5050565b60098060000160009054906101000a900460ff16908060010154905082565b610fc7610fc16115c9565b8361188c565b611006576040517f08c379a0000000000000000000000000000000000000000000000000000000008152600401610ffd9061381a565b60405180910390fd5b6110128484848461215c565b50505050565b60606110238261157e565b600061102d6121b8565b9050600081511161104d5760405180602001604052806000815250611078565b80611057846121cf565b604051602001611068929190613bce565b6040516020818303038152906040525b915050919050565b611088611e0b565b600973__DiscountLib___________________________630e5172e890916040518263ffffffff1660e01b81526004016110c29190613bf2565b60006040518083038186803b1580156110da57600080fd5b505af41580156110ee573d6000803e3d6000fd5b50505050565b60075481565b611102611e0b565b600088889050116040518060600160405280602581526020016148d36025913990611163576040517f08c379a000000000000000000000000000000000000000000000000000000000815260040161115a9190612c89565b60405180910390fd5b50600086869050116040518060400160405280602081526020017f50726f64756374206e616d652073686f756c64206e6f7420626520656d707479815250906111e2576040517f08c379a00000000000000000000000000000000000000000000000000000000081526004016111d99190612c89565b60405180910390fd5b508284106040518060600160405280603381526020016148a06033913990611240576040517f08c379a00000000000000000000000000000000000000000000000000000000081526004016112379190612c89565b60405180910390fd5b5060006007549050611252338261229d565b6112fc6007548a8a8080601f016020809104026020016040519081016040528093929190818152602001838380828437600081840152601f19601f8201169050808301925050505050505089898080601f016020809104026020016040519081016040528093929190818152602001838380828437600081840152601f19601f820116905080830192505050505050508888888860086122bb90979695949392919063ffffffff16565b61131260016007546123c190919063ffffffff16565b600781905550807ff7d840a7f05259f95d2507bf22e01ff2bfa2cc6284e83dbc8cbc3047915db9ac8a8a8a8a8a8a8a8a604051611356989796959493929190613c3a565b60405180910390a2505050505050505050565b611371611e0b565b600973__DiscountLib___________________________63d80016969091836040518363ffffffff1660e01b81526004016113ad929190613b27565b60006040518083038186803b1580156113c557600080fd5b505af41580156113d9573d6000803e3d6000fd5b5050505050565b6000600560008473ffffffffffffffffffffffffffffffffffffffff1673ffffffffffffffffffffffffffffffffffffffff16815260200190815260200160002060008373ffffffffffffffffffffffffffffffffffffffff1673ffffffffffffffffffffffffffffffffffffffff16815260200190815260200160002060009054906101000a900460ff16905092915050565b600061148c60075460086123d790919063ffffffff16565b905090565b611499611e0b565b600073ffffffffffffffffffffffffffffffffffffffff168173ffffffffffffffffffffffffffffffffffffffff1603611508576040517f08c379a00000000000000000000000000000000000000000000000000000000081526004016114ff90613d1f565b60405180910390fd5b61151181611ec6565b50565b60007f01ffc9a7000000000000000000000000000000000000000000000000000000007bffffffffffffffffffffffffffffffffffffffffffffffffffffffff1916827bffffffffffffffffffffffffffffffffffffffffffffffffffffffff1916149050919050565b61158781611f8c565b6115c6576040517f08c379a00000000000000000000000000000000000000000000000000000000081526004016115bd906139f3565b60405180910390fd5b50565b600033905090565b816004600083815260200190815260200160002060006101000a81548173ffffffffffffffffffffffffffffffffffffffff021916908373ffffffffffffffffffffffffffffffffffffffff160217905550808273ffffffffffffffffffffffffffffffffffffffff16611644836109b5565b73ffffffffffffffffffffffffffffffffffffffff167f8c5be1e5ebec7d5bd14f71427d1e84f3dd0314c0f7b2291e5b200ac8c7c3b92560405160405180910390a45050565b606060008251116116d0576040517f08c379a00000000000000000000000000000000000000000000000000000000081526004016116c790613db1565b60405180910390fd5b60008367ffffffffffffffff8111156116ec576116eb612de0565b5b60405190808252806020026020018201604052801561171a5781602001602082028036833780820191505090505b509050600080846040516020016117319190613dd1565b60405160208183030381529060405280519060200120905060005b868110156117d7578188600083815260200190815260200160002060010160405160200161177a9190613e80565b60405160208183030381529060405280519060200120036117c457808484815181106117a9576117a861383a565b5b60200260200101818152505082806117c09061395f565b9350505b80806117cf9061395f565b91505061174c565b5060008267ffffffffffffffff8111156117f4576117f3612de0565b5b6040519080825280602002602001820160405280156118225781602001602082028036833780820191505090505b50905060005b8381101561187d578481815181106118435761184261383a565b5b602002602001015182828151811061185e5761185d61383a565b5b60200260200101818152505080806118759061395f565b915050611828565b50809450505050509392505050565b600080611898836109b5565b90508073ffffffffffffffffffffffffffffffffffffffff168473ffffffffffffffffffffffffffffffffffffffff1614806118da57506118d981856113e0565b5b8061191857508373ffffffffffffffffffffffffffffffffffffffff16611900846106ef565b73ffffffffffffffffffffffffffffffffffffffff16145b91505092915050565b8273ffffffffffffffffffffffffffffffffffffffff16611941826109b5565b73ffffffffffffffffffffffffffffffffffffffff1614611997576040517f08c379a000000000000000000000000000000000000000000000000000000000815260040161198e90613f09565b60405180910390fd5b600073ffffffffffffffffffffffffffffffffffffffff168273ffffffffffffffffffffffffffffffffffffffff1603611a06576040517f08c379a00000000000000000000000000000000000000000000000000000000081526004016119fd90613f9b565b60405180910390fd5b611a1383838360016124e5565b8273ffffffffffffffffffffffffffffffffffffffff16611a33826109b5565b73ffffffffffffffffffffffffffffffffffffffff1614611a89576040517f08c379a0000000000000000000000000000000000000000000000000000000008152600401611a8090613f09565b60405180910390fd5b6004600082815260200190815260200160002060006101000a81549073ffffffffffffffffffffffffffffffffffffffff02191690556001600360008573ffffffffffffffffffffffffffffffffffffffff1673ffffffffffffffffffffffffffffffffffffffff168152602001908152602001600020600082825403925050819055506001600360008473ffffffffffffffffffffffffffffffffffffffff1673ffffffffffffffffffffffffffffffffffffffff16815260200190815260200160002060008282540192505081905550816002600083815260200190815260200160002060006101000a81548173ffffffffffffffffffffffffffffffffffffffff021916908373ffffffffffffffffffffffffffffffffffffffff160217905550808273ffffffffffffffffffffffffffffffffffffffff168473ffffffffffffffffffffffffffffffffffffffff167fddf252ad1be2c89b69c2b068fc378daa952ba7f163c4a11628f55a4df523b3ef60405160405180910390a4611c1583838360016124eb565b505050565b606060008211611c5f576040517f08c379a0000000000000000000000000000000000000000000000000000000008152600401611c5690614007565b60405180910390fd5b60008367ffffffffffffffff811115611c7b57611c7a612de0565b5b604051908082528060200260200182016040528015611ca95781602001602082028036833780820191505090505b5090506000805b85811015611d57576000620151804289600085815260200190815260200160002060030154611cdf9190614027565b611ce9919061408a565b9050858111158015611d0f57508760008381526020019081526020016000206003015442105b15611d435781848481518110611d2857611d2761383a565b5b6020026020010181815250508280611d3f9061395f565b9350505b508080611d4f9061395f565b915050611cb0565b5060008167ffffffffffffffff811115611d7457611d73612de0565b5b604051908082528060200260200182016040528015611da25781602001602082028036833780820191505090505b50905060005b82811015611dfd57838181518110611dc357611dc261383a565b5b6020026020010151828281518110611dde57611ddd61383a565b5b6020026020010181815250508080611df59061395f565b915050611da8565b508093505050509392505050565b611e136115c9565b73ffffffffffffffffffffffffffffffffffffffff16611e31610ec5565b73ffffffffffffffffffffffffffffffffffffffff1614611e87576040517f08c379a0000000000000000000000000000000000000000000000000000000008152600401611e7e90614107565b60405180910390fd5b565b60006002600083815260200190815260200160002060009054906101000a900473ffffffffffffffffffffffffffffffffffffffff169050919050565b6000600660009054906101000a900473ffffffffffffffffffffffffffffffffffffffff16905081600660006101000a81548173ffffffffffffffffffffffffffffffffffffffff021916908373ffffffffffffffffffffffffffffffffffffffff1602179055508173ffffffffffffffffffffffffffffffffffffffff168173ffffffffffffffffffffffffffffffffffffffff167f8be0079c531659141344cd1fd0a4f28419497f9722a3daafe3b4186f6b6457e060405160405180910390a35050565b60008073ffffffffffffffffffffffffffffffffffffffff16611fae83611e89565b73ffffffffffffffffffffffffffffffffffffffff1614159050919050565b6000611fdc82600301546124f1565b826005018190555081600501549050919050565b8173ffffffffffffffffffffffffffffffffffffffff168373ffffffffffffffffffffffffffffffffffffffff160361205e576040517f08c379a000000000000000000000000000000000000000000000000000000000815260040161205590614173565b60405180910390fd5b80600560008573ffffffffffffffffffffffffffffffffffffffff1673ffffffffffffffffffffffffffffffffffffffff16815260200190815260200160002060008473ffffffffffffffffffffffffffffffffffffffff1673ffffffffffffffffffffffffffffffffffffffff16815260200190815260200160002060006101000a81548160ff0219169083151502179055508173ffffffffffffffffffffffffffffffffffffffff168373ffffffffffffffffffffffffffffffffffffffff167f17307eab39ab6107e8899845ad3d59bd9653f200f220920489ca2b5937696c318360405161214f9190612bde565b60405180910390a3505050565b612167848484611921565b61217384848484612580565b6121b2576040517f08c379a00000000000000000000000000000000000000000000000000000000081526004016121a990614205565b60405180910390fd5b50505050565b606060405180602001604052806000815250905090565b6060600060016121de84612707565b01905060008167ffffffffffffffff8111156121fd576121fc612de0565b5b6040519080825280601f01601f19166020018201604052801561222f5781602001600182028036833780820191505090505b509050600082602001820190505b600115612292578080600190039150507f3031323334353637383961626364656600000000000000000000000000000000600a86061a8153600a85816122865761228561405b565b5b0494506000850361223d575b819350505050919050565b6122b782826040518060200160405280600081525061285a565b5050565b60006040518060c0016040528088815260200187815260200186815260200185815260200184151581526020018381525090506122f7816128b5565b612336576040517f08c379a000000000000000000000000000000000000000000000000000000000815260040161232d90614271565b60405180910390fd5b808960008a8152602001908152602001600020600082015181600001908161235e9190614428565b5060208201518160010190816123749190614428565b50604082015181600201556060820151816003015560808201518160040160006101000a81548160ff02191690831515021790555060a08201518160050155905050505050505050505050565b600081836123cf91906144fa565b905092915050565b600080821161241b576040517f08c379a0000000000000000000000000000000000000000000000000000000008152600401612412906145a0565b60405180910390fd5b60008060005b8481101561248b578560008281526020019081526020016000206003015442101561247857856000828152602001908152602001600020600501548361246791906144fa565b925081806124749061395f565b9250505b80806124839061395f565b915050612421565b50600081116124cf576040517f08c379a00000000000000000000000000000000000000000000000000000000081526004016124c690614632565b60405180910390fd5b80826124db919061408a565b9250505092915050565b50505050565b50505050565b6000428211612535576040517f08c379a000000000000000000000000000000000000000000000000000000000815260040161252c906146c4565b60405180910390fd5b60006201518042846125479190614027565b612551919061408a565b9050601e8111612574576007811161256b576101f461256f565b6103205b612578565b6103e85b915050919050565b60006125a18473ffffffffffffffffffffffffffffffffffffffff166128ea565b156126fa578373ffffffffffffffffffffffffffffffffffffffff1663150b7a026125ca6115c9565b8786866040518563ffffffff1660e01b81526004016125ec9493929190614739565b6020604051808303816000875af192505050801561262857506040513d601f19601f82011682018060405250810190612625919061479a565b60015b6126aa573d8060008114612658576040519150601f19603f3d011682016040523d82523d6000602084013e61265d565b606091505b5060008151036126a2576040517f08c379a000000000000000000000000000000000000000000000000000000000815260040161269990614205565b60405180910390fd5b805181602001fd5b63150b7a0260e01b7bffffffffffffffffffffffffffffffffffffffffffffffffffffffff1916817bffffffffffffffffffffffffffffffffffffffffffffffffffffffff1916149150506126ff565b600190505b949350505050565b600080600090507a184f03e93ff9f4daa797ed6e38ed64bf6a1f0100000000000000008310612765577a184f03e93ff9f4daa797ed6e38ed64bf6a1f010000000000000000838161275b5761275a61405b565b5b0492506040810190505b6d04ee2d6d415b85acef810000000083106127a2576d04ee2d6d415b85acef810000000083816127985761279761405b565b5b0492506020810190505b662386f26fc1000083106127d157662386f26fc1000083816127c7576127c661405b565b5b0492506010810190505b6305f5e10083106127fa576305f5e10083816127f0576127ef61405b565b5b0492506008810190505b612710831061281f5761271083816128155761281461405b565b5b0492506004810190505b6064831061284257606483816128385761283761405b565b5b0492506002810190505b600a8310612851576001810190505b80915050919050565b612864838361290d565b6128716000848484612580565b6128b0576040517f08c379a00000000000000000000000000000000000000000000000000000000081526004016128a790614205565b60405180910390fd5b505050565b6000808260000151511180156128d057506000826020015151115b80156128e3575081606001518260400151105b9050919050565b6000808273ffffffffffffffffffffffffffffffffffffffff163b119050919050565b600073ffffffffffffffffffffffffffffffffffffffff168273ffffffffffffffffffffffffffffffffffffffff160361297c576040517f08c379a000000000000000000000000000000000000000000000000000000000815260040161297390614813565b60405180910390fd5b61298581611f8c565b156129c5576040517f08c379a00000000000000000000000000000000000000000000000000000000081526004016129bc9061487f565b60405180910390fd5b6129d36000838360016124e5565b6129dc81611f8c565b15612a1c576040517f08c379a0000000000000000000000000000000000000000000000000000000008152600401612a139061487f565b60405180910390fd5b6001600360008473ffffffffffffffffffffffffffffffffffffffff1673ffffffffffffffffffffffffffffffffffffffff16815260200190815260200160002060008282540192505081905550816002600083815260200190815260200160002060006101000a81548173ffffffffffffffffffffffffffffffffffffffff021916908373ffffffffffffffffffffffffffffffffffffffff160217905550808273ffffffffffffffffffffffffffffffffffffffff16600073ffffffffffffffffffffffffffffffffffffffff167fddf252ad1be2c89b69c2b068fc378daa952ba7f163c4a11628f55a4df523b3ef60405160405180910390a4612b266000838360016124eb565b5050565b6000604051905090565b600080fd5b600080fd5b60007fffffffff0000000000000000000000000000000000000000000000000000000082169050919050565b612b7381612b3e565b8114612b7e57600080fd5b50565b600081359050612b9081612b6a565b92915050565b600060208284031215612bac57612bab612b34565b5b6000612bba84828501612b81565b91505092915050565b60008115159050919050565b612bd881612bc3565b82525050565b6000602082019050612bf36000830184612bcf565b92915050565b600081519050919050565b600082825260208201905092915050565b60005b83811015612c33578082015181840152602081019050612c18565b60008484015250505050565b6000601f19601f8301169050919050565b6000612c5b82612bf9565b612c658185612c04565b9350612c75818560208601612c15565b612c7e81612c3f565b840191505092915050565b60006020820190508181036000830152612ca38184612c50565b905092915050565b6000819050919050565b612cbe81612cab565b8114612cc957600080fd5b50565b600081359050612cdb81612cb5565b92915050565b600060208284031215612cf757612cf6612b34565b5b6000612d0584828501612ccc565b91505092915050565b600073ffffffffffffffffffffffffffffffffffffffff82169050919050565b6000612d3982612d0e565b9050919050565b612d4981612d2e565b82525050565b6000602082019050612d646000830184612d40565b92915050565b612d7381612d2e565b8114612d7e57600080fd5b50565b600081359050612d9081612d6a565b92915050565b60008060408385031215612dad57612dac612b34565b5b6000612dbb85828601612d81565b9250506020612dcc85828601612ccc565b9150509250929050565b600080fd5b600080fd5b7f4e487b7100000000000000000000000000000000000000000000000000000000600052604160045260246000fd5b612e1882612c3f565b810181811067ffffffffffffffff82111715612e3757612e36612de0565b5b80604052505050565b6000612e4a612b2a565b9050612e568282612e0f565b919050565b600067ffffffffffffffff821115612e7657612e75612de0565b5b612e7f82612c3f565b9050602081019050919050565b82818337600083830152505050565b6000612eae612ea984612e5b565b612e40565b905082815260208101848484011115612eca57612ec9612ddb565b5b612ed5848285612e8c565b509392505050565b600082601f830112612ef257612ef1612dd6565b5b8135612f02848260208601612e9b565b91505092915050565b600060208284031215612f2157612f20612b34565b5b600082013567ffffffffffffffff811115612f3f57612f3e612b39565b5b612f4b84828501612edd565b91505092915050565b600081519050919050565b600082825260208201905092915050565b6000819050602082019050919050565b612f8981612cab565b82525050565b6000612f9b8383612f80565b60208301905092915050565b6000602082019050919050565b6000612fbf82612f54565b612fc98185612f5f565b9350612fd483612f70565b8060005b83811015613005578151612fec8882612f8f565b9750612ff783612fa7565b925050600181019050612fd8565b5085935050505092915050565b6000602082019050818103600083015261302c8184612fb4565b905092915050565b60008060006060848603121561304d5761304c612b34565b5b600061305b86828701612d81565b935050602061306c86828701612d81565b925050604061307d86828701612ccc565b9150509250925092565b600080fd5b600080fd5b60008083601f8401126130a7576130a6612dd6565b5b8235905067ffffffffffffffff8111156130c4576130c3613087565b5b6020830191508360208202830111156130e0576130df61308c565b5b9250929050565b600080602083850312156130fe576130fd612b34565b5b600083013567ffffffffffffffff81111561311c5761311b612b39565b5b61312885828601613091565b92509250509250929050565b60006020828403121561314a57613149612b34565b5b600061315884828501612d81565b91505092915050565b61316a81612cab565b82525050565b60006020820190506131856000830184613161565b92915050565b600060c08201905081810360008301526131a58189612c50565b905081810360208301526131b98188612c50565b90506131c86040830187613161565b6131d56060830186613161565b6131e26080830185612bcf565b6131ef60a0830184613161565b979650505050505050565b600067ffffffffffffffff82111561321557613214612de0565b5b602082029050602081019050919050565b6000613239613234846131fa565b612e40565b9050808382526020820190506020840283018581111561325c5761325b61308c565b5b835b8181101561328557806132718882612ccc565b84526020840193505060208101905061325e565b5050509392505050565b600082601f8301126132a4576132a3612dd6565b5b81356132b4848260208601613226565b91505092915050565b6000602082840312156132d3576132d2612b34565b5b600082013567ffffffffffffffff8111156132f1576132f0612b39565b5b6132fd8482850161328f565b91505092915050565b61330f81612bc3565b811461331a57600080fd5b50565b60008135905061332c81613306565b92915050565b6000806040838503121561334957613348612b34565b5b600061335785828601612d81565b92505060206133688582860161331d565b9150509250929050565b60006040820190506133876000830185612bcf565b6133946020830184613161565b9392505050565b600067ffffffffffffffff8211156133b6576133b5612de0565b5b6133bf82612c3f565b9050602081019050919050565b60006133df6133da8461339b565b612e40565b9050828152602081018484840111156133fb576133fa612ddb565b5b613406848285612e8c565b509392505050565b600082601f83011261342357613422612dd6565b5b81356134338482602086016133cc565b91505092915050565b6000806000806080858703121561345657613455612b34565b5b600061346487828801612d81565b945050602061347587828801612d81565b935050604061348687828801612ccc565b925050606085013567ffffffffffffffff8111156134a7576134a6612b39565b5b6134b38782880161340e565b91505092959194509250565b60008083601f8401126134d5576134d4612dd6565b5b8235905067ffffffffffffffff8111156134f2576134f1613087565b5b60208301915083600182028301111561350e5761350d61308c565b5b9250929050565b60008060008060008060008060c0898b03121561353557613534612b34565b5b600089013567ffffffffffffffff81111561355357613552612b39565b5b61355f8b828c016134bf565b9850985050602089013567ffffffffffffffff81111561358257613581612b39565b5b61358e8b828c016134bf565b965096505060406135a18b828c01612ccc565b94505060606135b28b828c01612ccc565b93505060806135c38b828c0161331d565b92505060a06135d48b828c01612ccc565b9150509295985092959890939650565b600080604083850312156135fb576135fa612b34565b5b600061360985828601612d81565b925050602061361a85828601612d81565b9150509250929050565b7f4e487b7100000000000000000000000000000000000000000000000000000000600052602260045260246000fd5b6000600282049050600182168061366b57607f821691505b60208210810361367e5761367d613624565b5b50919050565b7f4552433732313a20617070726f76616c20746f2063757272656e74206f776e6560008201527f7200000000000000000000000000000000000000000000000000000000000000602082015250565b60006136e0602183612c04565b91506136eb82613684565b604082019050919050565b6000602082019050818103600083015261370f816136d3565b9050919050565b7f4552433732313a20617070726f76652063616c6c6572206973206e6f7420746f60008201527f6b656e206f776e6572206f7220617070726f76656420666f7220616c6c000000602082015250565b6000613772603d83612c04565b915061377d82613716565b604082019050919050565b600060208201905081810360008301526137a181613765565b9050919050565b7f4552433732313a2063616c6c6572206973206e6f7420746f6b656e206f776e6560008201527f72206f7220617070726f76656400000000000000000000000000000000000000602082015250565b6000613804602d83612c04565b915061380f826137a8565b604082019050919050565b60006020820190508181036000830152613833816137f7565b9050919050565b7f4e487b7100000000000000000000000000000000000000000000000000000000600052603260045260246000fd5b600080fd5b600080fd5b600080fd5b60008235600160c00383360303811261389457613893613869565b5b80830191505092915050565b600080833560016020038436030381126138bd576138bc613869565b5b80840192508235915067ffffffffffffffff8211156138df576138de61386e565b5b6020830192506001820236038313156138fb576138fa613873565b5b509250929050565b60006020828403121561391957613918612b34565b5b60006139278482850161331d565b91505092915050565b7f4e487b7100000000000000000000000000000000000000000000000000000000600052601160045260246000fd5b600061396a82612cab565b91507fffffffffffffffffffffffffffffffffffffffffffffffffffffffffffffffff820361399c5761399b613930565b5b600182019050919050565b7f4552433732313a20696e76616c696420746f6b656e2049440000000000000000600082015250565b60006139dd601883612c04565b91506139e8826139a7565b602082019050919050565b60006020820190508181036000830152613a0c816139d0565b9050919050565b7f4552433732313a2061646472657373207a65726f206973206e6f74206120766160008201527f6c6964206f776e65720000000000000000000000000000000000000000000000602082015250565b6000613a6f602983612c04565b9150613a7a82613a13565b604082019050919050565b60006020820190508181036000830152613a9e81613a62565b9050919050565b7f50726f6475637420646f6573206e6f742065786973742e000000000000000000600082015250565b6000613adb601783612c04565b9150613ae682613aa5565b602082019050919050565b60006020820190508181036000830152613b0a81613ace565b9050919050565b8082525050565b613b2181612cab565b82525050565b6000604082019050613b3c6000830185613b11565b613b496020830184613b18565b9392505050565b600081519050613b5f81612cb5565b92915050565b600060208284031215613b7b57613b7a612b34565b5b6000613b8984828501613b50565b91505092915050565b600081905092915050565b6000613ba882612bf9565b613bb28185613b92565b9350613bc2818560208601612c15565b80840191505092915050565b6000613bda8285613b9d565b9150613be68284613b9d565b91508190509392505050565b6000602082019050613c076000830184613b11565b92915050565b6000613c198385612c04565b9350613c26838584612e8c565b613c2f83612c3f565b840190509392505050565b600060c0820190508181036000830152613c55818a8c613c0d565b90508181036020830152613c6a81888a613c0d565b9050613c796040830187613161565b613c866060830186613161565b613c936080830185612bcf565b613ca060a0830184613161565b9998505050505050505050565b7f4f776e61626c653a206e6577206f776e657220697320746865207a65726f206160008201527f6464726573730000000000000000000000000000000000000000000000000000602082015250565b6000613d09602683612c04565b9150613d1482613cad565b604082019050919050565b60006020820190508181036000830152613d3881613cfc565b9050919050565b7f4d616e756661637475726572206e616d652063616e6e6f7420626520656d707460008201527f7900000000000000000000000000000000000000000000000000000000000000602082015250565b6000613d9b602183612c04565b9150613da682613d3f565b604082019050919050565b60006020820190508181036000830152613dca81613d8e565b9050919050565b6000613ddd8284613b9d565b915081905092915050565b60008190508160005260206000209050919050565b60008154613e0a81613653565b613e148186613b92565b94506001821660008114613e2f5760018114613e4457613e77565b60ff1983168652811515820286019350613e77565b613e4d85613de8565b60005b83811015613e6f57815481890152600182019150602081019050613e50565b838801955050505b50505092915050565b6000613e8c8284613dfd565b915081905092915050565b7f4552433732313a207472616e736665722066726f6d20696e636f72726563742060008201527f6f776e6572000000000000000000000000000000000000000000000000000000602082015250565b6000613ef3602583612c04565b9150613efe82613e97565b604082019050919050565b60006020820190508181036000830152613f2281613ee6565b9050919050565b7f4552433732313a207472616e7366657220746f20746865207a65726f2061646460008201527f7265737300000000000000000000000000000000000000000000000000000000602082015250565b6000613f85602483612c04565b9150613f9082613f29565b604082019050919050565b60006020820190508181036000830152613fb481613f78565b9050919050565b7f5468726573686f6c64206d75737420626520706f736974697665000000000000600082015250565b6000613ff1601a83612c04565b9150613ffc82613fbb565b602082019050919050565b6000602082019050818103600083015261402081613fe4565b9050919050565b600061403282612cab565b915061403d83612cab565b925082820390508181111561405557614054613930565b5b92915050565b7f4e487b7100000000000000000000000000000000000000000000000000000000600052601260045260246000fd5b600061409582612cab565b91506140a083612cab565b9250826140b0576140af61405b565b5b828204905092915050565b7f4f776e61626c653a2063616c6c6572206973206e6f7420746865206f776e6572600082015250565b60006140f1602083612c04565b91506140fc826140bb565b602082019050919050565b60006020820190508181036000830152614120816140e4565b9050919050565b7f4552433732313a20617070726f766520746f2063616c6c657200000000000000600082015250565b600061415d601983612c04565b915061416882614127565b602082019050919050565b6000602082019050818103600083015261418c81614150565b9050919050565b7f4552433732313a207472616e7366657220746f206e6f6e20455243373231526560008201527f63656976657220696d706c656d656e7465720000000000000000000000000000602082015250565b60006141ef603283612c04565b91506141fa82614193565b604082019050919050565b6000602082019050818103600083015261421e816141e2565b9050919050565b7f496e76616c69642070726f647563740000000000000000000000000000000000600082015250565b600061425b600f83612c04565b915061426682614225565b602082019050919050565b6000602082019050818103600083015261428a8161424e565b9050919050565b60006020601f8301049050919050565b600082821b905092915050565b6000600883026142de7fffffffffffffffffffffffffffffffffffffffffffffffffffffffffffffffff826142a1565b6142e886836142a1565b95508019841693508086168417925050509392505050565b6000819050919050565b600061432561432061431b84612cab565b614300565b612cab565b9050919050565b6000819050919050565b61433f8361430a565b61435361434b8261432c565b8484546142ae565b825550505050565b600090565b61436861435b565b614373818484614336565b505050565b5b818110156143975761438c600082614360565b600181019050614379565b5050565b601f8211156143dc576143ad81613de8565b6143b684614291565b810160208510156143c5578190505b6143d96143d185614291565b830182614378565b50505b505050565b600082821c905092915050565b60006143ff600019846008026143e1565b1980831691505092915050565b600061441883836143ee565b9150826002028217905092915050565b61443182612bf9565b67ffffffffffffffff81111561444a57614449612de0565b5b6144548254613653565b61445f82828561439b565b600060209050601f8311600181146144925760008415614480578287015190505b61448a858261440c565b8655506144f2565b601f1984166144a086613de8565b60005b828110156144c8578489015182556001820191506020850194506020810190506144a3565b868310156144e557848901516144e1601f8916826143ee565b8355505b6001600288020188555050505b505050505050565b600061450582612cab565b915061451083612cab565b925082820190508082111561452857614527613930565b5b92915050565b7f4e6f2070726f647563747320617661696c61626c6520666f7220616e616c797360008201527f69732e0000000000000000000000000000000000000000000000000000000000602082015250565b600061458a602383612c04565b91506145958261452e565b604082019050919050565b600060208201905081810360008301526145b98161457d565b9050919050565b7f4e6f2076616c69642070726f647563747320617661696c61626c6520666f722060008201527f616e616c797369732e0000000000000000000000000000000000000000000000602082015250565b600061461c602983612c04565b9150614627826145c0565b604082019050919050565b6000602082019050818103600083015261464b8161460f565b9050919050565b7f4578706972792064617465206d75737420626520696e2074686520667574757260008201527f6500000000000000000000000000000000000000000000000000000000000000602082015250565b60006146ae602183612c04565b91506146b982614652565b604082019050919050565b600060208201905081810360008301526146dd816146a1565b9050919050565b600081519050919050565b600082825260208201905092915050565b600061470b826146e4565b61471581856146ef565b9350614725818560208601612c15565b61472e81612c3f565b840191505092915050565b600060808201905061474e6000830187612d40565b61475b6020830186612d40565b6147686040830185613161565b818103606083015261477a8184614700565b905095945050505050565b60008151905061479481612b6a565b92915050565b6000602082840312156147b0576147af612b34565b5b60006147be84828501614785565b91505092915050565b7f4552433732313a206d696e7420746f20746865207a65726f2061646472657373600082015250565b60006147fd602083612c04565b9150614808826147c7565b602082019050919050565b6000602082019050818103600083015261482c816147f0565b9050919050565b7f4552433732313a20746f6b656e20616c7265616479206d696e74656400000000600082015250565b6000614869601c83612c04565b915061487482614833565b602082019050919050565b600060208201905081810360008301526148988161485c565b905091905056fe4d616e756661637475726520646174652073686f756c64206265206561726c696572207468616e2065787069727920646174654d616e756661637475726572206e616d652073686f756c64206e6f7420626520656d707479a26469706673582212206bfcc578c5c53614246e50bf213bb8dd7cbfffab1eb814d01ed78d800974a5dd64736f6c63430008130033",
  "immutableReferences": {},
  "source": "// SPDX-License-Identifier: MIT\r\npragma solidity ^0.8.0;\r\n\r\nimport \"@openzeppelin/contracts/token/ERC721/ERC721.sol\";\r\nimport \"@openzeppelin/contracts/access/Ownable.sol\";\r\nimport \"@openzeppelin/contracts/utils/math/SafeMath.sol\";\r\nimport \"./ProductLib.sol\";\r\nimport \"./PriceLib.sol\";\r\nimport \"./QueryLib.sol\";\r\nimport \"./ProductOperationsLib.sol\";\r\nimport \"./DiscountLib.sol\";\r\n\r\n/**\r\n * @title Factory\r\n * @dev This contract creates ERC721 tokens representing products. It stores product details and allows the owner to create new products.\r\n */\r\ncontract Factory is ERC721, Ownable {\r\n    using SafeMath for uint256;\r\n    using ProductLib for ProductLib.Product;\r\n    using PriceLib for ProductLib.Product;\r\n    using QueryLib for mapping(uint256 => ProductLib.Product);\r\n    using ProductOperationsLib for mapping(uint256 => ProductLib.Product);\r\n    using DiscountLib for DiscountLib.DiscountData;\r\n\r\n    uint256 public tokenCounter;\r\n    mapping(uint256 => ProductLib.Product) public products;\r\n    DiscountLib.DiscountData public discountData;\r\n\r\n    // Constants\r\n    string constant EMPTY_MANUFACTURER = \"Manufacturer name should not be empty\";\r\n    string constant EMPTY_NAME = \"Product name should not be empty\"; \r\n    string constant INVALID_DATES = \"Manufacture date should be earlier than expiry date\";\r\n    string constant NO_PRODUCTS = \"No products available for analysis.\";\r\n    string constant NO_VALID_PRODUCTS = \"No valid products available for analysis.\";\r\n\r\n    constructor() ERC721(\"Factory\", \"FACTORY\") {\r\n        tokenCounter = 0;\r\n    }\r\n\r\n    event ProductCreated(uint256 indexed tokenId, string manufacturer, string name, uint256 manufactureDate, uint256 expiryDate, bool isQualityProduct, uint256 price);\r\n\r\n    /**\r\n    * @dev Creates a new product.\r\n    * @param productManufacturer The manufacturer of the product. Must not be empty.\r\n    * @param productName The name of the product. Must not be empty. \r\n    * @param manufactureDate The date the product was manufactured. Must be before the expiryDate.\r\n    * @param expiryDate The expiry date of the product. Must be after the manufactureDate.\r\n    * @param isQualityProduct Whether the product is of high quality or not.\r\n    * @param price The price of the product.\r\n    */\r\n    function createProduct(\r\n        string calldata productManufacturer,\r\n        string calldata productName,\r\n        uint256 manufactureDate,\r\n        uint256 expiryDate,\r\n        bool isQualityProduct,\r\n        uint256 price\r\n    ) public onlyOwner {\r\n        require(bytes(productManufacturer).length > 0, EMPTY_MANUFACTURER);\r\n        require(bytes(productName).length > 0, EMPTY_NAME);\r\n        require(manufactureDate < expiryDate, INVALID_DATES);\r\n\r\n        uint256 tokenId = tokenCounter;\r\n        _safeMint(msg.sender, tokenId);\r\n\r\n        products.createProduct(tokenCounter, productManufacturer, productName, manufactureDate, expiryDate, isQualityProduct, price);\r\n        tokenCounter = tokenCounter.add(1);\r\n\r\n        emit ProductCreated(tokenId, productManufacturer, productName, manufactureDate, expiryDate, isQualityProduct, price);\r\n    }\r\n\r\n    /**\r\n    * @dev Creates multiple new products in a batch.\r\n    * @param _products An array of Product structs containing the details of the products to create.\r\n    */\r\n    function createProductsBatch(ProductLib.Product[] calldata _products) public onlyOwner {\r\n        uint256 productsLength = _products.length;\r\n        for (uint256 i = 0; i < productsLength; i++) {\r\n            ProductLib.Product calldata newProduct = _products[i];\r\n            createProduct(\r\n                newProduct.manufacturer,\r\n                newProduct.name,\r\n                newProduct.manufactureDate,\r\n                newProduct.expiryDate,\r\n                newProduct.isQualityProduct,\r\n                newProduct.price\r\n            );\r\n        }\r\n    }\r\n\r\n    /**\r\n    * @dev Updates the price of a product. Calculates the discounted price based on the discount percentage \r\n    * set and updates the product's price.\r\n    * @param productTokenId The ID of the product whose price is to be updated.\r\n    */\r\n    function updatePrice(uint256 productTokenId) public onlyOwner {\r\n        require(_exists(productTokenId), \"Product does not exist.\");\r\n        uint256 originalPrice = products[productTokenId].updatePrice();\r\n        uint256 discountedPrice = discountData.calculateDiscountedPrice(originalPrice);\r\n        products[productTokenId].price = discountedPrice;\r\n    }\r\n\r\n    /**\r\n     * @dev Updates the prices of multiple products in a batch. Calculates the discounted price for each product \r\n     * based on the discount percentage set and updates the product's price.\r\n    * @param productTokenIds An array of IDs of the products whose prices are to be updated.\r\n    */\r\n    function updatePricesBatch(uint256[] memory productTokenIds) public onlyOwner {\r\n        uint256 productTokenIdsLength = productTokenIds.length;\r\n        for (uint256 i = 0; i < productTokenIdsLength; i++) {\r\n            uint256 productTokenId = productTokenIds[i];\r\n            require(_exists(productTokenId), \"Product does not exist.\");\r\n            uint256 originalPrice = products[productTokenId].updatePrice();\r\n            uint256 discountedPrice = discountData.calculateDiscountedPrice(originalPrice);\r\n            products[productTokenId].price = discountedPrice;\r\n        }\r\n    }\r\n\r\n    function calculateAveragePrice() public view returns (uint256) {\r\n        return products.calculateAveragePrice(tokenCounter);\r\n    }\r\n\r\n    function getExpiringProducts(uint256 expiryThresholdInDays) public view returns (uint256[] memory) {\r\n        return products.getExpiringProducts(tokenCounter, expiryThresholdInDays);\r\n    }\r\n\r\n    function getProductsByManufacturer(string memory productManufacturer) public view returns (uint256[] memory) {\r\n        return products.getProductsByManufacturer(tokenCounter, productManufacturer);\r\n    }\r\n\r\n    function setDiscount(uint256 percentage) public onlyOwner {\r\n        discountData.setDiscount(percentage);\r\n    }\r\n\r\n    function cancelDiscount() public onlyOwner {\r\n        discountData.cancelDiscount();\r\n    }\r\n}\r\n\r\n",
  "sourcePath": "C:\\Users\\cheny\\Documents\\GitHub\\smart-expiring-product-management\\contracts\\Main.sol",
  "compiler": {
    "name": "solc",
    "version": "0.8.19+commit.7dd6d404.Emscripten.clang"
  },
  "schemaVersion": "3.4.13",
  "updatedAt": "2023-05-05T14:06:09.791Z",
  "devdoc": {
    "details": "This contract creates ERC721 tokens representing products. It stores product details and allows the owner to create new products.",
    "events": {
      "Approval(address,address,uint256)": {
        "details": "Emitted when `owner` enables `approved` to manage the `tokenId` token."
      },
      "ApprovalForAll(address,address,bool)": {
        "details": "Emitted when `owner` enables or disables (`approved`) `operator` to manage all of its assets."
      },
      "Transfer(address,address,uint256)": {
        "details": "Emitted when `tokenId` token is transferred from `from` to `to`."
      }
    },
    "kind": "dev",
    "methods": {
      "approve(address,uint256)": {
        "details": "See {IERC721-approve}."
      },
      "balanceOf(address)": {
        "details": "See {IERC721-balanceOf}."
      },
      "createProduct(string,string,uint256,uint256,bool,uint256)": {
        "details": "Creates a new product.",
        "params": {
          "expiryDate": "The expiry date of the product. Must be after the manufactureDate.",
          "isQualityProduct": "Whether the product is of high quality or not.",
          "manufactureDate": "The date the product was manufactured. Must be before the expiryDate.",
          "price": "The price of the product.",
          "productManufacturer": "The manufacturer of the product. Must not be empty.",
          "productName": "The name of the product. Must not be empty. "
        }
      },
      "createProductsBatch((string,string,uint256,uint256,bool,uint256)[])": {
        "details": "Creates multiple new products in a batch.",
        "params": {
          "_products": "An array of Product structs containing the details of the products to create."
        }
      },
      "getApproved(uint256)": {
        "details": "See {IERC721-getApproved}."
      },
      "isApprovedForAll(address,address)": {
        "details": "See {IERC721-isApprovedForAll}."
      },
      "name()": {
        "details": "See {IERC721Metadata-name}."
      },
      "owner()": {
        "details": "Returns the address of the current owner."
      },
      "ownerOf(uint256)": {
        "details": "See {IERC721-ownerOf}."
      },
      "renounceOwnership()": {
        "details": "Leaves the contract without owner. It will not be possible to call `onlyOwner` functions anymore. Can only be called by the current owner. NOTE: Renouncing ownership will leave the contract without an owner, thereby removing any functionality that is only available to the owner."
      },
      "safeTransferFrom(address,address,uint256)": {
        "details": "See {IERC721-safeTransferFrom}."
      },
      "safeTransferFrom(address,address,uint256,bytes)": {
        "details": "See {IERC721-safeTransferFrom}."
      },
      "setApprovalForAll(address,bool)": {
        "details": "See {IERC721-setApprovalForAll}."
      },
      "supportsInterface(bytes4)": {
        "details": "See {IERC165-supportsInterface}."
      },
      "symbol()": {
        "details": "See {IERC721Metadata-symbol}."
      },
      "tokenURI(uint256)": {
        "details": "See {IERC721Metadata-tokenURI}."
      },
      "transferFrom(address,address,uint256)": {
        "details": "See {IERC721-transferFrom}."
      },
      "transferOwnership(address)": {
        "details": "Transfers ownership of the contract to a new account (`newOwner`). Can only be called by the current owner."
      },
      "updatePrice(uint256)": {
        "details": "Updates the price of a product. Calculates the discounted price based on the discount percentage  set and updates the product's price.",
        "params": {
          "productTokenId": "The ID of the product whose price is to be updated."
        }
      },
      "updatePricesBatch(uint256[])": {
        "details": "Updates the prices of multiple products in a batch. Calculates the discounted price for each product  based on the discount percentage set and updates the product's price.",
        "params": {
          "productTokenIds": "An array of IDs of the products whose prices are to be updated."
        }
      }
    },
    "title": "Factory",
    "version": 1
  },
  "userdoc": {
    "kind": "user",
    "methods": {},
    "version": 1
  }
}