{
  "contractName": "FactoryTest2",
  "abi": [
    {
      "inputs": [],
      "stateMutability": "nonpayable",
      "type": "constructor"
    },
    {
      "anonymous": false,
      "inputs": [
        {
          "indexed": true,
          "internalType": "address",
          "name": "owner",
          "type": "address"
        },
        {
          "indexed": true,
          "internalType": "address",
          "name": "approved",
          "type": "address"
        },
        {
          "indexed": true,
          "internalType": "uint256",
          "name": "tokenId",
          "type": "uint256"
        }
      ],
      "name": "Approval",
      "type": "event"
    },
    {
      "anonymous": false,
      "inputs": [
        {
          "indexed": true,
          "internalType": "address",
          "name": "owner",
          "type": "address"
        },
        {
          "indexed": true,
          "internalType": "address",
          "name": "operator",
          "type": "address"
        },
        {
          "indexed": false,
          "internalType": "bool",
          "name": "approved",
          "type": "bool"
        }
      ],
      "name": "ApprovalForAll",
      "type": "event"
    },
    {
      "anonymous": false,
      "inputs": [
        {
          "indexed": true,
          "internalType": "address",
          "name": "previousOwner",
          "type": "address"
        },
        {
          "indexed": true,
          "internalType": "address",
          "name": "newOwner",
          "type": "address"
        }
      ],
      "name": "OwnershipTransferred",
      "type": "event"
    },
    {
      "anonymous": false,
      "inputs": [
        {
          "indexed": true,
          "internalType": "uint256",
          "name": "tokenId",
          "type": "uint256"
        },
        {
          "indexed": false,
          "internalType": "string",
          "name": "manufacturer",
          "type": "string"
        },
        {
          "indexed": false,
          "internalType": "string",
          "name": "name",
          "type": "string"
        },
        {
          "indexed": false,
          "internalType": "uint256",
          "name": "manufactureDate",
          "type": "uint256"
        },
        {
          "indexed": false,
          "internalType": "uint256",
          "name": "expiryDate",
          "type": "uint256"
        },
        {
          "indexed": false,
          "internalType": "bool",
          "name": "isQualityProduct",
          "type": "bool"
        },
        {
          "indexed": false,
          "internalType": "uint256",
          "name": "price",
          "type": "uint256"
        }
      ],
      "name": "ProductCreated",
      "type": "event"
    },
    {
      "anonymous": false,
      "inputs": [
        {
          "indexed": true,
          "internalType": "address",
          "name": "from",
          "type": "address"
        },
        {
          "indexed": true,
          "internalType": "address",
          "name": "to",
          "type": "address"
        },
        {
          "indexed": true,
          "internalType": "uint256",
          "name": "tokenId",
          "type": "uint256"
        }
      ],
      "name": "Transfer",
      "type": "event"
    },
    {
      "inputs": [
        {
          "internalType": "address",
          "name": "to",
          "type": "address"
        },
        {
          "internalType": "uint256",
          "name": "tokenId",
          "type": "uint256"
        }
      ],
      "name": "approve",
      "outputs": [],
      "stateMutability": "nonpayable",
      "type": "function"
    },
    {
      "inputs": [
        {
          "internalType": "address",
          "name": "owner",
          "type": "address"
        }
      ],
      "name": "balanceOf",
      "outputs": [
        {
          "internalType": "uint256",
          "name": "",
          "type": "uint256"
        }
      ],
      "stateMutability": "view",
      "type": "function"
    },
    {
      "inputs": [
        {
          "internalType": "uint256",
          "name": "tokenId",
          "type": "uint256"
        }
      ],
      "name": "getApproved",
      "outputs": [
        {
          "internalType": "address",
          "name": "",
          "type": "address"
        }
      ],
      "stateMutability": "view",
      "type": "function"
    },
    {
      "inputs": [
        {
          "internalType": "address",
          "name": "owner",
          "type": "address"
        },
        {
          "internalType": "address",
          "name": "operator",
          "type": "address"
        }
      ],
      "name": "isApprovedForAll",
      "outputs": [
        {
          "internalType": "bool",
          "name": "",
          "type": "bool"
        }
      ],
      "stateMutability": "view",
      "type": "function"
    },
    {
      "inputs": [],
      "name": "name",
      "outputs": [
        {
          "internalType": "string",
          "name": "",
          "type": "string"
        }
      ],
      "stateMutability": "view",
      "type": "function"
    },
    {
      "inputs": [],
      "name": "owner",
      "outputs": [
        {
          "internalType": "address",
          "name": "",
          "type": "address"
        }
      ],
      "stateMutability": "view",
      "type": "function"
    },
    {
      "inputs": [
        {
          "internalType": "uint256",
          "name": "tokenId",
          "type": "uint256"
        }
      ],
      "name": "ownerOf",
      "outputs": [
        {
          "internalType": "address",
          "name": "",
          "type": "address"
        }
      ],
      "stateMutability": "view",
      "type": "function"
    },
    {
      "inputs": [
        {
          "internalType": "uint256",
          "name": "",
          "type": "uint256"
        }
      ],
      "name": "products",
      "outputs": [
        {
          "internalType": "string",
          "name": "name",
          "type": "string"
        },
        {
          "internalType": "string",
          "name": "manufacturer",
          "type": "string"
        },
        {
          "internalType": "uint256",
          "name": "manufactureDate",
          "type": "uint256"
        },
        {
          "internalType": "uint256",
          "name": "expiryDate",
          "type": "uint256"
        },
        {
          "internalType": "bool",
          "name": "isQualityProduct",
          "type": "bool"
        },
        {
          "internalType": "uint256",
          "name": "price",
          "type": "uint256"
        }
      ],
      "stateMutability": "view",
      "type": "function"
    },
    {
      "inputs": [],
      "name": "renounceOwnership",
      "outputs": [],
      "stateMutability": "nonpayable",
      "type": "function"
    },
    {
      "inputs": [
        {
          "internalType": "address",
          "name": "from",
          "type": "address"
        },
        {
          "internalType": "address",
          "name": "to",
          "type": "address"
        },
        {
          "internalType": "uint256",
          "name": "tokenId",
          "type": "uint256"
        }
      ],
      "name": "safeTransferFrom",
      "outputs": [],
      "stateMutability": "nonpayable",
      "type": "function"
    },
    {
      "inputs": [
        {
          "internalType": "address",
          "name": "from",
          "type": "address"
        },
        {
          "internalType": "address",
          "name": "to",
          "type": "address"
        },
        {
          "internalType": "uint256",
          "name": "tokenId",
          "type": "uint256"
        },
        {
          "internalType": "bytes",
          "name": "data",
          "type": "bytes"
        }
      ],
      "name": "safeTransferFrom",
      "outputs": [],
      "stateMutability": "nonpayable",
      "type": "function"
    },
    {
      "inputs": [
        {
          "internalType": "address",
          "name": "operator",
          "type": "address"
        },
        {
          "internalType": "bool",
          "name": "approved",
          "type": "bool"
        }
      ],
      "name": "setApprovalForAll",
      "outputs": [],
      "stateMutability": "nonpayable",
      "type": "function"
    },
    {
      "inputs": [
        {
          "internalType": "bytes4",
          "name": "interfaceId",
          "type": "bytes4"
        }
      ],
      "name": "supportsInterface",
      "outputs": [
        {
          "internalType": "bool",
          "name": "",
          "type": "bool"
        }
      ],
      "stateMutability": "view",
      "type": "function"
    },
    {
      "inputs": [],
      "name": "symbol",
      "outputs": [
        {
          "internalType": "string",
          "name": "",
          "type": "string"
        }
      ],
      "stateMutability": "view",
      "type": "function"
    },
    {
      "inputs": [],
      "name": "tokenCounter",
      "outputs": [
        {
          "internalType": "uint256",
          "name": "",
          "type": "uint256"
        }
      ],
      "stateMutability": "view",
      "type": "function"
    },
    {
      "inputs": [
        {
          "internalType": "uint256",
          "name": "tokenId",
          "type": "uint256"
        }
      ],
      "name": "tokenURI",
      "outputs": [
        {
          "internalType": "string",
          "name": "",
          "type": "string"
        }
      ],
      "stateMutability": "view",
      "type": "function"
    },
    {
      "inputs": [
        {
          "internalType": "address",
          "name": "from",
          "type": "address"
        },
        {
          "internalType": "address",
          "name": "to",
          "type": "address"
        },
        {
          "internalType": "uint256",
          "name": "tokenId",
          "type": "uint256"
        }
      ],
      "name": "transferFrom",
      "outputs": [],
      "stateMutability": "nonpayable",
      "type": "function"
    },
    {
      "inputs": [
        {
          "internalType": "address",
          "name": "newOwner",
          "type": "address"
        }
      ],
      "name": "transferOwnership",
      "outputs": [],
      "stateMutability": "nonpayable",
      "type": "function"
    },
    {
      "inputs": [
        {
          "internalType": "string",
          "name": "_manufacturer",
          "type": "string"
        },
        {
          "internalType": "string",
          "name": "_name",
          "type": "string"
        },
        {
          "internalType": "uint256",
          "name": "_manufactureDate",
          "type": "uint256"
        },
        {
          "internalType": "uint256",
          "name": "_expiryDate",
          "type": "uint256"
        },
        {
          "internalType": "bool",
          "name": "_isQualityProduct",
          "type": "bool"
        },
        {
          "internalType": "uint256",
          "name": "price",
          "type": "uint256"
        }
      ],
      "name": "createProduct",
      "outputs": [],
      "stateMutability": "nonpayable",
      "type": "function"
    },
    {
      "inputs": [
        {
          "components": [
            {
              "internalType": "string",
              "name": "name",
              "type": "string"
            },
            {
              "internalType": "string",
              "name": "manufacturer",
              "type": "string"
            },
            {
              "internalType": "uint256",
              "name": "manufactureDate",
              "type": "uint256"
            },
            {
              "internalType": "uint256",
              "name": "expiryDate",
              "type": "uint256"
            },
            {
              "internalType": "bool",
              "name": "isQualityProduct",
              "type": "bool"
            },
            {
              "internalType": "uint256",
              "name": "price",
              "type": "uint256"
            }
          ],
          "internalType": "struct FactoryTest2.Product[]",
          "name": "_products",
          "type": "tuple[]"
        }
      ],
      "name": "createProductsBatch",
      "outputs": [],
      "stateMutability": "nonpayable",
      "type": "function"
    },
    {
      "inputs": [
        {
          "internalType": "uint256",
          "name": "_tokenId",
          "type": "uint256"
        }
      ],
      "name": "updatePrice",
      "outputs": [],
      "stateMutability": "nonpayable",
      "type": "function"
    },
    {
      "inputs": [
        {
          "internalType": "uint256[]",
          "name": "_tokenIds",
          "type": "uint256[]"
        }
      ],
      "name": "updatePricesBatch",
      "outputs": [],
      "stateMutability": "nonpayable",
      "type": "function"
    },
    {
      "inputs": [
        {
          "internalType": "uint256",
          "name": "_tokenId",
          "type": "uint256"
        }
      ],
      "name": "isProductExpired",
      "outputs": [
        {
          "internalType": "bool",
          "name": "",
          "type": "bool"
        }
      ],
      "stateMutability": "view",
      "type": "function"
    },
    {
      "inputs": [],
      "name": "calculateAveragePrice",
      "outputs": [
        {
          "internalType": "uint256",
          "name": "",
          "type": "uint256"
        }
      ],
      "stateMutability": "view",
      "type": "function"
    },
    {
      "inputs": [
        {
          "internalType": "uint256",
          "name": "_daysThreshold",
          "type": "uint256"
        }
      ],
      "name": "getExpiringProducts",
      "outputs": [
        {
          "internalType": "uint256[]",
          "name": "",
          "type": "uint256[]"
        }
      ],
      "stateMutability": "view",
      "type": "function"
    },
    {
      "inputs": [
        {
          "internalType": "string",
          "name": "_manufacturer",
          "type": "string"
        }
      ],
      "name": "getProductsByManufacturer",
      "outputs": [
        {
          "internalType": "uint256[]",
          "name": "",
          "type": "uint256[]"
        }
      ],
      "stateMutability": "view",
      "type": "function"
    }
  ],
  "bytecode": "0x60806040523480156200001157600080fd5b506040518060400160405280600781526020017f466163746f7279000000000000000000000000000000000000000000000000008152506040518060400160405280600781526020017f464143544f52590000000000000000000000000000000000000000000000000081525081600090816200008f91906200041a565b508060019081620000a191906200041a565b505050620000c4620000b8620000d260201b60201c565b620000da60201b60201c565b600060078190555062000501565b600033905090565b6000600660009054906101000a900473ffffffffffffffffffffffffffffffffffffffff16905081600660006101000a81548173ffffffffffffffffffffffffffffffffffffffff021916908373ffffffffffffffffffffffffffffffffffffffff1602179055508173ffffffffffffffffffffffffffffffffffffffff168173ffffffffffffffffffffffffffffffffffffffff167f8be0079c531659141344cd1fd0a4f28419497f9722a3daafe3b4186f6b6457e060405160405180910390a35050565b600081519050919050565b7f4e487b7100000000000000000000000000000000000000000000000000000000600052604160045260246000fd5b7f4e487b7100000000000000000000000000000000000000000000000000000000600052602260045260246000fd5b600060028204905060018216806200022257607f821691505b602082108103620002385762000237620001da565b5b50919050565b60008190508160005260206000209050919050565b60006020601f8301049050919050565b600082821b905092915050565b600060088302620002a27fffffffffffffffffffffffffffffffffffffffffffffffffffffffffffffffff8262000263565b620002ae868362000263565b95508019841693508086168417925050509392505050565b6000819050919050565b6000819050919050565b6000620002fb620002f5620002ef84620002c6565b620002d0565b620002c6565b9050919050565b6000819050919050565b6200031783620002da565b6200032f620003268262000302565b84845462000270565b825550505050565b600090565b6200034662000337565b620003538184846200030c565b505050565b5b818110156200037b576200036f6000826200033c565b60018101905062000359565b5050565b601f821115620003ca5762000394816200023e565b6200039f8462000253565b81016020851015620003af578190505b620003c7620003be8562000253565b83018262000358565b50505b505050565b600082821c905092915050565b6000620003ef60001984600802620003cf565b1980831691505092915050565b60006200040a8383620003dc565b9150826002028217905092915050565b6200042582620001a0565b67ffffffffffffffff811115620004415762000440620001ab565b5b6200044d825462000209565b6200045a8282856200037f565b600060209050601f8311600181146200049257600084156200047d578287015190505b620004898582620003fc565b865550620004f9565b601f198416620004a2866200023e565b60005b82811015620004cc57848901518255600182019150602085019450602081019050620004a5565b86831015620004ec5784890151620004e8601f891682620003dc565b8355505b6001600288020188555050505b505050505050565b61430680620005116000396000f3fe608060405234801561001057600080fd5b506004361061018e5760003560e01c80637acc0b20116100de578063b88d4fde11610097578063d4aaf79711610071578063d4aaf797146104aa578063e985e9c5146104c6578063ea9ba5d1146104f6578063f2fde38b146105145761018e565b8063b88d4fde14610440578063c87b56dd1461045c578063d082e3811461048c5761018e565b80637acc0b201461037b578063869892b1146103b05780638d6cc56d146103cc5780638da5cb5b146103e857806395d89b4114610406578063a22cb465146104245761018e565b80632e1ffb941161014b5780636102b37e116101255780636102b37e146102e15780636352211e1461031157806370a0823114610341578063715018a6146103715761018e565b80632e1ffb941461027957806342842e0e146102a9578063493b26be146102c55761018e565b806301ffc9a71461019357806306fdde03146101c3578063081812fc146101e1578063095ea7b3146102115780631e6ecae41461022d57806323b872dd1461025d575b600080fd5b6101ad60048036038101906101a89190612761565b610530565b6040516101ba91906127a9565b60405180910390f35b6101cb610612565b6040516101d89190612854565b60405180910390f35b6101fb60048036038101906101f691906128ac565b6106a4565b604051610208919061291a565b60405180910390f35b61022b60048036038101906102269190612961565b6106ea565b005b61024760048036038101906102429190612ad6565b610801565b6040516102549190612bdd565b60405180910390f35b61027760048036038101906102729190612bff565b6109c8565b005b610293600480360381019061028e91906128ac565b610a28565b6040516102a09190612bdd565b60405180910390f35b6102c360048036038101906102be9190612bff565b610be0565b005b6102df60048036038101906102da9190612cb2565b610c00565b005b6102fb60048036038101906102f691906128ac565b610ca7565b60405161030891906127a9565b60405180910390f35b61032b600480360381019061032691906128ac565b610d18565b604051610338919061291a565b60405180910390f35b61035b60048036038101906103569190612cff565b610d9e565b6040516103689190612d3b565b60405180910390f35b610379610e55565b005b610395600480360381019061039091906128ac565b610e69565b6040516103a796959493929190612d56565b60405180910390f35b6103ca60048036038101906103c59190612e1b565b610fc2565b005b6103e660048036038101906103e191906128ac565b611096565b005b6103f0611122565b6040516103fd919061291a565b60405180910390f35b61040e61114c565b60405161041b9190612854565b60405180910390f35b61043e60048036038101906104399190612e94565b6111de565b005b61045a60048036038101906104559190612f75565b6111f4565b005b610476600480360381019061047191906128ac565b611256565b6040516104839190612854565b60405180910390f35b6104946112be565b6040516104a19190612d3b565b60405180910390f35b6104c460048036038101906104bf919061304e565b6112c4565b005b6104e060048036038101906104db919061311d565b61154f565b6040516104ed91906127a9565b60405180910390f35b6104fe6115e3565b60405161050b9190612d3b565b60405180910390f35b61052e60048036038101906105299190612cff565b6116fa565b005b60007f80ac58cd000000000000000000000000000000000000000000000000000000007bffffffffffffffffffffffffffffffffffffffffffffffffffffffff1916827bffffffffffffffffffffffffffffffffffffffffffffffffffffffff191614806105fb57507f5b5e139f000000000000000000000000000000000000000000000000000000007bffffffffffffffffffffffffffffffffffffffffffffffffffffffff1916827bffffffffffffffffffffffffffffffffffffffffffffffffffffffff1916145b8061060b575061060a8261177d565b5b9050919050565b6060600080546106219061318c565b80601f016020809104026020016040519081016040528092919081815260200182805461064d9061318c565b801561069a5780601f1061066f5761010080835404028352916020019161069a565b820191906000526020600020905b81548152906001019060200180831161067d57829003601f168201915b5050505050905090565b60006106af826117e7565b6004600083815260200190815260200160002060009054906101000a900473ffffffffffffffffffffffffffffffffffffffff169050919050565b60006106f582610d18565b90508073ffffffffffffffffffffffffffffffffffffffff168373ffffffffffffffffffffffffffffffffffffffff1603610765576040517f08c379a000000000000000000000000000000000000000000000000000000000815260040161075c9061322f565b60405180910390fd5b8073ffffffffffffffffffffffffffffffffffffffff16610784611832565b73ffffffffffffffffffffffffffffffffffffffff1614806107b357506107b2816107ad611832565b61154f565b5b6107f2576040517f08c379a00000000000000000000000000000000000000000000000000000000081526004016107e9906132c1565b60405180910390fd5b6107fc838361183a565b505050565b6060600060075467ffffffffffffffff811115610821576108206129ab565b5b60405190808252806020026020018201604052801561084f5781602001602082028036833780820191505090505b509050600080600754905060008560405160200161086d919061331d565b60405160208183030381529060405280519060200120905060005b828110156109145781600860008381526020019081526020016000206001016040516020016108b791906133cc565b604051602081830303815290604052805190602001200361090157808585815181106108e6576108e56133e3565b5b60200260200101818152505083806108fd90613441565b9450505b808061090c90613441565b915050610888565b5060008367ffffffffffffffff811115610931576109306129ab565b5b60405190808252806020026020018201604052801561095f5781602001602082028036833780820191505090505b50905060005b848110156109ba578581815181106109805761097f6133e3565b5b602002602001015182828151811061099b5761099a6133e3565b5b60200260200101818152505080806109b290613441565b915050610965565b508095505050505050919050565b6109d96109d3611832565b826118f3565b610a18576040517f08c379a0000000000000000000000000000000000000000000000000000000008152600401610a0f906134fb565b60405180910390fd5b610a23838383611988565b505050565b6060600060075467ffffffffffffffff811115610a4857610a476129ab565b5b604051908082528060200260200182016040528015610a765781602001602082028036833780820191505090505b509050600080600754905060005b81811015610b2d57600062015180426008600085815260200190815260200160002060030154610ab4919061351b565b610abe919061357e565b9050868111158015610ae55750600860008381526020019081526020016000206003015442105b15610b195781858581518110610afe57610afd6133e3565b5b6020026020010181815250508380610b1590613441565b9450505b508080610b2590613441565b915050610a84565b5060008267ffffffffffffffff811115610b4a57610b496129ab565b5b604051908082528060200260200182016040528015610b785781602001602082028036833780820191505090505b50905060005b83811015610bd357848181518110610b9957610b986133e3565b5b6020026020010151828281518110610bb457610bb36133e3565b5b6020026020010181815250508080610bcb90613441565b915050610b7e565b5080945050505050919050565b610bfb838383604051806020016040528060008152506111f4565b505050565b610c08611c81565b600082829050905060005b81811015610ca15736848483818110610c2f57610c2e6133e3565b5b9050602002810190610c4191906135be565b9050610c8d818060000190610c5691906135e6565b838060200190610c6691906135e6565b85604001358660600135876080016020810190610c839190613649565b8860a001356112c4565b508080610c9990613441565b915050610c13565b50505050565b6000610cb282611cff565b610cf1576040517f08c379a0000000000000000000000000000000000000000000000000000000008152600401610ce8906136c2565b60405180910390fd5b60006008600084815260200190815260200160002060030154905080421015915050919050565b600080610d2483611d40565b9050600073ffffffffffffffffffffffffffffffffffffffff168173ffffffffffffffffffffffffffffffffffffffff1603610d95576040517f08c379a0000000000000000000000000000000000000000000000000000000008152600401610d8c9061372e565b60405180910390fd5b80915050919050565b60008073ffffffffffffffffffffffffffffffffffffffff168273ffffffffffffffffffffffffffffffffffffffff1603610e0e576040517f08c379a0000000000000000000000000000000000000000000000000000000008152600401610e05906137c0565b60405180910390fd5b600360008373ffffffffffffffffffffffffffffffffffffffff1673ffffffffffffffffffffffffffffffffffffffff168152602001908152602001600020549050919050565b610e5d611c81565b610e676000611d7d565b565b6008602052806000526040600020600091509050806000018054610e8c9061318c565b80601f0160208091040260200160405190810160405280929190818152602001828054610eb89061318c565b8015610f055780601f10610eda57610100808354040283529160200191610f05565b820191906000526020600020905b815481529060010190602001808311610ee857829003601f168201915b505050505090806001018054610f1a9061318c565b80601f0160208091040260200160405190810160405280929190818152602001828054610f469061318c565b8015610f935780601f10610f6857610100808354040283529160200191610f93565b820191906000526020600020905b815481529060010190602001808311610f7657829003601f168201915b5050505050908060020154908060030154908060040160009054906101000a900460ff16908060050154905086565b610fca611c81565b600082829050905060005b81811015611090576000848483818110610ff257610ff16133e3565b5b90506020020135905061100481611cff565b611043576040517f08c379a000000000000000000000000000000000000000000000000000000000815260040161103a906136c2565b60405180910390fd5b6110626008600083815260200190815260200160002060030154611e43565b600860008381526020019081526020016000206005018190555050808061108890613441565b915050610fd5565b50505050565b61109e611c81565b6110a781611cff565b6110e6576040517f08c379a00000000000000000000000000000000000000000000000000000000081526004016110dd906136c2565b60405180910390fd5b6111056008600083815260200190815260200160002060030154611e43565b600860008381526020019081526020016000206005018190555050565b6000600660009054906101000a900473ffffffffffffffffffffffffffffffffffffffff16905090565b60606001805461115b9061318c565b80601f01602080910402602001604051908101604052809291908181526020018280546111879061318c565b80156111d45780601f106111a9576101008083540402835291602001916111d4565b820191906000526020600020905b8154815290600101906020018083116111b757829003601f168201915b5050505050905090565b6111f06111e9611832565b8383611e93565b5050565b6112056111ff611832565b836118f3565b611244576040517f08c379a000000000000000000000000000000000000000000000000000000000815260040161123b906134fb565b60405180910390fd5b61125084848484611fff565b50505050565b6060611261826117e7565b600061126b61205b565b9050600081511161128b57604051806020016040528060008152506112b6565b8061129584612072565b6040516020016112a69291906137e0565b6040516020818303038152906040525b915050919050565b60075481565b6112cc611c81565b60008888905011611312576040517f08c379a000000000000000000000000000000000000000000000000000000000815260040161130990613876565b60405180910390fd5b60008686905011611358576040517f08c379a000000000000000000000000000000000000000000000000000000000815260040161134f906138e2565b60405180910390fd5b82841061139a576040517f08c379a000000000000000000000000000000000000000000000000000000000815260040161139190613974565b60405180910390fd5b600060075490506113ab3382612140565b6040518060c001604052808a8a8080601f016020809104026020016040519081016040528093929190818152602001838380828437600081840152601f19601f82011690508083019250505050505050815260200188888080601f016020809104026020016040519081016040528093929190818152602001838380828437600081840152601f19601f82011690508083019250505050505050815260200186815260200185815260200184151581526020018381525060086000838152602001908152602001600020600082015181600001908161148a9190613b2b565b5060208201518160010190816114a09190613b2b565b50604082015181600201556060820151816003015560808201518160040160006101000a81548160ff02191690831515021790555060a082015181600501559050506114f8600160075461215e90919063ffffffff16565b600781905550807ff7d840a7f05259f95d2507bf22e01ff2bfa2cc6284e83dbc8cbc3047915db9ac8a8a8a8a8a8a8a8a60405161153c989796959493929190613c2a565b60405180910390a2505050505050505050565b6000600560008473ffffffffffffffffffffffffffffffffffffffff1673ffffffffffffffffffffffffffffffffffffffff16815260200190815260200160002060008373ffffffffffffffffffffffffffffffffffffffff1673ffffffffffffffffffffffffffffffffffffffff16815260200190815260200160002060009054906101000a900460ff16905092915050565b60008060075411611629576040517f08c379a000000000000000000000000000000000000000000000000000000000815260040161162090613d0f565b60405180910390fd5b6000806000600754905060005b818110156116a257600860008281526020019081526020016000206003015442101561168f5760086000828152602001908152602001600020600501548461167e9190613d2f565b9350828061168b90613441565b9350505b808061169a90613441565b915050611636565b50600082116116e6576040517f08c379a00000000000000000000000000000000000000000000000000000000081526004016116dd90613dd5565b60405180910390fd5b81836116f2919061357e565b935050505090565b611702611c81565b600073ffffffffffffffffffffffffffffffffffffffff168173ffffffffffffffffffffffffffffffffffffffff1603611771576040517f08c379a000000000000000000000000000000000000000000000000000000000815260040161176890613e67565b60405180910390fd5b61177a81611d7d565b50565b60007f01ffc9a7000000000000000000000000000000000000000000000000000000007bffffffffffffffffffffffffffffffffffffffffffffffffffffffff1916827bffffffffffffffffffffffffffffffffffffffffffffffffffffffff1916149050919050565b6117f081611cff565b61182f576040517f08c379a00000000000000000000000000000000000000000000000000000000081526004016118269061372e565b60405180910390fd5b50565b600033905090565b816004600083815260200190815260200160002060006101000a81548173ffffffffffffffffffffffffffffffffffffffff021916908373ffffffffffffffffffffffffffffffffffffffff160217905550808273ffffffffffffffffffffffffffffffffffffffff166118ad83610d18565b73ffffffffffffffffffffffffffffffffffffffff167f8c5be1e5ebec7d5bd14f71427d1e84f3dd0314c0f7b2291e5b200ac8c7c3b92560405160405180910390a45050565b6000806118ff83610d18565b90508073ffffffffffffffffffffffffffffffffffffffff168473ffffffffffffffffffffffffffffffffffffffff1614806119415750611940818561154f565b5b8061197f57508373ffffffffffffffffffffffffffffffffffffffff16611967846106a4565b73ffffffffffffffffffffffffffffffffffffffff16145b91505092915050565b8273ffffffffffffffffffffffffffffffffffffffff166119a882610d18565b73ffffffffffffffffffffffffffffffffffffffff16146119fe576040517f08c379a00000000000000000000000000000000000000000000000000000000081526004016119f590613ef9565b60405180910390fd5b600073ffffffffffffffffffffffffffffffffffffffff168273ffffffffffffffffffffffffffffffffffffffff1603611a6d576040517f08c379a0000000000000000000000000000000000000000000000000000000008152600401611a6490613f8b565b60405180910390fd5b611a7a8383836001612174565b8273ffffffffffffffffffffffffffffffffffffffff16611a9a82610d18565b73ffffffffffffffffffffffffffffffffffffffff1614611af0576040517f08c379a0000000000000000000000000000000000000000000000000000000008152600401611ae790613ef9565b60405180910390fd5b6004600082815260200190815260200160002060006101000a81549073ffffffffffffffffffffffffffffffffffffffff02191690556001600360008573ffffffffffffffffffffffffffffffffffffffff1673ffffffffffffffffffffffffffffffffffffffff168152602001908152602001600020600082825403925050819055506001600360008473ffffffffffffffffffffffffffffffffffffffff1673ffffffffffffffffffffffffffffffffffffffff16815260200190815260200160002060008282540192505081905550816002600083815260200190815260200160002060006101000a81548173ffffffffffffffffffffffffffffffffffffffff021916908373ffffffffffffffffffffffffffffffffffffffff160217905550808273ffffffffffffffffffffffffffffffffffffffff168473ffffffffffffffffffffffffffffffffffffffff167fddf252ad1be2c89b69c2b068fc378daa952ba7f163c4a11628f55a4df523b3ef60405160405180910390a4611c7c838383600161217a565b505050565b611c89611832565b73ffffffffffffffffffffffffffffffffffffffff16611ca7611122565b73ffffffffffffffffffffffffffffffffffffffff1614611cfd576040517f08c379a0000000000000000000000000000000000000000000000000000000008152600401611cf490613ff7565b60405180910390fd5b565b60008073ffffffffffffffffffffffffffffffffffffffff16611d2183611d40565b73ffffffffffffffffffffffffffffffffffffffff1614159050919050565b60006002600083815260200190815260200160002060009054906101000a900473ffffffffffffffffffffffffffffffffffffffff169050919050565b6000600660009054906101000a900473ffffffffffffffffffffffffffffffffffffffff16905081600660006101000a81548173ffffffffffffffffffffffffffffffffffffffff021916908373ffffffffffffffffffffffffffffffffffffffff1602179055508173ffffffffffffffffffffffffffffffffffffffff168173ffffffffffffffffffffffffffffffffffffffff167f8be0079c531659141344cd1fd0a4f28419497f9722a3daafe3b4186f6b6457e060405160405180910390a35050565b600080620151804284611e56919061351b565b611e60919061357e565b9050601e8111611e835760078111611e7a576101f4611e7e565b6103205b611e87565b6103e85b61ffff16915050919050565b8173ffffffffffffffffffffffffffffffffffffffff168373ffffffffffffffffffffffffffffffffffffffff1603611f01576040517f08c379a0000000000000000000000000000000000000000000000000000000008152600401611ef890614063565b60405180910390fd5b80600560008573ffffffffffffffffffffffffffffffffffffffff1673ffffffffffffffffffffffffffffffffffffffff16815260200190815260200160002060008473ffffffffffffffffffffffffffffffffffffffff1673ffffffffffffffffffffffffffffffffffffffff16815260200190815260200160002060006101000a81548160ff0219169083151502179055508173ffffffffffffffffffffffffffffffffffffffff168373ffffffffffffffffffffffffffffffffffffffff167f17307eab39ab6107e8899845ad3d59bd9653f200f220920489ca2b5937696c3183604051611ff291906127a9565b60405180910390a3505050565b61200a848484611988565b61201684848484612180565b612055576040517f08c379a000000000000000000000000000000000000000000000000000000000815260040161204c906140f5565b60405180910390fd5b50505050565b606060405180602001604052806000815250905090565b60606000600161208184612307565b01905060008167ffffffffffffffff8111156120a05761209f6129ab565b5b6040519080825280601f01601f1916602001820160405280156120d25781602001600182028036833780820191505090505b509050600082602001820190505b600115612135578080600190039150507f3031323334353637383961626364656600000000000000000000000000000000600a86061a8153600a85816121295761212861354f565b5b049450600085036120e0575b819350505050919050565b61215a82826040518060200160405280600081525061245a565b5050565b6000818361216c9190613d2f565b905092915050565b50505050565b50505050565b60006121a18473ffffffffffffffffffffffffffffffffffffffff166124b5565b156122fa578373ffffffffffffffffffffffffffffffffffffffff1663150b7a026121ca611832565b8786866040518563ffffffff1660e01b81526004016121ec949392919061416a565b6020604051808303816000875af192505050801561222857506040513d601f19601f8201168201806040525081019061222591906141cb565b60015b6122aa573d8060008114612258576040519150601f19603f3d011682016040523d82523d6000602084013e61225d565b606091505b5060008151036122a2576040517f08c379a0000000000000000000000000000000000000000000000000000000008152600401612299906140f5565b60405180910390fd5b805181602001fd5b63150b7a0260e01b7bffffffffffffffffffffffffffffffffffffffffffffffffffffffff1916817bffffffffffffffffffffffffffffffffffffffffffffffffffffffff1916149150506122ff565b600190505b949350505050565b600080600090507a184f03e93ff9f4daa797ed6e38ed64bf6a1f0100000000000000008310612365577a184f03e93ff9f4daa797ed6e38ed64bf6a1f010000000000000000838161235b5761235a61354f565b5b0492506040810190505b6d04ee2d6d415b85acef810000000083106123a2576d04ee2d6d415b85acef810000000083816123985761239761354f565b5b0492506020810190505b662386f26fc1000083106123d157662386f26fc1000083816123c7576123c661354f565b5b0492506010810190505b6305f5e10083106123fa576305f5e10083816123f0576123ef61354f565b5b0492506008810190505b612710831061241f5761271083816124155761241461354f565b5b0492506004810190505b6064831061244257606483816124385761243761354f565b5b0492506002810190505b600a8310612451576001810190505b80915050919050565b61246483836124d8565b6124716000848484612180565b6124b0576040517f08c379a00000000000000000000000000000000000000000000000000000000081526004016124a7906140f5565b60405180910390fd5b505050565b6000808273ffffffffffffffffffffffffffffffffffffffff163b119050919050565b600073ffffffffffffffffffffffffffffffffffffffff168273ffffffffffffffffffffffffffffffffffffffff1603612547576040517f08c379a000000000000000000000000000000000000000000000000000000000815260040161253e90614244565b60405180910390fd5b61255081611cff565b15612590576040517f08c379a0000000000000000000000000000000000000000000000000000000008152600401612587906142b0565b60405180910390fd5b61259e600083836001612174565b6125a781611cff565b156125e7576040517f08c379a00000000000000000000000000000000000000000000000000000000081526004016125de906142b0565b60405180910390fd5b6001600360008473ffffffffffffffffffffffffffffffffffffffff1673ffffffffffffffffffffffffffffffffffffffff16815260200190815260200160002060008282540192505081905550816002600083815260200190815260200160002060006101000a81548173ffffffffffffffffffffffffffffffffffffffff021916908373ffffffffffffffffffffffffffffffffffffffff160217905550808273ffffffffffffffffffffffffffffffffffffffff16600073ffffffffffffffffffffffffffffffffffffffff167fddf252ad1be2c89b69c2b068fc378daa952ba7f163c4a11628f55a4df523b3ef60405160405180910390a46126f160008383600161217a565b5050565b6000604051905090565b600080fd5b600080fd5b60007fffffffff0000000000000000000000000000000000000000000000000000000082169050919050565b61273e81612709565b811461274957600080fd5b50565b60008135905061275b81612735565b92915050565b600060208284031215612777576127766126ff565b5b60006127858482850161274c565b91505092915050565b60008115159050919050565b6127a38161278e565b82525050565b60006020820190506127be600083018461279a565b92915050565b600081519050919050565b600082825260208201905092915050565b60005b838110156127fe5780820151818401526020810190506127e3565b60008484015250505050565b6000601f19601f8301169050919050565b6000612826826127c4565b61283081856127cf565b93506128408185602086016127e0565b6128498161280a565b840191505092915050565b6000602082019050818103600083015261286e818461281b565b905092915050565b6000819050919050565b61288981612876565b811461289457600080fd5b50565b6000813590506128a681612880565b92915050565b6000602082840312156128c2576128c16126ff565b5b60006128d084828501612897565b91505092915050565b600073ffffffffffffffffffffffffffffffffffffffff82169050919050565b6000612904826128d9565b9050919050565b612914816128f9565b82525050565b600060208201905061292f600083018461290b565b92915050565b61293e816128f9565b811461294957600080fd5b50565b60008135905061295b81612935565b92915050565b60008060408385031215612978576129776126ff565b5b60006129868582860161294c565b925050602061299785828601612897565b9150509250929050565b600080fd5b600080fd5b7f4e487b7100000000000000000000000000000000000000000000000000000000600052604160045260246000fd5b6129e38261280a565b810181811067ffffffffffffffff82111715612a0257612a016129ab565b5b80604052505050565b6000612a156126f5565b9050612a2182826129da565b919050565b600067ffffffffffffffff821115612a4157612a406129ab565b5b612a4a8261280a565b9050602081019050919050565b82818337600083830152505050565b6000612a79612a7484612a26565b612a0b565b905082815260208101848484011115612a9557612a946129a6565b5b612aa0848285612a57565b509392505050565b600082601f830112612abd57612abc6129a1565b5b8135612acd848260208601612a66565b91505092915050565b600060208284031215612aec57612aeb6126ff565b5b600082013567ffffffffffffffff811115612b0a57612b09612704565b5b612b1684828501612aa8565b91505092915050565b600081519050919050565b600082825260208201905092915050565b6000819050602082019050919050565b612b5481612876565b82525050565b6000612b668383612b4b565b60208301905092915050565b6000602082019050919050565b6000612b8a82612b1f565b612b948185612b2a565b9350612b9f83612b3b565b8060005b83811015612bd0578151612bb78882612b5a565b9750612bc283612b72565b925050600181019050612ba3565b5085935050505092915050565b60006020820190508181036000830152612bf78184612b7f565b905092915050565b600080600060608486031215612c1857612c176126ff565b5b6000612c268682870161294c565b9350506020612c378682870161294c565b9250506040612c4886828701612897565b9150509250925092565b600080fd5b600080fd5b60008083601f840112612c7257612c716129a1565b5b8235905067ffffffffffffffff811115612c8f57612c8e612c52565b5b602083019150836020820283011115612cab57612caa612c57565b5b9250929050565b60008060208385031215612cc957612cc86126ff565b5b600083013567ffffffffffffffff811115612ce757612ce6612704565b5b612cf385828601612c5c565b92509250509250929050565b600060208284031215612d1557612d146126ff565b5b6000612d238482850161294c565b91505092915050565b612d3581612876565b82525050565b6000602082019050612d506000830184612d2c565b92915050565b600060c0820190508181036000830152612d70818961281b565b90508181036020830152612d84818861281b565b9050612d936040830187612d2c565b612da06060830186612d2c565b612dad608083018561279a565b612dba60a0830184612d2c565b979650505050505050565b60008083601f840112612ddb57612dda6129a1565b5b8235905067ffffffffffffffff811115612df857612df7612c52565b5b602083019150836020820283011115612e1457612e13612c57565b5b9250929050565b60008060208385031215612e3257612e316126ff565b5b600083013567ffffffffffffffff811115612e5057612e4f612704565b5b612e5c85828601612dc5565b92509250509250929050565b612e718161278e565b8114612e7c57600080fd5b50565b600081359050612e8e81612e68565b92915050565b60008060408385031215612eab57612eaa6126ff565b5b6000612eb98582860161294c565b9250506020612eca85828601612e7f565b9150509250929050565b600067ffffffffffffffff821115612eef57612eee6129ab565b5b612ef88261280a565b9050602081019050919050565b6000612f18612f1384612ed4565b612a0b565b905082815260208101848484011115612f3457612f336129a6565b5b612f3f848285612a57565b509392505050565b600082601f830112612f5c57612f5b6129a1565b5b8135612f6c848260208601612f05565b91505092915050565b60008060008060808587031215612f8f57612f8e6126ff565b5b6000612f9d8782880161294c565b9450506020612fae8782880161294c565b9350506040612fbf87828801612897565b925050606085013567ffffffffffffffff811115612fe057612fdf612704565b5b612fec87828801612f47565b91505092959194509250565b60008083601f84011261300e5761300d6129a1565b5b8235905067ffffffffffffffff81111561302b5761302a612c52565b5b60208301915083600182028301111561304757613046612c57565b5b9250929050565b60008060008060008060008060c0898b03121561306e5761306d6126ff565b5b600089013567ffffffffffffffff81111561308c5761308b612704565b5b6130988b828c01612ff8565b9850985050602089013567ffffffffffffffff8111156130bb576130ba612704565b5b6130c78b828c01612ff8565b965096505060406130da8b828c01612897565b94505060606130eb8b828c01612897565b93505060806130fc8b828c01612e7f565b92505060a061310d8b828c01612897565b9150509295985092959890939650565b60008060408385031215613134576131336126ff565b5b60006131428582860161294c565b92505060206131538582860161294c565b9150509250929050565b7f4e487b7100000000000000000000000000000000000000000000000000000000600052602260045260246000fd5b600060028204905060018216806131a457607f821691505b6020821081036131b7576131b661315d565b5b50919050565b7f4552433732313a20617070726f76616c20746f2063757272656e74206f776e6560008201527f7200000000000000000000000000000000000000000000000000000000000000602082015250565b60006132196021836127cf565b9150613224826131bd565b604082019050919050565b600060208201905081810360008301526132488161320c565b9050919050565b7f4552433732313a20617070726f76652063616c6c6572206973206e6f7420746f60008201527f6b656e206f776e6572206f7220617070726f76656420666f7220616c6c000000602082015250565b60006132ab603d836127cf565b91506132b68261324f565b604082019050919050565b600060208201905081810360008301526132da8161329e565b9050919050565b600081905092915050565b60006132f7826127c4565b61330181856132e1565b93506133118185602086016127e0565b80840191505092915050565b600061332982846132ec565b915081905092915050565b60008190508160005260206000209050919050565b600081546133568161318c565b61336081866132e1565b9450600182166000811461337b5760018114613390576133c3565b60ff19831686528115158202860193506133c3565b61339985613334565b60005b838110156133bb5781548189015260018201915060208101905061339c565b838801955050505b50505092915050565b60006133d88284613349565b915081905092915050565b7f4e487b7100000000000000000000000000000000000000000000000000000000600052603260045260246000fd5b7f4e487b7100000000000000000000000000000000000000000000000000000000600052601160045260246000fd5b600061344c82612876565b91507fffffffffffffffffffffffffffffffffffffffffffffffffffffffffffffffff820361347e5761347d613412565b5b600182019050919050565b7f4552433732313a2063616c6c6572206973206e6f7420746f6b656e206f776e6560008201527f72206f7220617070726f76656400000000000000000000000000000000000000602082015250565b60006134e5602d836127cf565b91506134f082613489565b604082019050919050565b60006020820190508181036000830152613514816134d8565b9050919050565b600061352682612876565b915061353183612876565b925082820390508181111561354957613548613412565b5b92915050565b7f4e487b7100000000000000000000000000000000000000000000000000000000600052601260045260246000fd5b600061358982612876565b915061359483612876565b9250826135a4576135a361354f565b5b828204905092915050565b600080fd5b600080fd5b600080fd5b60008235600160c0038336030381126135da576135d96135af565b5b80830191505092915050565b60008083356001602003843603038112613603576136026135af565b5b80840192508235915067ffffffffffffffff821115613625576136246135b4565b5b602083019250600182023603831315613641576136406135b9565b5b509250929050565b60006020828403121561365f5761365e6126ff565b5b600061366d84828501612e7f565b91505092915050565b7f546f6b656e20494420646f6573206e6f742065786973742e0000000000000000600082015250565b60006136ac6018836127cf565b91506136b782613676565b602082019050919050565b600060208201905081810360008301526136db8161369f565b9050919050565b7f4552433732313a20696e76616c696420746f6b656e2049440000000000000000600082015250565b60006137186018836127cf565b9150613723826136e2565b602082019050919050565b600060208201905081810360008301526137478161370b565b9050919050565b7f4552433732313a2061646472657373207a65726f206973206e6f74206120766160008201527f6c6964206f776e65720000000000000000000000000000000000000000000000602082015250565b60006137aa6029836127cf565b91506137b58261374e565b604082019050919050565b600060208201905081810360008301526137d98161379d565b9050919050565b60006137ec82856132ec565b91506137f882846132ec565b91508190509392505050565b7f4d616e756661637475726572206e616d652073686f756c64206e6f742062652060008201527f656d707479000000000000000000000000000000000000000000000000000000602082015250565b60006138606025836127cf565b915061386b82613804565b604082019050919050565b6000602082019050818103600083015261388f81613853565b9050919050565b7f50726f64756374206e616d652073686f756c64206e6f7420626520656d707479600082015250565b60006138cc6020836127cf565b91506138d782613896565b602082019050919050565b600060208201905081810360008301526138fb816138bf565b9050919050565b7f4d616e756661637475726520646174652073686f756c64206265206561726c6960008201527f6572207468616e20657870697279206461746500000000000000000000000000602082015250565b600061395e6033836127cf565b915061396982613902565b604082019050919050565b6000602082019050818103600083015261398d81613951565b9050919050565b60006020601f8301049050919050565b600082821b905092915050565b6000600883026139e17fffffffffffffffffffffffffffffffffffffffffffffffffffffffffffffffff826139a4565b6139eb86836139a4565b95508019841693508086168417925050509392505050565b6000819050919050565b6000613a28613a23613a1e84612876565b613a03565b612876565b9050919050565b6000819050919050565b613a4283613a0d565b613a56613a4e82613a2f565b8484546139b1565b825550505050565b600090565b613a6b613a5e565b613a76818484613a39565b505050565b5b81811015613a9a57613a8f600082613a63565b600181019050613a7c565b5050565b601f821115613adf57613ab081613334565b613ab984613994565b81016020851015613ac8578190505b613adc613ad485613994565b830182613a7b565b50505b505050565b600082821c905092915050565b6000613b0260001984600802613ae4565b1980831691505092915050565b6000613b1b8383613af1565b9150826002028217905092915050565b613b34826127c4565b67ffffffffffffffff811115613b4d57613b4c6129ab565b5b613b57825461318c565b613b62828285613a9e565b600060209050601f831160018114613b955760008415613b83578287015190505b613b8d8582613b0f565b865550613bf5565b601f198416613ba386613334565b60005b82811015613bcb57848901518255600182019150602085019450602081019050613ba6565b86831015613be85784890151613be4601f891682613af1565b8355505b6001600288020188555050505b505050505050565b6000613c0983856127cf565b9350613c16838584612a57565b613c1f8361280a565b840190509392505050565b600060c0820190508181036000830152613c45818a8c613bfd565b90508181036020830152613c5a81888a613bfd565b9050613c696040830187612d2c565b613c766060830186612d2c565b613c83608083018561279a565b613c9060a0830184612d2c565b9998505050505050505050565b7f4e6f2070726f647563747320617661696c61626c6520666f7220616e616c797360008201527f69732e0000000000000000000000000000000000000000000000000000000000602082015250565b6000613cf96023836127cf565b9150613d0482613c9d565b604082019050919050565b60006020820190508181036000830152613d2881613cec565b9050919050565b6000613d3a82612876565b9150613d4583612876565b9250828201905080821115613d5d57613d5c613412565b5b92915050565b7f4e6f2076616c69642070726f647563747320617661696c61626c6520666f722060008201527f616e616c797369732e0000000000000000000000000000000000000000000000602082015250565b6000613dbf6029836127cf565b9150613dca82613d63565b604082019050919050565b60006020820190508181036000830152613dee81613db2565b9050919050565b7f4f776e61626c653a206e6577206f776e657220697320746865207a65726f206160008201527f6464726573730000000000000000000000000000000000000000000000000000602082015250565b6000613e516026836127cf565b9150613e5c82613df5565b604082019050919050565b60006020820190508181036000830152613e8081613e44565b9050919050565b7f4552433732313a207472616e736665722066726f6d20696e636f72726563742060008201527f6f776e6572000000000000000000000000000000000000000000000000000000602082015250565b6000613ee36025836127cf565b9150613eee82613e87565b604082019050919050565b60006020820190508181036000830152613f1281613ed6565b9050919050565b7f4552433732313a207472616e7366657220746f20746865207a65726f2061646460008201527f7265737300000000000000000000000000000000000000000000000000000000602082015250565b6000613f756024836127cf565b9150613f8082613f19565b604082019050919050565b60006020820190508181036000830152613fa481613f68565b9050919050565b7f4f776e61626c653a2063616c6c6572206973206e6f7420746865206f776e6572600082015250565b6000613fe16020836127cf565b9150613fec82613fab565b602082019050919050565b6000602082019050818103600083015261401081613fd4565b9050919050565b7f4552433732313a20617070726f766520746f2063616c6c657200000000000000600082015250565b600061404d6019836127cf565b915061405882614017565b602082019050919050565b6000602082019050818103600083015261407c81614040565b9050919050565b7f4552433732313a207472616e7366657220746f206e6f6e20455243373231526560008201527f63656976657220696d706c656d656e7465720000000000000000000000000000602082015250565b60006140df6032836127cf565b91506140ea82614083565b604082019050919050565b6000602082019050818103600083015261410e816140d2565b9050919050565b600081519050919050565b600082825260208201905092915050565b600061413c82614115565b6141468185614120565b93506141568185602086016127e0565b61415f8161280a565b840191505092915050565b600060808201905061417f600083018761290b565b61418c602083018661290b565b6141996040830185612d2c565b81810360608301526141ab8184614131565b905095945050505050565b6000815190506141c581612735565b92915050565b6000602082840312156141e1576141e06126ff565b5b60006141ef848285016141b6565b91505092915050565b7f4552433732313a206d696e7420746f20746865207a65726f2061646472657373600082015250565b600061422e6020836127cf565b9150614239826141f8565b602082019050919050565b6000602082019050818103600083015261425d81614221565b9050919050565b7f4552433732313a20746f6b656e20616c7265616479206d696e74656400000000600082015250565b600061429a601c836127cf565b91506142a582614264565b602082019050919050565b600060208201905081810360008301526142c98161428d565b905091905056fea2646970667358221220fc565081e47422962fa254677b2ab6cd30ac68fee158c03f0bd3e9a8df027a6b64736f6c63430008130033",
  "immutableReferences": {},
  "source": "// SPDX-License-Identifier: MIT\r\npragma solidity ^0.8.0;\r\n\r\nimport \"@openzeppelin/contracts/token/ERC721/ERC721.sol\";\r\nimport \"@openzeppelin/contracts/access/Ownable.sol\";\r\nimport \"@openzeppelin/contracts/utils/math/SafeMath.sol\";\r\n\r\ncontract FactoryTest2 is ERC721, Ownable {\r\n    using SafeMath for uint256;\r\n    uint256 public tokenCounter;\r\n    \r\n\r\n    struct Product {\r\n        string name;\r\n        string manufacturer;\r\n        uint256 manufactureDate;\r\n        uint256 expiryDate;\r\n        bool isQualityProduct;\r\n        uint256 price;\r\n    }\r\n\r\n    mapping(uint256 => Product) public products;\r\n\r\n    constructor() ERC721(\"Factory\", \"FACTORY\") {\r\n        tokenCounter = 0;\r\n    }\r\n\r\n    event ProductCreated(uint256 indexed tokenId, string manufacturer, string name, uint256 manufactureDate, uint256 expiryDate, bool isQualityProduct, uint256 price);\r\n\r\n    function createProduct(\r\n        string calldata _manufacturer,\r\n        string calldata _name,\r\n        uint256 _manufactureDate,\r\n        uint256 _expiryDate,\r\n        bool _isQualityProduct,\r\n        uint256 price\r\n    ) public onlyOwner {\r\n        require(bytes(_manufacturer).length > 0, \"Manufacturer name should not be empty\");\r\n        require(bytes(_name).length > 0, \"Product name should not be empty\");\r\n        require(_manufactureDate < _expiryDate, \"Manufacture date should be earlier than expiry date\");\r\n\r\n        uint256 tokenId = tokenCounter;\r\n        _safeMint(msg.sender, tokenId);\r\n        \r\n        products[tokenId] = Product(\r\n            string(_manufacturer),\r\n            string(_name),\r\n            _manufactureDate,\r\n            _expiryDate,\r\n            _isQualityProduct,\r\n            price\r\n        );\r\n        tokenCounter = tokenCounter.add(1);\r\n\r\n        emit ProductCreated(tokenId, _manufacturer, _name, _manufactureDate, _expiryDate, _isQualityProduct, price);\r\n    }\r\n\r\n\r\n    function createProductsBatch(Product[] calldata _products) public onlyOwner {\r\n        uint256 productsLength = _products.length;\r\n        for (uint256 i = 0; i < productsLength; i++) {\r\n            Product calldata newProduct = _products[i];\r\n            createProduct(\r\n                newProduct.name,\r\n                newProduct.manufacturer,\r\n                newProduct.manufactureDate,\r\n                newProduct.expiryDate,\r\n                newProduct.isQualityProduct,\r\n                newProduct.price\r\n            );\r\n        }\r\n    }\r\n\r\n\r\n\r\n    function calculatePrice(uint256 _expiryDate) internal view returns (uint256) {\r\n        uint256 remainingDays = (_expiryDate - block.timestamp) / 86400;\r\n\r\n        return remainingDays > 30 ? 1000 : (remainingDays > 7 ? 800 : 500);\r\n    }\r\n\r\n\r\n    function updatePrice(uint256 _tokenId) public onlyOwner {\r\n        require(_exists(_tokenId), \"Token ID does not exist.\");\r\n        products[_tokenId].price = calculatePrice(products[_tokenId].expiryDate);\r\n    }\r\n\r\n\r\n    function updatePricesBatch(uint256[] calldata _tokenIds) public onlyOwner {\r\n        uint256 tokenIdsLength = _tokenIds.length;\r\n        for (uint256 i = 0; i < tokenIdsLength; i++) {\r\n            uint256 tokenId = _tokenIds[i];\r\n            require(_exists(tokenId), \"Token ID does not exist.\");\r\n            products[tokenId].price = calculatePrice(products[tokenId].expiryDate);\r\n        }\r\n    }\r\n\r\n\r\n    function isProductExpired(uint256 _tokenId) public view returns (bool) {\r\n        require(_exists(_tokenId), \"Token ID does not exist.\");\r\n        uint256 expiryDate = products[_tokenId].expiryDate;\r\n        return block.timestamp >= expiryDate;\r\n    }\r\n\r\n    function calculateAveragePrice() public view returns (uint256) {\r\n        require(tokenCounter > 0, \"No products available for analysis.\");\r\n\r\n        uint256 totalPrice = 0;\r\n        uint256 validProductCount = 0;\r\n        uint256 counter = tokenCounter;\r\n\r\n        for (uint256 i = 0; i < counter; i++) {\r\n            // Check if the product is not expired\r\n            if (block.timestamp < products[i].expiryDate) {\r\n                totalPrice += products[i].price;\r\n                validProductCount++;\r\n            }\r\n        }\r\n\r\n        require(validProductCount > 0, \"No valid products available for analysis.\");\r\n        return totalPrice / validProductCount;\r\n    }\r\n\r\n\r\n\r\n    function getExpiringProducts(uint256 _daysThreshold) public view returns (uint256[] memory) {\r\n        uint256[] memory expiringProductIds = new uint256[](tokenCounter);\r\n        uint256 expiringProductCount = 0;\r\n        uint256 counter = tokenCounter;\r\n\r\n        for (uint256 i = 0; i < counter; i++) {\r\n            uint256 remainingDays = (products[i].expiryDate - block.timestamp) / 86400;\r\n            // Check if the remaining days are within the threshold and the product is not expired\r\n            if (remainingDays <= _daysThreshold && block.timestamp < products[i].expiryDate) {\r\n                expiringProductIds[expiringProductCount] = i;\r\n                expiringProductCount++;\r\n            }\r\n        }\r\n\r\n        uint256[] memory result = new uint256[](expiringProductCount);\r\n        for (uint256 i = 0; i < expiringProductCount; i++) {\r\n            result[i] = expiringProductIds[i];\r\n        }\r\n        return result;\r\n    }\r\n\r\n    function getProductsByManufacturer(string memory _manufacturer) public view returns (uint256[] memory) {\r\n        uint256[] memory productsByManufacturer = new uint256[](tokenCounter);\r\n        uint256 productCount = 0;\r\n        uint256 counter = tokenCounter;\r\n        bytes32 manufacturerHash = keccak256(abi.encodePacked(_manufacturer));\r\n\r\n        for (uint256 i = 0; i < counter; i++) {\r\n            if (keccak256(abi.encodePacked(products[i].manufacturer)) == manufacturerHash) {\r\n                productsByManufacturer[productCount] = i;\r\n                productCount++;\r\n            }\r\n        }\r\n\r\n        uint256[] memory result = new uint256[](productCount);\r\n        for (uint256 i = 0; i < productCount; i++) {\r\n            result[i] = productsByManufacturer[i];\r\n        }\r\n        return result;\r\n    }\r\n\r\n\r\n}\r\n",
  "sourcePath": "C:\\Users\\cheny\\Documents\\GitHub\\smart-expiring-product-management\\contracts\\factory v1.3.sol",
  "compiler": {
    "name": "solc",
    "version": "0.8.19+commit.7dd6d404.Emscripten.clang"
  },
  "schemaVersion": "3.4.13",
  "updatedAt": "2023-04-30T15:05:35.148Z",
  "devdoc": {
    "events": {
      "Approval(address,address,uint256)": {
        "details": "Emitted when `owner` enables `approved` to manage the `tokenId` token."
      },
      "ApprovalForAll(address,address,bool)": {
        "details": "Emitted when `owner` enables or disables (`approved`) `operator` to manage all of its assets."
      },
      "Transfer(address,address,uint256)": {
        "details": "Emitted when `tokenId` token is transferred from `from` to `to`."
      }
    },
    "kind": "dev",
    "methods": {
      "approve(address,uint256)": {
        "details": "See {IERC721-approve}."
      },
      "balanceOf(address)": {
        "details": "See {IERC721-balanceOf}."
      },
      "getApproved(uint256)": {
        "details": "See {IERC721-getApproved}."
      },
      "isApprovedForAll(address,address)": {
        "details": "See {IERC721-isApprovedForAll}."
      },
      "name()": {
        "details": "See {IERC721Metadata-name}."
      },
      "owner()": {
        "details": "Returns the address of the current owner."
      },
      "ownerOf(uint256)": {
        "details": "See {IERC721-ownerOf}."
      },
      "renounceOwnership()": {
        "details": "Leaves the contract without owner. It will not be possible to call `onlyOwner` functions anymore. Can only be called by the current owner. NOTE: Renouncing ownership will leave the contract without an owner, thereby removing any functionality that is only available to the owner."
      },
      "safeTransferFrom(address,address,uint256)": {
        "details": "See {IERC721-safeTransferFrom}."
      },
      "safeTransferFrom(address,address,uint256,bytes)": {
        "details": "See {IERC721-safeTransferFrom}."
      },
      "setApprovalForAll(address,bool)": {
        "details": "See {IERC721-setApprovalForAll}."
      },
      "supportsInterface(bytes4)": {
        "details": "See {IERC165-supportsInterface}."
      },
      "symbol()": {
        "details": "See {IERC721Metadata-symbol}."
      },
      "tokenURI(uint256)": {
        "details": "See {IERC721Metadata-tokenURI}."
      },
      "transferFrom(address,address,uint256)": {
        "details": "See {IERC721-transferFrom}."
      },
      "transferOwnership(address)": {
        "details": "Transfers ownership of the contract to a new account (`newOwner`). Can only be called by the current owner."
      }
    },
    "version": 1
  },
  "userdoc": {
    "kind": "user",
    "methods": {},
    "version": 1
  }
}