{
  "contractName": "FactoryTest",
  "abi": [
    {
      "inputs": [],
      "stateMutability": "nonpayable",
      "type": "constructor"
    },
    {
      "anonymous": false,
      "inputs": [
        {
          "indexed": true,
          "internalType": "address",
          "name": "owner",
          "type": "address"
        },
        {
          "indexed": true,
          "internalType": "address",
          "name": "approved",
          "type": "address"
        },
        {
          "indexed": true,
          "internalType": "uint256",
          "name": "tokenId",
          "type": "uint256"
        }
      ],
      "name": "Approval",
      "type": "event"
    },
    {
      "anonymous": false,
      "inputs": [
        {
          "indexed": true,
          "internalType": "address",
          "name": "owner",
          "type": "address"
        },
        {
          "indexed": true,
          "internalType": "address",
          "name": "operator",
          "type": "address"
        },
        {
          "indexed": false,
          "internalType": "bool",
          "name": "approved",
          "type": "bool"
        }
      ],
      "name": "ApprovalForAll",
      "type": "event"
    },
    {
      "anonymous": false,
      "inputs": [
        {
          "indexed": true,
          "internalType": "address",
          "name": "previousOwner",
          "type": "address"
        },
        {
          "indexed": true,
          "internalType": "address",
          "name": "newOwner",
          "type": "address"
        }
      ],
      "name": "OwnershipTransferred",
      "type": "event"
    },
    {
      "anonymous": false,
      "inputs": [
        {
          "indexed": true,
          "internalType": "uint256",
          "name": "tokenId",
          "type": "uint256"
        },
        {
          "indexed": false,
          "internalType": "string",
          "name": "manufacturer",
          "type": "string"
        },
        {
          "indexed": false,
          "internalType": "string",
          "name": "name",
          "type": "string"
        },
        {
          "indexed": false,
          "internalType": "uint256",
          "name": "manufactureDate",
          "type": "uint256"
        },
        {
          "indexed": false,
          "internalType": "uint256",
          "name": "expiryDate",
          "type": "uint256"
        },
        {
          "indexed": false,
          "internalType": "bool",
          "name": "isQualityProduct",
          "type": "bool"
        },
        {
          "indexed": false,
          "internalType": "uint256",
          "name": "price",
          "type": "uint256"
        }
      ],
      "name": "ProductCreated",
      "type": "event"
    },
    {
      "anonymous": false,
      "inputs": [
        {
          "indexed": true,
          "internalType": "address",
          "name": "from",
          "type": "address"
        },
        {
          "indexed": true,
          "internalType": "address",
          "name": "to",
          "type": "address"
        },
        {
          "indexed": true,
          "internalType": "uint256",
          "name": "tokenId",
          "type": "uint256"
        }
      ],
      "name": "Transfer",
      "type": "event"
    },
    {
      "inputs": [
        {
          "internalType": "address",
          "name": "to",
          "type": "address"
        },
        {
          "internalType": "uint256",
          "name": "tokenId",
          "type": "uint256"
        }
      ],
      "name": "approve",
      "outputs": [],
      "stateMutability": "nonpayable",
      "type": "function"
    },
    {
      "inputs": [
        {
          "internalType": "address",
          "name": "owner",
          "type": "address"
        }
      ],
      "name": "balanceOf",
      "outputs": [
        {
          "internalType": "uint256",
          "name": "",
          "type": "uint256"
        }
      ],
      "stateMutability": "view",
      "type": "function"
    },
    {
      "inputs": [
        {
          "internalType": "uint256",
          "name": "tokenId",
          "type": "uint256"
        }
      ],
      "name": "getApproved",
      "outputs": [
        {
          "internalType": "address",
          "name": "",
          "type": "address"
        }
      ],
      "stateMutability": "view",
      "type": "function"
    },
    {
      "inputs": [
        {
          "internalType": "address",
          "name": "owner",
          "type": "address"
        },
        {
          "internalType": "address",
          "name": "operator",
          "type": "address"
        }
      ],
      "name": "isApprovedForAll",
      "outputs": [
        {
          "internalType": "bool",
          "name": "",
          "type": "bool"
        }
      ],
      "stateMutability": "view",
      "type": "function"
    },
    {
      "inputs": [],
      "name": "name",
      "outputs": [
        {
          "internalType": "string",
          "name": "",
          "type": "string"
        }
      ],
      "stateMutability": "view",
      "type": "function"
    },
    {
      "inputs": [],
      "name": "owner",
      "outputs": [
        {
          "internalType": "address",
          "name": "",
          "type": "address"
        }
      ],
      "stateMutability": "view",
      "type": "function"
    },
    {
      "inputs": [
        {
          "internalType": "uint256",
          "name": "tokenId",
          "type": "uint256"
        }
      ],
      "name": "ownerOf",
      "outputs": [
        {
          "internalType": "address",
          "name": "",
          "type": "address"
        }
      ],
      "stateMutability": "view",
      "type": "function"
    },
    {
      "inputs": [
        {
          "internalType": "uint256",
          "name": "",
          "type": "uint256"
        }
      ],
      "name": "products",
      "outputs": [
        {
          "internalType": "string",
          "name": "name",
          "type": "string"
        },
        {
          "internalType": "string",
          "name": "manufacturer",
          "type": "string"
        },
        {
          "internalType": "uint256",
          "name": "manufactureDate",
          "type": "uint256"
        },
        {
          "internalType": "uint256",
          "name": "expiryDate",
          "type": "uint256"
        },
        {
          "internalType": "bool",
          "name": "isQualityProduct",
          "type": "bool"
        },
        {
          "internalType": "uint256",
          "name": "price",
          "type": "uint256"
        }
      ],
      "stateMutability": "view",
      "type": "function"
    },
    {
      "inputs": [],
      "name": "renounceOwnership",
      "outputs": [],
      "stateMutability": "nonpayable",
      "type": "function"
    },
    {
      "inputs": [
        {
          "internalType": "address",
          "name": "from",
          "type": "address"
        },
        {
          "internalType": "address",
          "name": "to",
          "type": "address"
        },
        {
          "internalType": "uint256",
          "name": "tokenId",
          "type": "uint256"
        }
      ],
      "name": "safeTransferFrom",
      "outputs": [],
      "stateMutability": "nonpayable",
      "type": "function"
    },
    {
      "inputs": [
        {
          "internalType": "address",
          "name": "from",
          "type": "address"
        },
        {
          "internalType": "address",
          "name": "to",
          "type": "address"
        },
        {
          "internalType": "uint256",
          "name": "tokenId",
          "type": "uint256"
        },
        {
          "internalType": "bytes",
          "name": "data",
          "type": "bytes"
        }
      ],
      "name": "safeTransferFrom",
      "outputs": [],
      "stateMutability": "nonpayable",
      "type": "function"
    },
    {
      "inputs": [
        {
          "internalType": "address",
          "name": "operator",
          "type": "address"
        },
        {
          "internalType": "bool",
          "name": "approved",
          "type": "bool"
        }
      ],
      "name": "setApprovalForAll",
      "outputs": [],
      "stateMutability": "nonpayable",
      "type": "function"
    },
    {
      "inputs": [
        {
          "internalType": "bytes4",
          "name": "interfaceId",
          "type": "bytes4"
        }
      ],
      "name": "supportsInterface",
      "outputs": [
        {
          "internalType": "bool",
          "name": "",
          "type": "bool"
        }
      ],
      "stateMutability": "view",
      "type": "function"
    },
    {
      "inputs": [],
      "name": "symbol",
      "outputs": [
        {
          "internalType": "string",
          "name": "",
          "type": "string"
        }
      ],
      "stateMutability": "view",
      "type": "function"
    },
    {
      "inputs": [],
      "name": "tokenCounter",
      "outputs": [
        {
          "internalType": "uint256",
          "name": "",
          "type": "uint256"
        }
      ],
      "stateMutability": "view",
      "type": "function"
    },
    {
      "inputs": [
        {
          "internalType": "uint256",
          "name": "tokenId",
          "type": "uint256"
        }
      ],
      "name": "tokenURI",
      "outputs": [
        {
          "internalType": "string",
          "name": "",
          "type": "string"
        }
      ],
      "stateMutability": "view",
      "type": "function"
    },
    {
      "inputs": [
        {
          "internalType": "address",
          "name": "from",
          "type": "address"
        },
        {
          "internalType": "address",
          "name": "to",
          "type": "address"
        },
        {
          "internalType": "uint256",
          "name": "tokenId",
          "type": "uint256"
        }
      ],
      "name": "transferFrom",
      "outputs": [],
      "stateMutability": "nonpayable",
      "type": "function"
    },
    {
      "inputs": [
        {
          "internalType": "address",
          "name": "newOwner",
          "type": "address"
        }
      ],
      "name": "transferOwnership",
      "outputs": [],
      "stateMutability": "nonpayable",
      "type": "function"
    },
    {
      "inputs": [
        {
          "internalType": "string",
          "name": "_manufacturer",
          "type": "string"
        },
        {
          "internalType": "string",
          "name": "_name",
          "type": "string"
        },
        {
          "internalType": "uint256",
          "name": "_manufactureDate",
          "type": "uint256"
        },
        {
          "internalType": "uint256",
          "name": "_expiryDate",
          "type": "uint256"
        },
        {
          "internalType": "bool",
          "name": "_isQualityProduct",
          "type": "bool"
        },
        {
          "internalType": "uint256",
          "name": "price",
          "type": "uint256"
        }
      ],
      "name": "createProduct",
      "outputs": [],
      "stateMutability": "nonpayable",
      "type": "function"
    },
    {
      "inputs": [
        {
          "components": [
            {
              "internalType": "string",
              "name": "name",
              "type": "string"
            },
            {
              "internalType": "string",
              "name": "manufacturer",
              "type": "string"
            },
            {
              "internalType": "uint256",
              "name": "manufactureDate",
              "type": "uint256"
            },
            {
              "internalType": "uint256",
              "name": "expiryDate",
              "type": "uint256"
            },
            {
              "internalType": "bool",
              "name": "isQualityProduct",
              "type": "bool"
            },
            {
              "internalType": "uint256",
              "name": "price",
              "type": "uint256"
            }
          ],
          "internalType": "struct FactoryTest.Product[]",
          "name": "_products",
          "type": "tuple[]"
        }
      ],
      "name": "createProductsBatch",
      "outputs": [],
      "stateMutability": "nonpayable",
      "type": "function"
    },
    {
      "inputs": [
        {
          "internalType": "uint256",
          "name": "_tokenId",
          "type": "uint256"
        }
      ],
      "name": "updatePrice",
      "outputs": [],
      "stateMutability": "nonpayable",
      "type": "function"
    },
    {
      "inputs": [
        {
          "internalType": "uint256[]",
          "name": "_tokenIds",
          "type": "uint256[]"
        }
      ],
      "name": "updatePricesBatch",
      "outputs": [],
      "stateMutability": "nonpayable",
      "type": "function"
    },
    {
      "inputs": [
        {
          "internalType": "uint256",
          "name": "_tokenId",
          "type": "uint256"
        }
      ],
      "name": "isProductExpired",
      "outputs": [
        {
          "internalType": "bool",
          "name": "",
          "type": "bool"
        }
      ],
      "stateMutability": "view",
      "type": "function"
    },
    {
      "inputs": [],
      "name": "calculateAveragePrice",
      "outputs": [
        {
          "internalType": "uint256",
          "name": "",
          "type": "uint256"
        }
      ],
      "stateMutability": "view",
      "type": "function"
    },
    {
      "inputs": [
        {
          "internalType": "uint256",
          "name": "_daysThreshold",
          "type": "uint256"
        }
      ],
      "name": "getExpiringProducts",
      "outputs": [
        {
          "internalType": "uint256[]",
          "name": "",
          "type": "uint256[]"
        }
      ],
      "stateMutability": "view",
      "type": "function"
    },
    {
      "inputs": [
        {
          "internalType": "string",
          "name": "_manufacturer",
          "type": "string"
        }
      ],
      "name": "getProductsByManufacturer",
      "outputs": [
        {
          "internalType": "uint256[]",
          "name": "",
          "type": "uint256[]"
        }
      ],
      "stateMutability": "view",
      "type": "function"
    }
  ],
  "bytecode": "0x60806040523480156200001157600080fd5b506040518060400160405280600781526020017f466163746f7279000000000000000000000000000000000000000000000000008152506040518060400160405280600781526020017f464143544f52590000000000000000000000000000000000000000000000000081525081600090816200008f91906200041a565b508060019081620000a191906200041a565b505050620000c4620000b8620000d260201b60201c565b620000da60201b60201c565b600060078190555062000501565b600033905090565b6000600660009054906101000a900473ffffffffffffffffffffffffffffffffffffffff16905081600660006101000a81548173ffffffffffffffffffffffffffffffffffffffff021916908373ffffffffffffffffffffffffffffffffffffffff1602179055508173ffffffffffffffffffffffffffffffffffffffff168173ffffffffffffffffffffffffffffffffffffffff167f8be0079c531659141344cd1fd0a4f28419497f9722a3daafe3b4186f6b6457e060405160405180910390a35050565b600081519050919050565b7f4e487b7100000000000000000000000000000000000000000000000000000000600052604160045260246000fd5b7f4e487b7100000000000000000000000000000000000000000000000000000000600052602260045260246000fd5b600060028204905060018216806200022257607f821691505b602082108103620002385762000237620001da565b5b50919050565b60008190508160005260206000209050919050565b60006020601f8301049050919050565b600082821b905092915050565b600060088302620002a27fffffffffffffffffffffffffffffffffffffffffffffffffffffffffffffffff8262000263565b620002ae868362000263565b95508019841693508086168417925050509392505050565b6000819050919050565b6000819050919050565b6000620002fb620002f5620002ef84620002c6565b620002d0565b620002c6565b9050919050565b6000819050919050565b6200031783620002da565b6200032f620003268262000302565b84845462000270565b825550505050565b600090565b6200034662000337565b620003538184846200030c565b505050565b5b818110156200037b576200036f6000826200033c565b60018101905062000359565b5050565b601f821115620003ca5762000394816200023e565b6200039f8462000253565b81016020851015620003af578190505b620003c7620003be8562000253565b83018262000358565b50505b505050565b600082821c905092915050565b6000620003ef60001984600802620003cf565b1980831691505092915050565b60006200040a8383620003dc565b9150826002028217905092915050565b6200042582620001a0565b67ffffffffffffffff811115620004415762000440620001ab565b5b6200044d825462000209565b6200045a8282856200037f565b600060209050601f8311600181146200049257600084156200047d578287015190505b620004898582620003fc565b865550620004f9565b601f198416620004a2866200023e565b60005b82811015620004cc57848901518255600182019150602085019450602081019050620004a5565b86831015620004ec5784890151620004e8601f891682620003dc565b8355505b6001600288020188555050505b505050505050565b61418080620005116000396000f3fe608060405234801561001057600080fd5b506004361061018e5760003560e01c80637acc0b20116100de578063b88d4fde11610097578063d4aaf79711610071578063d4aaf797146104aa578063e985e9c5146104c6578063ea9ba5d1146104f6578063f2fde38b146105145761018e565b8063b88d4fde14610440578063c87b56dd1461045c578063d082e3811461048c5761018e565b80637acc0b201461037b578063869892b1146103b05780638d6cc56d146103cc5780638da5cb5b146103e857806395d89b4114610406578063a22cb465146104245761018e565b80632e1ffb941161014b5780636102b37e116101255780636102b37e146102e15780636352211e1461031157806370a0823114610341578063715018a6146103715761018e565b80632e1ffb941461027957806342842e0e146102a9578063493b26be146102c55761018e565b806301ffc9a71461019357806306fdde03146101c3578063081812fc146101e1578063095ea7b3146102115780631e6ecae41461022d57806323b872dd1461025d575b600080fd5b6101ad60048036038101906101a891906125d5565b610530565b6040516101ba919061261d565b60405180910390f35b6101cb610612565b6040516101d891906126c8565b60405180910390f35b6101fb60048036038101906101f69190612720565b6106a4565b604051610208919061278e565b60405180910390f35b61022b600480360381019061022691906127d5565b6106ea565b005b6102476004803603810190610242919061294a565b610801565b6040516102549190612a51565b60405180910390f35b61027760048036038101906102729190612a73565b6109bc565b005b610293600480360381019061028e9190612720565b610a1c565b6040516102a09190612a51565b60405180910390f35b6102c360048036038101906102be9190612a73565b610bbf565b005b6102df60048036038101906102da9190612cba565b610bdf565b005b6102fb60048036038101906102f69190612720565b610c50565b604051610308919061261d565b60405180910390f35b61032b60048036038101906103269190612720565b610cc1565b604051610338919061278e565b60405180910390f35b61035b60048036038101906103569190612d03565b610d47565b6040516103689190612d3f565b60405180910390f35b610379610dfe565b005b61039560048036038101906103909190612720565b610e12565b6040516103a796959493929190612d5a565b60405180910390f35b6103ca60048036038101906103c59190612e8c565b610f6b565b005b6103e660048036038101906103e19190612720565b610fbf565b005b6103f0611051565b6040516103fd919061278e565b60405180910390f35b61040e61107b565b60405161041b91906126c8565b60405180910390f35b61043e60048036038101906104399190612ed5565b61110d565b005b61045a60048036038101906104559190612fb6565b611123565b005b61047660048036038101906104719190612720565b611185565b60405161048391906126c8565b60405180910390f35b6104946111ed565b6040516104a19190612d3f565b60405180910390f35b6104c460048036038101906104bf9190613039565b6111f3565b005b6104e060048036038101906104db91906130fe565b6113e8565b6040516104ed919061261d565b60405180910390f35b6104fe61147c565b60405161050b9190612d3f565b60405180910390f35b61052e60048036038101906105299190612d03565b61157c565b005b60007f80ac58cd000000000000000000000000000000000000000000000000000000007bffffffffffffffffffffffffffffffffffffffffffffffffffffffff1916827bffffffffffffffffffffffffffffffffffffffffffffffffffffffff191614806105fb57507f5b5e139f000000000000000000000000000000000000000000000000000000007bffffffffffffffffffffffffffffffffffffffffffffffffffffffff1916827bffffffffffffffffffffffffffffffffffffffffffffffffffffffff1916145b8061060b575061060a826115ff565b5b9050919050565b6060600080546106219061316d565b80601f016020809104026020016040519081016040528092919081815260200182805461064d9061316d565b801561069a5780601f1061066f5761010080835404028352916020019161069a565b820191906000526020600020905b81548152906001019060200180831161067d57829003601f168201915b5050505050905090565b60006106af82611669565b6004600083815260200190815260200160002060009054906101000a900473ffffffffffffffffffffffffffffffffffffffff169050919050565b60006106f582610cc1565b90508073ffffffffffffffffffffffffffffffffffffffff168373ffffffffffffffffffffffffffffffffffffffff1603610765576040517f08c379a000000000000000000000000000000000000000000000000000000000815260040161075c90613210565b60405180910390fd5b8073ffffffffffffffffffffffffffffffffffffffff166107846116b4565b73ffffffffffffffffffffffffffffffffffffffff1614806107b357506107b2816107ad6116b4565b6113e8565b5b6107f2576040517f08c379a00000000000000000000000000000000000000000000000000000000081526004016107e9906132a2565b60405180910390fd5b6107fc83836116bc565b505050565b6060600060075467ffffffffffffffff8111156108215761082061281f565b5b60405190808252806020026020018201604052801561084f5781602001602082028036833780820191505090505b5090506000805b60075481101561090a578460405160200161087191906132fe565b60405160208183030381529060405280519060200120600860008381526020019081526020016000206001016040516020016108ad91906133ad565b60405160208183030381529060405280519060200120036108f757808383815181106108dc576108db6133c4565b5b60200260200101818152505081806108f390613422565b9250505b808061090290613422565b915050610856565b5060008167ffffffffffffffff8111156109275761092661281f565b5b6040519080825280602002602001820160405280156109555781602001602082028036833780820191505090505b50905060005b828110156109b057838181518110610976576109756133c4565b5b6020026020010151828281518110610991576109906133c4565b5b60200260200101818152505080806109a890613422565b91505061095b565b50809350505050919050565b6109cd6109c76116b4565b82611775565b610a0c576040517f08c379a0000000000000000000000000000000000000000000000000000000008152600401610a03906134dc565b60405180910390fd5b610a1783838361180a565b505050565b6060600060075467ffffffffffffffff811115610a3c57610a3b61281f565b5b604051908082528060200260200182016040528015610a6a5781602001602082028036833780820191505090505b5090506000805b600754811015610b0d57600062015180426008600085815260200190815260200160002060030154610aa391906134fc565b610aad919061355f565b9050858111158015610ac55750610ac382610c50565b155b15610af95781848481518110610ade57610add6133c4565b5b6020026020010181815250508280610af590613422565b9350505b508080610b0590613422565b915050610a71565b5060008167ffffffffffffffff811115610b2a57610b2961281f565b5b604051908082528060200260200182016040528015610b585781602001602082028036833780820191505090505b50905060005b82811015610bb357838181518110610b7957610b786133c4565b5b6020026020010151828281518110610b9457610b936133c4565b5b6020026020010181815250508080610bab90613422565b915050610b5e565b50809350505050919050565b610bda83838360405180602001604052806000815250611123565b505050565b610be7611b03565b60005b8151811015610c4c576000828281518110610c0857610c076133c4565b5b60200260200101519050610c38816000015182602001518360400151846060015185608001518660a001516111f3565b508080610c4490613422565b915050610bea565b5050565b6000610c5b82611b81565b610c9a576040517f08c379a0000000000000000000000000000000000000000000000000000000008152600401610c91906135dc565b60405180910390fd5b60006008600084815260200190815260200160002060030154905080421015915050919050565b600080610ccd83611bc2565b9050600073ffffffffffffffffffffffffffffffffffffffff168173ffffffffffffffffffffffffffffffffffffffff1603610d3e576040517f08c379a0000000000000000000000000000000000000000000000000000000008152600401610d3590613648565b60405180910390fd5b80915050919050565b60008073ffffffffffffffffffffffffffffffffffffffff168273ffffffffffffffffffffffffffffffffffffffff1603610db7576040517f08c379a0000000000000000000000000000000000000000000000000000000008152600401610dae906136da565b60405180910390fd5b600360008373ffffffffffffffffffffffffffffffffffffffff1673ffffffffffffffffffffffffffffffffffffffff168152602001908152602001600020549050919050565b610e06611b03565b610e106000611bff565b565b6008602052806000526040600020600091509050806000018054610e359061316d565b80601f0160208091040260200160405190810160405280929190818152602001828054610e619061316d565b8015610eae5780601f10610e8357610100808354040283529160200191610eae565b820191906000526020600020905b815481529060010190602001808311610e9157829003601f168201915b505050505090806001018054610ec39061316d565b80601f0160208091040260200160405190810160405280929190818152602001828054610eef9061316d565b8015610f3c5780601f10610f1157610100808354040283529160200191610f3c565b820191906000526020600020905b815481529060010190602001808311610f1f57829003601f168201915b5050505050908060020154908060030154908060040160009054906101000a900460ff16908060050154905086565b610f73611b03565b60005b8151811015610fbb576000828281518110610f9457610f936133c4565b5b60200260200101519050610fa781610fbf565b508080610fb390613422565b915050610f76565b5050565b610fc7611b03565b610fd081611b81565b61100f576040517f08c379a0000000000000000000000000000000000000000000000000000000008152600401611006906135dc565b60405180910390fd5b60006110306008600084815260200190815260200160002060030154611cc5565b90508060086000848152602001908152602001600020600501819055505050565b6000600660009054906101000a900473ffffffffffffffffffffffffffffffffffffffff16905090565b60606001805461108a9061316d565b80601f01602080910402602001604051908101604052809291908181526020018280546110b69061316d565b80156111035780601f106110d857610100808354040283529160200191611103565b820191906000526020600020905b8154815290600101906020018083116110e657829003601f168201915b5050505050905090565b61111f6111186116b4565b8383611d1d565b5050565b61113461112e6116b4565b83611775565b611173576040517f08c379a000000000000000000000000000000000000000000000000000000000815260040161116a906134dc565b60405180910390fd5b61117f84848484611e89565b50505050565b606061119082611669565b600061119a611ee5565b905060008151116111ba57604051806020016040528060008152506111e5565b806111c484611efc565b6040516020016111d59291906136fa565b6040516020818303038152906040525b915050919050565b60075481565b6111fb611b03565b600086511161123f576040517f08c379a000000000000000000000000000000000000000000000000000000000815260040161123690613790565b60405180910390fd5b6000855111611283576040517f08c379a000000000000000000000000000000000000000000000000000000000815260040161127a906137fc565b60405180910390fd5b8284106112c5576040517f08c379a00000000000000000000000000000000000000000000000000000000081526004016112bc9061388e565b60405180910390fd5b600060075490506112d63382611fca565b6040518060c0016040528088815260200187815260200186815260200185815260200184151581526020018381525060086000838152602001908152602001600020600082015181600001908161132d9190613a45565b5060208201518160010190816113439190613a45565b50604082015181600201556060820151816003015560808201518160040160006101000a81548160ff02191690831515021790555060a082015181600501559050506007600081548092919061139890613422565b9190505550807ff7d840a7f05259f95d2507bf22e01ff2bfa2cc6284e83dbc8cbc3047915db9ac8888888888886040516113d796959493929190612d5a565b60405180910390a250505050505050565b6000600560008473ffffffffffffffffffffffffffffffffffffffff1673ffffffffffffffffffffffffffffffffffffffff16815260200190815260200160002060008373ffffffffffffffffffffffffffffffffffffffff1673ffffffffffffffffffffffffffffffffffffffff16815260200190815260200160002060009054906101000a900460ff16905092915050565b600080600754116114c2576040517f08c379a00000000000000000000000000000000000000000000000000000000081526004016114b990613b89565b60405180910390fd5b60008060005b600754811015611525576114db81610c50565b611512576008600082815260200190815260200160002060050154836115019190613ba9565b9250818061150e90613422565b9250505b808061151d90613422565b9150506114c8565b5060008111611569576040517f08c379a000000000000000000000000000000000000000000000000000000000815260040161156090613c4f565b60405180910390fd5b8082611575919061355f565b9250505090565b611584611b03565b600073ffffffffffffffffffffffffffffffffffffffff168173ffffffffffffffffffffffffffffffffffffffff16036115f3576040517f08c379a00000000000000000000000000000000000000000000000000000000081526004016115ea90613ce1565b60405180910390fd5b6115fc81611bff565b50565b60007f01ffc9a7000000000000000000000000000000000000000000000000000000007bffffffffffffffffffffffffffffffffffffffffffffffffffffffff1916827bffffffffffffffffffffffffffffffffffffffffffffffffffffffff1916149050919050565b61167281611b81565b6116b1576040517f08c379a00000000000000000000000000000000000000000000000000000000081526004016116a890613648565b60405180910390fd5b50565b600033905090565b816004600083815260200190815260200160002060006101000a81548173ffffffffffffffffffffffffffffffffffffffff021916908373ffffffffffffffffffffffffffffffffffffffff160217905550808273ffffffffffffffffffffffffffffffffffffffff1661172f83610cc1565b73ffffffffffffffffffffffffffffffffffffffff167f8c5be1e5ebec7d5bd14f71427d1e84f3dd0314c0f7b2291e5b200ac8c7c3b92560405160405180910390a45050565b60008061178183610cc1565b90508073ffffffffffffffffffffffffffffffffffffffff168473ffffffffffffffffffffffffffffffffffffffff1614806117c357506117c281856113e8565b5b8061180157508373ffffffffffffffffffffffffffffffffffffffff166117e9846106a4565b73ffffffffffffffffffffffffffffffffffffffff16145b91505092915050565b8273ffffffffffffffffffffffffffffffffffffffff1661182a82610cc1565b73ffffffffffffffffffffffffffffffffffffffff1614611880576040517f08c379a000000000000000000000000000000000000000000000000000000000815260040161187790613d73565b60405180910390fd5b600073ffffffffffffffffffffffffffffffffffffffff168273ffffffffffffffffffffffffffffffffffffffff16036118ef576040517f08c379a00000000000000000000000000000000000000000000000000000000081526004016118e690613e05565b60405180910390fd5b6118fc8383836001611fe8565b8273ffffffffffffffffffffffffffffffffffffffff1661191c82610cc1565b73ffffffffffffffffffffffffffffffffffffffff1614611972576040517f08c379a000000000000000000000000000000000000000000000000000000000815260040161196990613d73565b60405180910390fd5b6004600082815260200190815260200160002060006101000a81549073ffffffffffffffffffffffffffffffffffffffff02191690556001600360008573ffffffffffffffffffffffffffffffffffffffff1673ffffffffffffffffffffffffffffffffffffffff168152602001908152602001600020600082825403925050819055506001600360008473ffffffffffffffffffffffffffffffffffffffff1673ffffffffffffffffffffffffffffffffffffffff16815260200190815260200160002060008282540192505081905550816002600083815260200190815260200160002060006101000a81548173ffffffffffffffffffffffffffffffffffffffff021916908373ffffffffffffffffffffffffffffffffffffffff160217905550808273ffffffffffffffffffffffffffffffffffffffff168473ffffffffffffffffffffffffffffffffffffffff167fddf252ad1be2c89b69c2b068fc378daa952ba7f163c4a11628f55a4df523b3ef60405160405180910390a4611afe8383836001611fee565b505050565b611b0b6116b4565b73ffffffffffffffffffffffffffffffffffffffff16611b29611051565b73ffffffffffffffffffffffffffffffffffffffff1614611b7f576040517f08c379a0000000000000000000000000000000000000000000000000000000008152600401611b7690613e71565b60405180910390fd5b565b60008073ffffffffffffffffffffffffffffffffffffffff16611ba383611bc2565b73ffffffffffffffffffffffffffffffffffffffff1614159050919050565b60006002600083815260200190815260200160002060009054906101000a900473ffffffffffffffffffffffffffffffffffffffff169050919050565b6000600660009054906101000a900473ffffffffffffffffffffffffffffffffffffffff16905081600660006101000a81548173ffffffffffffffffffffffffffffffffffffffff021916908373ffffffffffffffffffffffffffffffffffffffff1602179055508173ffffffffffffffffffffffffffffffffffffffff168173ffffffffffffffffffffffffffffffffffffffff167f8be0079c531659141344cd1fd0a4f28419497f9722a3daafe3b4186f6b6457e060405160405180910390a35050565b600080620151804284611cd891906134fc565b611ce2919061355f565b90506000601e821115611cf9576103e89050611d13565b6007821115611d0c576103209050611d12565b6101f490505b5b8092505050919050565b8173ffffffffffffffffffffffffffffffffffffffff168373ffffffffffffffffffffffffffffffffffffffff1603611d8b576040517f08c379a0000000000000000000000000000000000000000000000000000000008152600401611d8290613edd565b60405180910390fd5b80600560008573ffffffffffffffffffffffffffffffffffffffff1673ffffffffffffffffffffffffffffffffffffffff16815260200190815260200160002060008473ffffffffffffffffffffffffffffffffffffffff1673ffffffffffffffffffffffffffffffffffffffff16815260200190815260200160002060006101000a81548160ff0219169083151502179055508173ffffffffffffffffffffffffffffffffffffffff168373ffffffffffffffffffffffffffffffffffffffff167f17307eab39ab6107e8899845ad3d59bd9653f200f220920489ca2b5937696c3183604051611e7c919061261d565b60405180910390a3505050565b611e9484848461180a565b611ea084848484611ff4565b611edf576040517f08c379a0000000000000000000000000000000000000000000000000000000008152600401611ed690613f6f565b60405180910390fd5b50505050565b606060405180602001604052806000815250905090565b606060006001611f0b8461217b565b01905060008167ffffffffffffffff811115611f2a57611f2961281f565b5b6040519080825280601f01601f191660200182016040528015611f5c5781602001600182028036833780820191505090505b509050600082602001820190505b600115611fbf578080600190039150507f3031323334353637383961626364656600000000000000000000000000000000600a86061a8153600a8581611fb357611fb2613530565b5b04945060008503611f6a575b819350505050919050565b611fe48282604051806020016040528060008152506122ce565b5050565b50505050565b50505050565b60006120158473ffffffffffffffffffffffffffffffffffffffff16612329565b1561216e578373ffffffffffffffffffffffffffffffffffffffff1663150b7a0261203e6116b4565b8786866040518563ffffffff1660e01b81526004016120609493929190613fe4565b6020604051808303816000875af192505050801561209c57506040513d601f19601f820116820180604052508101906120999190614045565b60015b61211e573d80600081146120cc576040519150601f19603f3d011682016040523d82523d6000602084013e6120d1565b606091505b506000815103612116576040517f08c379a000000000000000000000000000000000000000000000000000000000815260040161210d90613f6f565b60405180910390fd5b805181602001fd5b63150b7a0260e01b7bffffffffffffffffffffffffffffffffffffffffffffffffffffffff1916817bffffffffffffffffffffffffffffffffffffffffffffffffffffffff191614915050612173565b600190505b949350505050565b600080600090507a184f03e93ff9f4daa797ed6e38ed64bf6a1f01000000000000000083106121d9577a184f03e93ff9f4daa797ed6e38ed64bf6a1f01000000000000000083816121cf576121ce613530565b5b0492506040810190505b6d04ee2d6d415b85acef81000000008310612216576d04ee2d6d415b85acef8100000000838161220c5761220b613530565b5b0492506020810190505b662386f26fc10000831061224557662386f26fc10000838161223b5761223a613530565b5b0492506010810190505b6305f5e100831061226e576305f5e100838161226457612263613530565b5b0492506008810190505b612710831061229357612710838161228957612288613530565b5b0492506004810190505b606483106122b657606483816122ac576122ab613530565b5b0492506002810190505b600a83106122c5576001810190505b80915050919050565b6122d8838361234c565b6122e56000848484611ff4565b612324576040517f08c379a000000000000000000000000000000000000000000000000000000000815260040161231b90613f6f565b60405180910390fd5b505050565b6000808273ffffffffffffffffffffffffffffffffffffffff163b119050919050565b600073ffffffffffffffffffffffffffffffffffffffff168273ffffffffffffffffffffffffffffffffffffffff16036123bb576040517f08c379a00000000000000000000000000000000000000000000000000000000081526004016123b2906140be565b60405180910390fd5b6123c481611b81565b15612404576040517f08c379a00000000000000000000000000000000000000000000000000000000081526004016123fb9061412a565b60405180910390fd5b612412600083836001611fe8565b61241b81611b81565b1561245b576040517f08c379a00000000000000000000000000000000000000000000000000000000081526004016124529061412a565b60405180910390fd5b6001600360008473ffffffffffffffffffffffffffffffffffffffff1673ffffffffffffffffffffffffffffffffffffffff16815260200190815260200160002060008282540192505081905550816002600083815260200190815260200160002060006101000a81548173ffffffffffffffffffffffffffffffffffffffff021916908373ffffffffffffffffffffffffffffffffffffffff160217905550808273ffffffffffffffffffffffffffffffffffffffff16600073ffffffffffffffffffffffffffffffffffffffff167fddf252ad1be2c89b69c2b068fc378daa952ba7f163c4a11628f55a4df523b3ef60405160405180910390a4612565600083836001611fee565b5050565b6000604051905090565b600080fd5b600080fd5b60007fffffffff0000000000000000000000000000000000000000000000000000000082169050919050565b6125b28161257d565b81146125bd57600080fd5b50565b6000813590506125cf816125a9565b92915050565b6000602082840312156125eb576125ea612573565b5b60006125f9848285016125c0565b91505092915050565b60008115159050919050565b61261781612602565b82525050565b6000602082019050612632600083018461260e565b92915050565b600081519050919050565b600082825260208201905092915050565b60005b83811015612672578082015181840152602081019050612657565b60008484015250505050565b6000601f19601f8301169050919050565b600061269a82612638565b6126a48185612643565b93506126b4818560208601612654565b6126bd8161267e565b840191505092915050565b600060208201905081810360008301526126e2818461268f565b905092915050565b6000819050919050565b6126fd816126ea565b811461270857600080fd5b50565b60008135905061271a816126f4565b92915050565b60006020828403121561273657612735612573565b5b60006127448482850161270b565b91505092915050565b600073ffffffffffffffffffffffffffffffffffffffff82169050919050565b60006127788261274d565b9050919050565b6127888161276d565b82525050565b60006020820190506127a3600083018461277f565b92915050565b6127b28161276d565b81146127bd57600080fd5b50565b6000813590506127cf816127a9565b92915050565b600080604083850312156127ec576127eb612573565b5b60006127fa858286016127c0565b925050602061280b8582860161270b565b9150509250929050565b600080fd5b600080fd5b7f4e487b7100000000000000000000000000000000000000000000000000000000600052604160045260246000fd5b6128578261267e565b810181811067ffffffffffffffff821117156128765761287561281f565b5b80604052505050565b6000612889612569565b9050612895828261284e565b919050565b600067ffffffffffffffff8211156128b5576128b461281f565b5b6128be8261267e565b9050602081019050919050565b82818337600083830152505050565b60006128ed6128e88461289a565b61287f565b9050828152602081018484840111156129095761290861281a565b5b6129148482856128cb565b509392505050565b600082601f83011261293157612930612815565b5b81356129418482602086016128da565b91505092915050565b6000602082840312156129605761295f612573565b5b600082013567ffffffffffffffff81111561297e5761297d612578565b5b61298a8482850161291c565b91505092915050565b600081519050919050565b600082825260208201905092915050565b6000819050602082019050919050565b6129c8816126ea565b82525050565b60006129da83836129bf565b60208301905092915050565b6000602082019050919050565b60006129fe82612993565b612a08818561299e565b9350612a13836129af565b8060005b83811015612a44578151612a2b88826129ce565b9750612a36836129e6565b925050600181019050612a17565b5085935050505092915050565b60006020820190508181036000830152612a6b81846129f3565b905092915050565b600080600060608486031215612a8c57612a8b612573565b5b6000612a9a868287016127c0565b9350506020612aab868287016127c0565b9250506040612abc8682870161270b565b9150509250925092565b600067ffffffffffffffff821115612ae157612ae061281f565b5b602082029050602081019050919050565b600080fd5b600080fd5b600080fd5b612b0a81612602565b8114612b1557600080fd5b50565b600081359050612b2781612b01565b92915050565b600060c08284031215612b4357612b42612af7565b5b612b4d60c061287f565b9050600082013567ffffffffffffffff811115612b6d57612b6c612afc565b5b612b798482850161291c565b600083015250602082013567ffffffffffffffff811115612b9d57612b9c612afc565b5b612ba98482850161291c565b6020830152506040612bbd8482850161270b565b6040830152506060612bd18482850161270b565b6060830152506080612be584828501612b18565b60808301525060a0612bf98482850161270b565b60a08301525092915050565b6000612c18612c1384612ac6565b61287f565b90508083825260208201905060208402830185811115612c3b57612c3a612af2565b5b835b81811015612c8257803567ffffffffffffffff811115612c6057612c5f612815565b5b808601612c6d8982612b2d565b85526020850194505050602081019050612c3d565b5050509392505050565b600082601f830112612ca157612ca0612815565b5b8135612cb1848260208601612c05565b91505092915050565b600060208284031215612cd057612ccf612573565b5b600082013567ffffffffffffffff811115612cee57612ced612578565b5b612cfa84828501612c8c565b91505092915050565b600060208284031215612d1957612d18612573565b5b6000612d27848285016127c0565b91505092915050565b612d39816126ea565b82525050565b6000602082019050612d546000830184612d30565b92915050565b600060c0820190508181036000830152612d74818961268f565b90508181036020830152612d88818861268f565b9050612d976040830187612d30565b612da46060830186612d30565b612db1608083018561260e565b612dbe60a0830184612d30565b979650505050505050565b600067ffffffffffffffff821115612de457612de361281f565b5b602082029050602081019050919050565b6000612e08612e0384612dc9565b61287f565b90508083825260208201905060208402830185811115612e2b57612e2a612af2565b5b835b81811015612e545780612e40888261270b565b845260208401935050602081019050612e2d565b5050509392505050565b600082601f830112612e7357612e72612815565b5b8135612e83848260208601612df5565b91505092915050565b600060208284031215612ea257612ea1612573565b5b600082013567ffffffffffffffff811115612ec057612ebf612578565b5b612ecc84828501612e5e565b91505092915050565b60008060408385031215612eec57612eeb612573565b5b6000612efa858286016127c0565b9250506020612f0b85828601612b18565b9150509250929050565b600067ffffffffffffffff821115612f3057612f2f61281f565b5b612f398261267e565b9050602081019050919050565b6000612f59612f5484612f15565b61287f565b905082815260208101848484011115612f7557612f7461281a565b5b612f808482856128cb565b509392505050565b600082601f830112612f9d57612f9c612815565b5b8135612fad848260208601612f46565b91505092915050565b60008060008060808587031215612fd057612fcf612573565b5b6000612fde878288016127c0565b9450506020612fef878288016127c0565b93505060406130008782880161270b565b925050606085013567ffffffffffffffff81111561302157613020612578565b5b61302d87828801612f88565b91505092959194509250565b60008060008060008060c0878903121561305657613055612573565b5b600087013567ffffffffffffffff81111561307457613073612578565b5b61308089828a0161291c565b965050602087013567ffffffffffffffff8111156130a1576130a0612578565b5b6130ad89828a0161291c565b95505060406130be89828a0161270b565b94505060606130cf89828a0161270b565b93505060806130e089828a01612b18565b92505060a06130f189828a0161270b565b9150509295509295509295565b6000806040838503121561311557613114612573565b5b6000613123858286016127c0565b9250506020613134858286016127c0565b9150509250929050565b7f4e487b7100000000000000000000000000000000000000000000000000000000600052602260045260246000fd5b6000600282049050600182168061318557607f821691505b6020821081036131985761319761313e565b5b50919050565b7f4552433732313a20617070726f76616c20746f2063757272656e74206f776e6560008201527f7200000000000000000000000000000000000000000000000000000000000000602082015250565b60006131fa602183612643565b91506132058261319e565b604082019050919050565b60006020820190508181036000830152613229816131ed565b9050919050565b7f4552433732313a20617070726f76652063616c6c6572206973206e6f7420746f60008201527f6b656e206f776e6572206f7220617070726f76656420666f7220616c6c000000602082015250565b600061328c603d83612643565b915061329782613230565b604082019050919050565b600060208201905081810360008301526132bb8161327f565b9050919050565b600081905092915050565b60006132d882612638565b6132e281856132c2565b93506132f2818560208601612654565b80840191505092915050565b600061330a82846132cd565b915081905092915050565b60008190508160005260206000209050919050565b600081546133378161316d565b61334181866132c2565b9450600182166000811461335c5760018114613371576133a4565b60ff19831686528115158202860193506133a4565b61337a85613315565b60005b8381101561339c5781548189015260018201915060208101905061337d565b838801955050505b50505092915050565b60006133b9828461332a565b915081905092915050565b7f4e487b7100000000000000000000000000000000000000000000000000000000600052603260045260246000fd5b7f4e487b7100000000000000000000000000000000000000000000000000000000600052601160045260246000fd5b600061342d826126ea565b91507fffffffffffffffffffffffffffffffffffffffffffffffffffffffffffffffff820361345f5761345e6133f3565b5b600182019050919050565b7f4552433732313a2063616c6c6572206973206e6f7420746f6b656e206f776e6560008201527f72206f7220617070726f76656400000000000000000000000000000000000000602082015250565b60006134c6602d83612643565b91506134d18261346a565b604082019050919050565b600060208201905081810360008301526134f5816134b9565b9050919050565b6000613507826126ea565b9150613512836126ea565b925082820390508181111561352a576135296133f3565b5b92915050565b7f4e487b7100000000000000000000000000000000000000000000000000000000600052601260045260246000fd5b600061356a826126ea565b9150613575836126ea565b92508261358557613584613530565b5b828204905092915050565b7f546f6b656e20494420646f6573206e6f742065786973742e0000000000000000600082015250565b60006135c6601883612643565b91506135d182613590565b602082019050919050565b600060208201905081810360008301526135f5816135b9565b9050919050565b7f4552433732313a20696e76616c696420746f6b656e2049440000000000000000600082015250565b6000613632601883612643565b915061363d826135fc565b602082019050919050565b6000602082019050818103600083015261366181613625565b9050919050565b7f4552433732313a2061646472657373207a65726f206973206e6f74206120766160008201527f6c6964206f776e65720000000000000000000000000000000000000000000000602082015250565b60006136c4602983612643565b91506136cf82613668565b604082019050919050565b600060208201905081810360008301526136f3816136b7565b9050919050565b600061370682856132cd565b915061371282846132cd565b91508190509392505050565b7f4d616e756661637475726572206e616d652073686f756c64206e6f742062652060008201527f656d707479000000000000000000000000000000000000000000000000000000602082015250565b600061377a602583612643565b91506137858261371e565b604082019050919050565b600060208201905081810360008301526137a98161376d565b9050919050565b7f50726f64756374206e616d652073686f756c64206e6f7420626520656d707479600082015250565b60006137e6602083612643565b91506137f1826137b0565b602082019050919050565b60006020820190508181036000830152613815816137d9565b9050919050565b7f4d616e756661637475726520646174652073686f756c64206265206561726c6960008201527f6572207468616e20657870697279206461746500000000000000000000000000602082015250565b6000613878603383612643565b91506138838261381c565b604082019050919050565b600060208201905081810360008301526138a78161386b565b9050919050565b60006020601f8301049050919050565b600082821b905092915050565b6000600883026138fb7fffffffffffffffffffffffffffffffffffffffffffffffffffffffffffffffff826138be565b61390586836138be565b95508019841693508086168417925050509392505050565b6000819050919050565b600061394261393d613938846126ea565b61391d565b6126ea565b9050919050565b6000819050919050565b61395c83613927565b61397061396882613949565b8484546138cb565b825550505050565b600090565b613985613978565b613990818484613953565b505050565b5b818110156139b4576139a960008261397d565b600181019050613996565b5050565b601f8211156139f9576139ca81613315565b6139d3846138ae565b810160208510156139e2578190505b6139f66139ee856138ae565b830182613995565b50505b505050565b600082821c905092915050565b6000613a1c600019846008026139fe565b1980831691505092915050565b6000613a358383613a0b565b9150826002028217905092915050565b613a4e82612638565b67ffffffffffffffff811115613a6757613a6661281f565b5b613a71825461316d565b613a7c8282856139b8565b600060209050601f831160018114613aaf5760008415613a9d578287015190505b613aa78582613a29565b865550613b0f565b601f198416613abd86613315565b60005b82811015613ae557848901518255600182019150602085019450602081019050613ac0565b86831015613b025784890151613afe601f891682613a0b565b8355505b6001600288020188555050505b505050505050565b7f4e6f2070726f647563747320617661696c61626c6520666f7220616e616c797360008201527f69732e0000000000000000000000000000000000000000000000000000000000602082015250565b6000613b73602383612643565b9150613b7e82613b17565b604082019050919050565b60006020820190508181036000830152613ba281613b66565b9050919050565b6000613bb4826126ea565b9150613bbf836126ea565b9250828201905080821115613bd757613bd66133f3565b5b92915050565b7f4e6f2076616c69642070726f647563747320617661696c61626c6520666f722060008201527f616e616c797369732e0000000000000000000000000000000000000000000000602082015250565b6000613c39602983612643565b9150613c4482613bdd565b604082019050919050565b60006020820190508181036000830152613c6881613c2c565b9050919050565b7f4f776e61626c653a206e6577206f776e657220697320746865207a65726f206160008201527f6464726573730000000000000000000000000000000000000000000000000000602082015250565b6000613ccb602683612643565b9150613cd682613c6f565b604082019050919050565b60006020820190508181036000830152613cfa81613cbe565b9050919050565b7f4552433732313a207472616e736665722066726f6d20696e636f72726563742060008201527f6f776e6572000000000000000000000000000000000000000000000000000000602082015250565b6000613d5d602583612643565b9150613d6882613d01565b604082019050919050565b60006020820190508181036000830152613d8c81613d50565b9050919050565b7f4552433732313a207472616e7366657220746f20746865207a65726f2061646460008201527f7265737300000000000000000000000000000000000000000000000000000000602082015250565b6000613def602483612643565b9150613dfa82613d93565b604082019050919050565b60006020820190508181036000830152613e1e81613de2565b9050919050565b7f4f776e61626c653a2063616c6c6572206973206e6f7420746865206f776e6572600082015250565b6000613e5b602083612643565b9150613e6682613e25565b602082019050919050565b60006020820190508181036000830152613e8a81613e4e565b9050919050565b7f4552433732313a20617070726f766520746f2063616c6c657200000000000000600082015250565b6000613ec7601983612643565b9150613ed282613e91565b602082019050919050565b60006020820190508181036000830152613ef681613eba565b9050919050565b7f4552433732313a207472616e7366657220746f206e6f6e20455243373231526560008201527f63656976657220696d706c656d656e7465720000000000000000000000000000602082015250565b6000613f59603283612643565b9150613f6482613efd565b604082019050919050565b60006020820190508181036000830152613f8881613f4c565b9050919050565b600081519050919050565b600082825260208201905092915050565b6000613fb682613f8f565b613fc08185613f9a565b9350613fd0818560208601612654565b613fd98161267e565b840191505092915050565b6000608082019050613ff9600083018761277f565b614006602083018661277f565b6140136040830185612d30565b81810360608301526140258184613fab565b905095945050505050565b60008151905061403f816125a9565b92915050565b60006020828403121561405b5761405a612573565b5b600061406984828501614030565b91505092915050565b7f4552433732313a206d696e7420746f20746865207a65726f2061646472657373600082015250565b60006140a8602083612643565b91506140b382614072565b602082019050919050565b600060208201905081810360008301526140d78161409b565b9050919050565b7f4552433732313a20746f6b656e20616c7265616479206d696e74656400000000600082015250565b6000614114601c83612643565b915061411f826140de565b602082019050919050565b6000602082019050818103600083015261414381614107565b905091905056fea264697066735822122006a0768e94a2180305e8465ac649e169bf903a4924cae2bd931b2c19f6d25f2d64736f6c63430008130033",
  "immutableReferences": {},
  "source": "// SPDX-License-Identifier: MIT\r\npragma solidity ^0.8.0;\r\n\r\nimport \"@openzeppelin/contracts/token/ERC721/ERC721.sol\";\r\nimport \"@openzeppelin/contracts/access/Ownable.sol\";\r\n\r\ncontract FactoryTest is ERC721, Ownable {\r\n    uint256 public tokenCounter;\r\n\r\n    struct Product {\r\n        string name;\r\n        string manufacturer;\r\n        uint256 manufactureDate;\r\n        uint256 expiryDate;\r\n        bool isQualityProduct;\r\n        uint256 price;\r\n    }\r\n\r\n    mapping(uint256 => Product) public products;\r\n\r\n    constructor() ERC721(\"Factory\", \"FACTORY\") {\r\n        tokenCounter = 0;\r\n    }\r\n\r\n    event ProductCreated(uint256 indexed tokenId, string manufacturer, string name, uint256 manufactureDate, uint256 expiryDate, bool isQualityProduct, uint256 price);\r\n\r\n    function createProduct(\r\n        string memory _manufacturer,\r\n        string memory _name,\r\n        uint256 _manufactureDate,\r\n        uint256 _expiryDate,\r\n        bool _isQualityProduct,\r\n        uint256 price\r\n    ) public onlyOwner {\r\n        require(bytes(_manufacturer).length > 0, \"Manufacturer name should not be empty\");\r\n        require(bytes(_name).length > 0, \"Product name should not be empty\");\r\n        require(_manufactureDate < _expiryDate, \"Manufacture date should be earlier than expiry date\");\r\n\r\n        uint256 tokenId = tokenCounter;\r\n        _safeMint(msg.sender, tokenId);\r\n        // uint256 price = calculatePrice(_expiryDate);\r\n        products[tokenId] = Product(\r\n            _manufacturer,\r\n            _name,\r\n            _manufactureDate,\r\n            _expiryDate,\r\n            _isQualityProduct,\r\n            price\r\n        );\r\n        tokenCounter++;\r\n\r\n        emit ProductCreated(tokenId, _manufacturer, _name, _manufactureDate, _expiryDate, _isQualityProduct, price);\r\n    }\r\n\r\n\r\n    function createProductsBatch(Product[] memory _products) public onlyOwner {\r\n    for (uint256 i = 0; i < _products.length; i++) {\r\n        Product memory newProduct = _products[i];\r\n        createProduct(newProduct.name, newProduct.manufacturer, newProduct.manufactureDate, newProduct.expiryDate, newProduct.isQualityProduct, newProduct.price);\r\n    }\r\n    }\r\n\r\n\r\n    function calculatePrice(uint256 _expiryDate) internal view returns (uint256) {\r\n        uint256 remainingDays = (_expiryDate - block.timestamp) / 86400;\r\n        uint256 price;\r\n\r\n        if (remainingDays > 30) {\r\n            price = 1000;\r\n        } else if (remainingDays > 7) {\r\n            price = 800;\r\n        } else {\r\n            price = 500;\r\n        }\r\n\r\n        return price;\r\n    }\r\n\r\n    function updatePrice(uint256 _tokenId) public onlyOwner {\r\n        require(_exists(_tokenId), \"Token ID does not exist.\");\r\n        uint256 newPrice = calculatePrice(products[_tokenId].expiryDate);\r\n        products[_tokenId].price = newPrice;\r\n    }\r\n\r\n    function updatePricesBatch(uint256[] memory _tokenIds) public onlyOwner {\r\n    for (uint256 i = 0; i < _tokenIds.length; i++) {\r\n        uint256 tokenId = _tokenIds[i];\r\n        //uint256 newPrice = calculatePrice(tokenId);\r\n        updatePrice(tokenId);\r\n    }\r\n    }\r\n\r\n    function isProductExpired(uint256 _tokenId) public view returns (bool) {\r\n        require(_exists(_tokenId), \"Token ID does not exist.\");\r\n        uint256 expiryDate = products[_tokenId].expiryDate;\r\n        return block.timestamp >= expiryDate;\r\n    }\r\n\r\n    function calculateAveragePrice() public view returns (uint256) {\r\n        \r\n        require(tokenCounter > 0, \"No products available for analysis.\");\r\n\r\n        uint256 totalPrice = 0;\r\n        uint256 validProductCount = 0;\r\n\r\n        for (uint256 i = 0; i < tokenCounter; i++) {\r\n           if (!isProductExpired(i)) {\r\n                totalPrice += products[i].price;\r\n                validProductCount++;\r\n            }\r\n    }\r\n\r\n        require(validProductCount > 0, \"No valid products available for analysis.\");\r\n        return totalPrice / validProductCount;\r\n    }\r\n\r\n\r\n    function getExpiringProducts(uint256 _daysThreshold) public view returns (uint256[] memory) {\r\n        uint256[] memory expiringProductIds = new uint256[](tokenCounter);\r\n        uint256 expiringProductCount = 0;\r\n\r\n        for (uint256 i = 0; i < tokenCounter; i++) {\r\n            uint256 remainingDays = (products[i].expiryDate - block.timestamp) / 86400;\r\n            if (remainingDays <= _daysThreshold && !isProductExpired(i)) {\r\n                expiringProductIds[expiringProductCount] = i;\r\n                expiringProductCount++;\r\n            }\r\n        }\r\n\r\n        uint256[] memory result = new uint256[](expiringProductCount);\r\n        for (uint256 i = 0; i < expiringProductCount; i++) {\r\n            result[i] = expiringProductIds[i];\r\n        }\r\n        return result;\r\n    }\r\n    function getProductsByManufacturer(string memory _manufacturer) public view returns (uint256[] memory) {\r\n        uint256[] memory productsByManufacturer = new uint256[](tokenCounter);\r\n        uint256 productCount = 0;\r\n\r\n        for (uint256 i = 0; i < tokenCounter; i++) {\r\n            if (keccak256(abi.encodePacked(products[i].manufacturer)) == keccak256(abi.encodePacked(_manufacturer))) {\r\n                productsByManufacturer[productCount] = i;\r\n                productCount++;\r\n            }\r\n        }\r\n\r\n        uint256[] memory result = new uint256[](productCount);\r\n        for (uint256 i = 0; i < productCount; i++) {\r\n            result[i] = productsByManufacturer[i];\r\n        }\r\n        return result;\r\n    }\r\n\r\n}\r\n",
  "sourcePath": "C:\\Users\\cheny\\Documents\\GitHub\\smart-expiring-product-management\\contracts\\factory v1.2.sol",
  "compiler": {
    "name": "solc",
    "version": "0.8.19+commit.7dd6d404.Emscripten.clang"
  },
  "schemaVersion": "3.4.13",
  "updatedAt": "2023-04-30T15:05:35.139Z",
  "devdoc": {
    "events": {
      "Approval(address,address,uint256)": {
        "details": "Emitted when `owner` enables `approved` to manage the `tokenId` token."
      },
      "ApprovalForAll(address,address,bool)": {
        "details": "Emitted when `owner` enables or disables (`approved`) `operator` to manage all of its assets."
      },
      "Transfer(address,address,uint256)": {
        "details": "Emitted when `tokenId` token is transferred from `from` to `to`."
      }
    },
    "kind": "dev",
    "methods": {
      "approve(address,uint256)": {
        "details": "See {IERC721-approve}."
      },
      "balanceOf(address)": {
        "details": "See {IERC721-balanceOf}."
      },
      "getApproved(uint256)": {
        "details": "See {IERC721-getApproved}."
      },
      "isApprovedForAll(address,address)": {
        "details": "See {IERC721-isApprovedForAll}."
      },
      "name()": {
        "details": "See {IERC721Metadata-name}."
      },
      "owner()": {
        "details": "Returns the address of the current owner."
      },
      "ownerOf(uint256)": {
        "details": "See {IERC721-ownerOf}."
      },
      "renounceOwnership()": {
        "details": "Leaves the contract without owner. It will not be possible to call `onlyOwner` functions anymore. Can only be called by the current owner. NOTE: Renouncing ownership will leave the contract without an owner, thereby removing any functionality that is only available to the owner."
      },
      "safeTransferFrom(address,address,uint256)": {
        "details": "See {IERC721-safeTransferFrom}."
      },
      "safeTransferFrom(address,address,uint256,bytes)": {
        "details": "See {IERC721-safeTransferFrom}."
      },
      "setApprovalForAll(address,bool)": {
        "details": "See {IERC721-setApprovalForAll}."
      },
      "supportsInterface(bytes4)": {
        "details": "See {IERC165-supportsInterface}."
      },
      "symbol()": {
        "details": "See {IERC721Metadata-symbol}."
      },
      "tokenURI(uint256)": {
        "details": "See {IERC721Metadata-tokenURI}."
      },
      "transferFrom(address,address,uint256)": {
        "details": "See {IERC721-transferFrom}."
      },
      "transferOwnership(address)": {
        "details": "Transfers ownership of the contract to a new account (`newOwner`). Can only be called by the current owner."
      }
    },
    "version": 1
  },
  "userdoc": {
    "kind": "user",
    "methods": {},
    "version": 1
  }
}